{
	"data": {
		"bytecode": {
			"linkReferences": {},
			"object": "6080604052600f5f553480156012575f80fd5b506101e4806100205f395ff3fe608060405234801561000f575f80fd5b5060043610610060575f3560e01c806361bc221a146100645780636d3b84f2146100825780639eb930f2146100a0578063a12224db146100aa578063b22b7b36146100c8578063d07c5fef146100e6575b5f80fd5b61006c610104565b6040516100799190610162565b60405180910390f35b61008a610109565b6040516100979190610195565b60405180910390f35b6100a8610116565b005b6100b261011f565b6040516100bf9190610162565b60405180910390f35b6100d061012e565b6040516100dd9190610162565b60405180910390f35b6100ee610136565b6040516100fb9190610195565b60405180910390f35b5f5481565b5f80600190508091505090565b60145f81905550565b5f60195f819055505f54905090565b5f8054905090565b5f805f5490505f8082139050809250505090565b5f819050919050565b61015c8161014a565b82525050565b5f6020820190506101755f830184610153565b92915050565b5f8115159050919050565b61018f8161017b565b82525050565b5f6020820190506101a85f830184610186565b9291505056fea2646970667358221220162f6603dde0b9c81a544b73b0643ba78fa92f50a629043da68f8349c12072a164736f6c634300081a0033",
			"opcodes": "PUSH1 0x80 PUSH1 0x40 MSTORE PUSH1 0xF PUSH0 SSTORE CALLVALUE DUP1 ISZERO PUSH1 0x12 JUMPI PUSH0 DUP1 REVERT JUMPDEST POP PUSH2 0x1E4 DUP1 PUSH2 0x20 PUSH0 CODECOPY PUSH0 RETURN INVALID PUSH1 0x80 PUSH1 0x40 MSTORE CALLVALUE DUP1 ISZERO PUSH2 0xF JUMPI PUSH0 DUP1 REVERT JUMPDEST POP PUSH1 0x4 CALLDATASIZE LT PUSH2 0x60 JUMPI PUSH0 CALLDATALOAD PUSH1 0xE0 SHR DUP1 PUSH4 0x61BC221A EQ PUSH2 0x64 JUMPI DUP1 PUSH4 0x6D3B84F2 EQ PUSH2 0x82 JUMPI DUP1 PUSH4 0x9EB930F2 EQ PUSH2 0xA0 JUMPI DUP1 PUSH4 0xA12224DB EQ PUSH2 0xAA JUMPI DUP1 PUSH4 0xB22B7B36 EQ PUSH2 0xC8 JUMPI DUP1 PUSH4 0xD07C5FEF EQ PUSH2 0xE6 JUMPI JUMPDEST PUSH0 DUP1 REVERT JUMPDEST PUSH2 0x6C PUSH2 0x104 JUMP JUMPDEST PUSH1 0x40 MLOAD PUSH2 0x79 SWAP2 SWAP1 PUSH2 0x162 JUMP JUMPDEST PUSH1 0x40 MLOAD DUP1 SWAP2 SUB SWAP1 RETURN JUMPDEST PUSH2 0x8A PUSH2 0x109 JUMP JUMPDEST PUSH1 0x40 MLOAD PUSH2 0x97 SWAP2 SWAP1 PUSH2 0x195 JUMP JUMPDEST PUSH1 0x40 MLOAD DUP1 SWAP2 SUB SWAP1 RETURN JUMPDEST PUSH2 0xA8 PUSH2 0x116 JUMP JUMPDEST STOP JUMPDEST PUSH2 0xB2 PUSH2 0x11F JUMP JUMPDEST PUSH1 0x40 MLOAD PUSH2 0xBF SWAP2 SWAP1 PUSH2 0x162 JUMP JUMPDEST PUSH1 0x40 MLOAD DUP1 SWAP2 SUB SWAP1 RETURN JUMPDEST PUSH2 0xD0 PUSH2 0x12E JUMP JUMPDEST PUSH1 0x40 MLOAD PUSH2 0xDD SWAP2 SWAP1 PUSH2 0x162 JUMP JUMPDEST PUSH1 0x40 MLOAD DUP1 SWAP2 SUB SWAP1 RETURN JUMPDEST PUSH2 0xEE PUSH2 0x136 JUMP JUMPDEST PUSH1 0x40 MLOAD PUSH2 0xFB SWAP2 SWAP1 PUSH2 0x195 JUMP JUMPDEST PUSH1 0x40 MLOAD DUP1 SWAP2 SUB SWAP1 RETURN JUMPDEST PUSH0 SLOAD DUP2 JUMP JUMPDEST PUSH0 DUP1 PUSH1 0x1 SWAP1 POP DUP1 SWAP2 POP POP SWAP1 JUMP JUMPDEST PUSH1 0x14 PUSH0 DUP2 SWAP1 SSTORE POP JUMP JUMPDEST PUSH0 PUSH1 0x19 PUSH0 DUP2 SWAP1 SSTORE POP PUSH0 SLOAD SWAP1 POP SWAP1 JUMP JUMPDEST PUSH0 DUP1 SLOAD SWAP1 POP SWAP1 JUMP JUMPDEST PUSH0 DUP1 PUSH0 SLOAD SWAP1 POP PUSH0 DUP1 DUP3 SGT SWAP1 POP DUP1 SWAP3 POP POP POP SWAP1 JUMP JUMPDEST PUSH0 DUP2 SWAP1 POP SWAP2 SWAP1 POP JUMP JUMPDEST PUSH2 0x15C DUP2 PUSH2 0x14A JUMP JUMPDEST DUP3 MSTORE POP POP JUMP JUMPDEST PUSH0 PUSH1 0x20 DUP3 ADD SWAP1 POP PUSH2 0x175 PUSH0 DUP4 ADD DUP5 PUSH2 0x153 JUMP JUMPDEST SWAP3 SWAP2 POP POP JUMP JUMPDEST PUSH0 DUP2 ISZERO ISZERO SWAP1 POP SWAP2 SWAP1 POP JUMP JUMPDEST PUSH2 0x18F DUP2 PUSH2 0x17B JUMP JUMPDEST DUP3 MSTORE POP POP JUMP JUMPDEST PUSH0 PUSH1 0x20 DUP3 ADD SWAP1 POP PUSH2 0x1A8 PUSH0 DUP4 ADD DUP5 PUSH2 0x186 JUMP JUMPDEST SWAP3 SWAP2 POP POP JUMP INVALID LOG2 PUSH5 0x6970667358 0x22 SLT KECCAK256 AND 0x2F PUSH7 0x3DDE0B9C81A54 0x4B PUSH20 0xB0643BA78FA92F50A629043DA68F8349C12072A1 PUSH5 0x736F6C6343 STOP ADDMOD BYTE STOP CALLER "
		},
		"gasEstimates": {
			"creation": {
				"codeDepositCost": "96800",
				"executionCost": "22250",
				"totalCost": "119050"
			},
			"external": {
				"counter()": "2402",
				"readAndWrite()": "24588",
				"readStateAndLocalVar()": "2556",
				"readStateVar()": "2498",
				"returnLocalVar()": "351",
				"writeStateVar()": "22278"
			}
		},
		"methodIdentifiers": {
			"counter()": "61bc221a",
			"readAndWrite()": "a12224db",
			"readStateAndLocalVar()": "d07c5fef",
			"readStateVar()": "b22b7b36",
			"returnLocalVar()": "6d3b84f2",
			"writeStateVar()": "9eb930f2"
		}
	},
	"abi": [
		{
			"inputs": [],
			"name": "counter",
			"outputs": [
				{
					"internalType": "int256",
					"name": "",
					"type": "int256"
				}
			],
			"stateMutability": "view",
			"type": "function"
		},
		{
			"inputs": [],
			"name": "readAndWrite",
			"outputs": [
				{
					"internalType": "int256",
					"name": "",
					"type": "int256"
				}
			],
			"stateMutability": "nonpayable",
			"type": "function"
		},
		{
			"inputs": [],
			"name": "readStateAndLocalVar",
			"outputs": [
				{
					"internalType": "bool",
					"name": "",
					"type": "bool"
				}
			],
			"stateMutability": "view",
			"type": "function"
		},
		{
			"inputs": [],
			"name": "readStateVar",
			"outputs": [
				{
					"internalType": "int256",
					"name": "",
					"type": "int256"
				}
			],
			"stateMutability": "view",
			"type": "function"
		},
		{
			"inputs": [],
			"name": "returnLocalVar",
			"outputs": [
				{
					"internalType": "bool",
					"name": "",
					"type": "bool"
				}
			],
			"stateMutability": "pure",
			"type": "function"
		},
		{
			"inputs": [],
			"name": "writeStateVar",
			"outputs": [],
			"stateMutability": "nonpayable",
			"type": "function"
		}
	]
}