{
	"data": {
		"bytecode": {
			"linkReferences": {},
			"object": "6080604052348015600e575f80fd5b50611d8f8061001c5f395ff3fe608060405234801561000f575f80fd5b5060043610610170575f3560e01c806376e8cca9116100dc5780639049840711610095578063bc7f05831161006f578063bc7f05831461043c578063edd0115a14610458578063fbce552814610489578063fe2a96bb146104a757610170565b806390498407146103d4578063a6157ba5146103f0578063a9484b831461040c57610170565b806376e8cca9146102fb578063812e07501461032b578063828f79971461034757806385bc834b1461037a57806388a92e35146103985780638cbca72d146103b657610170565b8063551b17eb1161012e578063551b17eb1461023b578063583da1c4146102595780635a455c1c146102755780635eeb16f7146102935780635f606662146102af578063642f9163146102cb57610170565b8062cfb8ea1461017457806326fcfbcc1461017e5780632bc09df2146101af57806337272ad0146101df57806341210e64146101ff57806353c822011461021d575b5f80fd5b61017c6104c5565b005b610198600480360381019061019391906110d1565b610533565b6040516101a6929190611199565b60405180910390f35b6101c960048036038101906101c491906111c7565b6105f0565b6040516101d69190611201565b60405180910390f35b6101e7610610565b6040516101f69392919061121a565b60405180910390f35b6102076106ad565b6040516102149190611201565b60405180910390f35b6102256106b5565b60405161023291906112fa565b60405180910390f35b6102436107cf565b604051610250919061131a565b60405180910390f35b610273600480360381019061026e9190611466565b610861565b005b61027d610873565b60405161028a919061131a565b60405180910390f35b6102ad60048036038101906102a891906110d1565b6108fe565b005b6102c960048036038101906102c491906114ad565b61091c565b005b6102e560048036038101906102e091906111c7565b610943565b6040516102f291906112fa565b60405180910390f35b61031560048036038101906103109190611466565b610a18565b6040516103229190611201565b60405180910390f35b6103456004803603810190610340919061158b565b610a3f565b005b610361600480360381019061035c919061163a565b610afc565b6040516103719493929190611665565b60405180910390f35b610382610cb2565b60405161038f9190611201565b60405180910390f35b6103a0610cbe565b6040516103ad9190611201565b60405180910390f35b6103be610cc6565b6040516103cb919061131a565b60405180910390f35b6103ee60048036038101906103e991906116b6565b610d55565b005b61040a600480360381019061040591906111c7565b610e07565b005b610426600480360381019061042191906111c7565b610e30565b6040516104339190611201565b60405180910390f35b61045660048036038101906104519190611736565b610e49565b005b610472600480360381019061046d91906110d1565b610ebc565b604051610480929190611199565b60405180910390f35b610491610fab565b60405161049e919061185e565b60405180910390f35b6104af611001565b6040516104bc91906118fd565b60405180910390f35b5f6005805490501161050c576040517f08c379a000000000000000000000000000000000000000000000000000000000815260040161050390611960565b60405180910390fd5b600580548061051e5761051d61197e565b5b600190038181905f5260205f20015f90559055565b601a602052815f5260405f20602052805f5260405f205f9150915050805f01805461055d906119d8565b80601f0160208091040260200160405190810160405280929190818152602001828054610589906119d8565b80156105d45780601f106105ab576101008083540402835291602001916105d4565b820191905f5260205f20905b8154815290600101906020018083116105b757829003601f168201915b505050505090806001015f9054906101000a900460ff16905082565b600581815481106105ff575f80fd5b905f5260205f20015f915090505481565b6006805f018054610620906119d8565b80601f016020809104026020016040519081016040528092919081815260200182805461064c906119d8565b80156106975780601f1061066e57610100808354040283529160200191610697565b820191905f5260205f20905b81548152906001019060200180831161067a57829003601f168201915b5050505050908060010154908060020154905083565b5f6005905090565b6106bd61104c565b6040518060400160405280600581526020017f56696a617900000000000000000000000000000000000000000000000000000081525060065f0190816107039190611ba5565b50601560066001018190555060cd60066002018190555060066040518060600160405290815f82018054610736906119d8565b80601f0160208091040260200160405190810160405280929190818152602001828054610762906119d8565b80156107ad5780601f10610784576101008083540402835291602001916107ad565b820191905f5260205f20905b81548152906001019060200180831161079057829003601f168201915b5050505050815260200160018201548152602001600282015481525050905090565b606060065f0180546107e0906119d8565b80601f016020809104026020016040519081016040528092919081815260200182805461080c906119d8565b80156108575780601f1061082e57610100808354040283529160200191610857565b820191905f5260205f20905b81548152906001019060200180831161083a57829003601f168201915b5050505050905090565b805f908161086f9190611ba5565b5050565b5f805461087f906119d8565b80601f01602080910402602001604051908101604052809291908181526020018280546108ab906119d8565b80156108f65780601f106108cd576101008083540402835291602001916108f6565b820191905f5260205f20905b8154815290600101906020018083116108d957829003601f168201915b505050505081565b806001836004811061091357610912611c74565b5b01819055505050565b8060188360405161092d9190611cdb565b9081526020016040518091039020819055505050565b61094b61104c565b6009826005811061095f5761095e611c74565b5b600302016040518060600160405290815f8201805461097d906119d8565b80601f01602080910402602001604051908101604052809291908181526020018280546109a9906119d8565b80156109f45780601f106109cb576101008083540402835291602001916109f4565b820191905f5260205f20905b8154815290600101906020018083116109d757829003601f168201915b50505050508152602001600182015481526020016002820154815250509050919050565b5f601882604051610a299190611cdb565b9081526020016040518091039020549050919050565b604051806080016040528085815260200184815260200183815260200182151581525060195f8773ffffffffffffffffffffffffffffffffffffffff1673ffffffffffffffffffffffffffffffffffffffff1681526020019081526020015f205f820151815f019081610ab29190611ba5565b506020820151816001019081610ac89190611ba5565b50604082015181600201556060820151816003015f6101000a81548160ff0219169083151502179055509050505050505050565b6060805f805f60195f8773ffffffffffffffffffffffffffffffffffffffff1673ffffffffffffffffffffffffffffffffffffffff1681526020019081526020015f206040518060800160405290815f82018054610b59906119d8565b80601f0160208091040260200160405190810160405280929190818152602001828054610b85906119d8565b8015610bd05780601f10610ba757610100808354040283529160200191610bd0565b820191905f5260205f20905b815481529060010190602001808311610bb357829003601f168201915b50505050508152602001600182018054610be9906119d8565b80601f0160208091040260200160405190810160405280929190818152602001828054610c15906119d8565b8015610c605780601f10610c3757610100808354040283529160200191610c60565b820191905f5260205f20905b815481529060010190602001808311610c4357829003601f168201915b5050505050815260200160028201548152602001600382015f9054906101000a900460ff1615151515815250509050805f01518160200151826040015183606001519450945094509450509193509193565b5f600580549050905090565b5f6004905090565b60605f8054610cd4906119d8565b80601f0160208091040260200160405190810160405280929190818152602001828054610d00906119d8565b8015610d4b5780601f10610d2257610100808354040283529160200191610d4b565b820191905f5260205f20905b815481529060010190602001808311610d2e57829003601f168201915b5050505050905090565b5f84118015610d645750600584105b610da3576040517f08c379a0000000000000000000000000000000000000000000000000000000008152600401610d9a90611d3b565b60405180910390fd5b60405180606001604052808481526020018381526020018281525060098560058110610dd257610dd1611c74565b5b600302015f820151815f019081610de99190611ba5565b50602082015181600101556040820151816002015590505050505050565b600581908060018154018082558091505060019003905f5260205f20015f909190919091505550565b60018160048110610e3f575f80fd5b015f915090505481565b6040518060400160405280838152602001821515815250601a5f8681526020019081526020015f205f8581526020019081526020015f205f820151815f019081610e939190611ba5565b506020820151816001015f6101000a81548160ff02191690831515021790555090505050505050565b60605f80601a5f8681526020019081526020015f205f8581526020019081526020015f206040518060400160405290815f82018054610efa906119d8565b80601f0160208091040260200160405190810160405280929190818152602001828054610f26906119d8565b8015610f715780601f10610f4857610100808354040283529160200191610f71565b820191905f5260205f20905b815481529060010190602001808311610f5457829003601f168201915b50505050508152602001600182015f9054906101000a900460ff1615151515815250509050805f0151816020015192509250509250929050565b60606005805480602002602001604051908101604052809291908181526020018280548015610ff757602002820191905f5260205f20905b815481526020019060010190808311610fe3575b5050505050905090565b61100961106b565b6001600480602002604051908101604052809291908260048015611042576020028201915b81548152602001906001019080831161102e575b5050505050905090565b6040518060600160405280606081526020015f81526020015f81525090565b6040518060800160405280600490602082028036833780820191505090505090565b5f604051905090565b5f80fd5b5f80fd5b5f819050919050565b6110b08161109e565b81146110ba575f80fd5b50565b5f813590506110cb816110a7565b92915050565b5f80604083850312156110e7576110e6611096565b5b5f6110f4858286016110bd565b9250506020611105858286016110bd565b9150509250929050565b5f81519050919050565b5f82825260208201905092915050565b8281835e5f83830152505050565b5f601f19601f8301169050919050565b5f6111518261110f565b61115b8185611119565b935061116b818560208601611129565b61117481611137565b840191505092915050565b5f8115159050919050565b6111938161117f565b82525050565b5f6040820190508181035f8301526111b18185611147565b90506111c0602083018461118a565b9392505050565b5f602082840312156111dc576111db611096565b5b5f6111e9848285016110bd565b91505092915050565b6111fb8161109e565b82525050565b5f6020820190506112145f8301846111f2565b92915050565b5f6060820190508181035f8301526112328186611147565b905061124160208301856111f2565b61124e60408301846111f2565b949350505050565b5f82825260208201905092915050565b5f6112708261110f565b61127a8185611256565b935061128a818560208601611129565b61129381611137565b840191505092915050565b6112a78161109e565b82525050565b5f606083015f8301518482035f8601526112c78282611266565b91505060208301516112dc602086018261129e565b5060408301516112ef604086018261129e565b508091505092915050565b5f6020820190508181035f83015261131281846112ad565b905092915050565b5f6020820190508181035f8301526113328184611147565b905092915050565b5f80fd5b5f80fd5b7f4e487b71000000000000000000000000000000000000000000000000000000005f52604160045260245ffd5b61137882611137565b810181811067ffffffffffffffff8211171561139757611396611342565b5b80604052505050565b5f6113a961108d565b90506113b5828261136f565b919050565b5f67ffffffffffffffff8211156113d4576113d3611342565b5b6113dd82611137565b9050602081019050919050565b828183375f83830152505050565b5f61140a611405846113ba565b6113a0565b9050828152602081018484840111156114265761142561133e565b5b6114318482856113ea565b509392505050565b5f82601f83011261144d5761144c61133a565b5b813561145d8482602086016113f8565b91505092915050565b5f6020828403121561147b5761147a611096565b5b5f82013567ffffffffffffffff8111156114985761149761109a565b5b6114a484828501611439565b91505092915050565b5f80604083850312156114c3576114c2611096565b5b5f83013567ffffffffffffffff8111156114e0576114df61109a565b5b6114ec85828601611439565b92505060206114fd858286016110bd565b9150509250929050565b5f73ffffffffffffffffffffffffffffffffffffffff82169050919050565b5f61153082611507565b9050919050565b61154081611526565b811461154a575f80fd5b50565b5f8135905061155b81611537565b92915050565b61156a8161117f565b8114611574575f80fd5b50565b5f8135905061158581611561565b92915050565b5f805f805f60a086880312156115a4576115a3611096565b5b5f6115b18882890161154d565b955050602086013567ffffffffffffffff8111156115d2576115d161109a565b5b6115de88828901611439565b945050604086013567ffffffffffffffff8111156115ff576115fe61109a565b5b61160b88828901611439565b935050606061161c888289016110bd565b925050608061162d88828901611577565b9150509295509295909350565b5f6020828403121561164f5761164e611096565b5b5f61165c8482850161154d565b91505092915050565b5f6080820190508181035f83015261167d8187611147565b905081810360208301526116918186611147565b90506116a060408301856111f2565b6116ad606083018461118a565b95945050505050565b5f805f80608085870312156116ce576116cd611096565b5b5f6116db878288016110bd565b945050602085013567ffffffffffffffff8111156116fc576116fb61109a565b5b61170887828801611439565b9350506040611719878288016110bd565b925050606061172a878288016110bd565b91505092959194509250565b5f805f806080858703121561174e5761174d611096565b5b5f61175b878288016110bd565b945050602061176c878288016110bd565b935050604085013567ffffffffffffffff81111561178d5761178c61109a565b5b61179987828801611439565b92505060606117aa87828801611577565b91505092959194509250565b5f81519050919050565b5f82825260208201905092915050565b5f819050602082019050919050565b5f6117ea838361129e565b60208301905092915050565b5f602082019050919050565b5f61180c826117b6565b61181681856117c0565b9350611821836117d0565b805f5b8381101561185157815161183888826117df565b9750611843836117f6565b925050600181019050611824565b5085935050505092915050565b5f6020820190508181035f8301526118768184611802565b905092915050565b5f60049050919050565b5f81905092915050565b5f819050919050565b5f602082019050919050565b6118b08161187e565b6118ba8184611888565b92506118c582611892565b805f5b838110156118f55781516118dc87826117df565b96506118e78361189b565b9250506001810190506118c8565b505050505050565b5f6080820190506119105f8301846118a7565b92915050565b7f44796e616d696320417272617920697320456d707479000000000000000000005f82015250565b5f61194a601683611119565b915061195582611916565b602082019050919050565b5f6020820190508181035f8301526119778161193e565b9050919050565b7f4e487b71000000000000000000000000000000000000000000000000000000005f52603160045260245ffd5b7f4e487b71000000000000000000000000000000000000000000000000000000005f52602260045260245ffd5b5f60028204905060018216806119ef57607f821691505b602082108103611a0257611a016119ab565b5b50919050565b5f819050815f5260205f209050919050565b5f6020601f8301049050919050565b5f82821b905092915050565b5f60088302611a647fffffffffffffffffffffffffffffffffffffffffffffffffffffffffffffffff82611a29565b611a6e8683611a29565b95508019841693508086168417925050509392505050565b5f819050919050565b5f611aa9611aa4611a9f8461109e565b611a86565b61109e565b9050919050565b5f819050919050565b611ac283611a8f565b611ad6611ace82611ab0565b848454611a35565b825550505050565b5f90565b611aea611ade565b611af5818484611ab9565b505050565b5b81811015611b1857611b0d5f82611ae2565b600181019050611afb565b5050565b601f821115611b5d57611b2e81611a08565b611b3784611a1a565b81016020851015611b46578190505b611b5a611b5285611a1a565b830182611afa565b50505b505050565b5f82821c905092915050565b5f611b7d5f1984600802611b62565b1980831691505092915050565b5f611b958383611b6e565b9150826002028217905092915050565b611bae8261110f565b67ffffffffffffffff811115611bc757611bc6611342565b5b611bd182546119d8565b611bdc828285611b1c565b5f60209050601f831160018114611c0d575f8415611bfb578287015190505b611c058582611b8a565b865550611c6c565b601f198416611c1b86611a08565b5f5b82811015611c4257848901518255600182019150602085019450602081019050611c1d565b86831015611c5f5784890151611c5b601f891682611b6e565b8355505b6001600288020188555050505b505050505050565b7f4e487b71000000000000000000000000000000000000000000000000000000005f52603260045260245ffd5b5f81905092915050565b5f611cb58261110f565b611cbf8185611ca1565b9350611ccf818560208601611129565b80840191505092915050565b5f611ce68284611cab565b915081905092915050565b7f496e646578204f7574206f6620426f756e6473000000000000000000000000005f82015250565b5f611d25601383611119565b9150611d3082611cf1565b602082019050919050565b5f6020820190508181035f830152611d5281611d19565b905091905056fea2646970667358221220f791c511ce2a35ba700fa2ec32f08fa0f1c909128c6f26322d21d03a1012827964736f6c634300081a0033",
			"opcodes": "PUSH1 0x80 PUSH1 0x40 MSTORE CALLVALUE DUP1 ISZERO PUSH1 0xE JUMPI PUSH0 DUP1 REVERT JUMPDEST POP PUSH2 0x1D8F DUP1 PUSH2 0x1C PUSH0 CODECOPY PUSH0 RETURN INVALID PUSH1 0x80 PUSH1 0x40 MSTORE CALLVALUE DUP1 ISZERO PUSH2 0xF JUMPI PUSH0 DUP1 REVERT JUMPDEST POP PUSH1 0x4 CALLDATASIZE LT PUSH2 0x170 JUMPI PUSH0 CALLDATALOAD PUSH1 0xE0 SHR DUP1 PUSH4 0x76E8CCA9 GT PUSH2 0xDC JUMPI DUP1 PUSH4 0x90498407 GT PUSH2 0x95 JUMPI DUP1 PUSH4 0xBC7F0583 GT PUSH2 0x6F JUMPI DUP1 PUSH4 0xBC7F0583 EQ PUSH2 0x43C JUMPI DUP1 PUSH4 0xEDD0115A EQ PUSH2 0x458 JUMPI DUP1 PUSH4 0xFBCE5528 EQ PUSH2 0x489 JUMPI DUP1 PUSH4 0xFE2A96BB EQ PUSH2 0x4A7 JUMPI PUSH2 0x170 JUMP JUMPDEST DUP1 PUSH4 0x90498407 EQ PUSH2 0x3D4 JUMPI DUP1 PUSH4 0xA6157BA5 EQ PUSH2 0x3F0 JUMPI DUP1 PUSH4 0xA9484B83 EQ PUSH2 0x40C JUMPI PUSH2 0x170 JUMP JUMPDEST DUP1 PUSH4 0x76E8CCA9 EQ PUSH2 0x2FB JUMPI DUP1 PUSH4 0x812E0750 EQ PUSH2 0x32B JUMPI DUP1 PUSH4 0x828F7997 EQ PUSH2 0x347 JUMPI DUP1 PUSH4 0x85BC834B EQ PUSH2 0x37A JUMPI DUP1 PUSH4 0x88A92E35 EQ PUSH2 0x398 JUMPI DUP1 PUSH4 0x8CBCA72D EQ PUSH2 0x3B6 JUMPI PUSH2 0x170 JUMP JUMPDEST DUP1 PUSH4 0x551B17EB GT PUSH2 0x12E JUMPI DUP1 PUSH4 0x551B17EB EQ PUSH2 0x23B JUMPI DUP1 PUSH4 0x583DA1C4 EQ PUSH2 0x259 JUMPI DUP1 PUSH4 0x5A455C1C EQ PUSH2 0x275 JUMPI DUP1 PUSH4 0x5EEB16F7 EQ PUSH2 0x293 JUMPI DUP1 PUSH4 0x5F606662 EQ PUSH2 0x2AF JUMPI DUP1 PUSH4 0x642F9163 EQ PUSH2 0x2CB JUMPI PUSH2 0x170 JUMP JUMPDEST DUP1 PUSH3 0xCFB8EA EQ PUSH2 0x174 JUMPI DUP1 PUSH4 0x26FCFBCC EQ PUSH2 0x17E JUMPI DUP1 PUSH4 0x2BC09DF2 EQ PUSH2 0x1AF JUMPI DUP1 PUSH4 0x37272AD0 EQ PUSH2 0x1DF JUMPI DUP1 PUSH4 0x41210E64 EQ PUSH2 0x1FF JUMPI DUP1 PUSH4 0x53C82201 EQ PUSH2 0x21D JUMPI JUMPDEST PUSH0 DUP1 REVERT JUMPDEST PUSH2 0x17C PUSH2 0x4C5 JUMP JUMPDEST STOP JUMPDEST PUSH2 0x198 PUSH1 0x4 DUP1 CALLDATASIZE SUB DUP2 ADD SWAP1 PUSH2 0x193 SWAP2 SWAP1 PUSH2 0x10D1 JUMP JUMPDEST PUSH2 0x533 JUMP JUMPDEST PUSH1 0x40 MLOAD PUSH2 0x1A6 SWAP3 SWAP2 SWAP1 PUSH2 0x1199 JUMP JUMPDEST PUSH1 0x40 MLOAD DUP1 SWAP2 SUB SWAP1 RETURN JUMPDEST PUSH2 0x1C9 PUSH1 0x4 DUP1 CALLDATASIZE SUB DUP2 ADD SWAP1 PUSH2 0x1C4 SWAP2 SWAP1 PUSH2 0x11C7 JUMP JUMPDEST PUSH2 0x5F0 JUMP JUMPDEST PUSH1 0x40 MLOAD PUSH2 0x1D6 SWAP2 SWAP1 PUSH2 0x1201 JUMP JUMPDEST PUSH1 0x40 MLOAD DUP1 SWAP2 SUB SWAP1 RETURN JUMPDEST PUSH2 0x1E7 PUSH2 0x610 JUMP JUMPDEST PUSH1 0x40 MLOAD PUSH2 0x1F6 SWAP4 SWAP3 SWAP2 SWAP1 PUSH2 0x121A JUMP JUMPDEST PUSH1 0x40 MLOAD DUP1 SWAP2 SUB SWAP1 RETURN JUMPDEST PUSH2 0x207 PUSH2 0x6AD JUMP JUMPDEST PUSH1 0x40 MLOAD PUSH2 0x214 SWAP2 SWAP1 PUSH2 0x1201 JUMP JUMPDEST PUSH1 0x40 MLOAD DUP1 SWAP2 SUB SWAP1 RETURN JUMPDEST PUSH2 0x225 PUSH2 0x6B5 JUMP JUMPDEST PUSH1 0x40 MLOAD PUSH2 0x232 SWAP2 SWAP1 PUSH2 0x12FA JUMP JUMPDEST PUSH1 0x40 MLOAD DUP1 SWAP2 SUB SWAP1 RETURN JUMPDEST PUSH2 0x243 PUSH2 0x7CF JUMP JUMPDEST PUSH1 0x40 MLOAD PUSH2 0x250 SWAP2 SWAP1 PUSH2 0x131A JUMP JUMPDEST PUSH1 0x40 MLOAD DUP1 SWAP2 SUB SWAP1 RETURN JUMPDEST PUSH2 0x273 PUSH1 0x4 DUP1 CALLDATASIZE SUB DUP2 ADD SWAP1 PUSH2 0x26E SWAP2 SWAP1 PUSH2 0x1466 JUMP JUMPDEST PUSH2 0x861 JUMP JUMPDEST STOP JUMPDEST PUSH2 0x27D PUSH2 0x873 JUMP JUMPDEST PUSH1 0x40 MLOAD PUSH2 0x28A SWAP2 SWAP1 PUSH2 0x131A JUMP JUMPDEST PUSH1 0x40 MLOAD DUP1 SWAP2 SUB SWAP1 RETURN JUMPDEST PUSH2 0x2AD PUSH1 0x4 DUP1 CALLDATASIZE SUB DUP2 ADD SWAP1 PUSH2 0x2A8 SWAP2 SWAP1 PUSH2 0x10D1 JUMP JUMPDEST PUSH2 0x8FE JUMP JUMPDEST STOP JUMPDEST PUSH2 0x2C9 PUSH1 0x4 DUP1 CALLDATASIZE SUB DUP2 ADD SWAP1 PUSH2 0x2C4 SWAP2 SWAP1 PUSH2 0x14AD JUMP JUMPDEST PUSH2 0x91C JUMP JUMPDEST STOP JUMPDEST PUSH2 0x2E5 PUSH1 0x4 DUP1 CALLDATASIZE SUB DUP2 ADD SWAP1 PUSH2 0x2E0 SWAP2 SWAP1 PUSH2 0x11C7 JUMP JUMPDEST PUSH2 0x943 JUMP JUMPDEST PUSH1 0x40 MLOAD PUSH2 0x2F2 SWAP2 SWAP1 PUSH2 0x12FA JUMP JUMPDEST PUSH1 0x40 MLOAD DUP1 SWAP2 SUB SWAP1 RETURN JUMPDEST PUSH2 0x315 PUSH1 0x4 DUP1 CALLDATASIZE SUB DUP2 ADD SWAP1 PUSH2 0x310 SWAP2 SWAP1 PUSH2 0x1466 JUMP JUMPDEST PUSH2 0xA18 JUMP JUMPDEST PUSH1 0x40 MLOAD PUSH2 0x322 SWAP2 SWAP1 PUSH2 0x1201 JUMP JUMPDEST PUSH1 0x40 MLOAD DUP1 SWAP2 SUB SWAP1 RETURN JUMPDEST PUSH2 0x345 PUSH1 0x4 DUP1 CALLDATASIZE SUB DUP2 ADD SWAP1 PUSH2 0x340 SWAP2 SWAP1 PUSH2 0x158B JUMP JUMPDEST PUSH2 0xA3F JUMP JUMPDEST STOP JUMPDEST PUSH2 0x361 PUSH1 0x4 DUP1 CALLDATASIZE SUB DUP2 ADD SWAP1 PUSH2 0x35C SWAP2 SWAP1 PUSH2 0x163A JUMP JUMPDEST PUSH2 0xAFC JUMP JUMPDEST PUSH1 0x40 MLOAD PUSH2 0x371 SWAP5 SWAP4 SWAP3 SWAP2 SWAP1 PUSH2 0x1665 JUMP JUMPDEST PUSH1 0x40 MLOAD DUP1 SWAP2 SUB SWAP1 RETURN JUMPDEST PUSH2 0x382 PUSH2 0xCB2 JUMP JUMPDEST PUSH1 0x40 MLOAD PUSH2 0x38F SWAP2 SWAP1 PUSH2 0x1201 JUMP JUMPDEST PUSH1 0x40 MLOAD DUP1 SWAP2 SUB SWAP1 RETURN JUMPDEST PUSH2 0x3A0 PUSH2 0xCBE JUMP JUMPDEST PUSH1 0x40 MLOAD PUSH2 0x3AD SWAP2 SWAP1 PUSH2 0x1201 JUMP JUMPDEST PUSH1 0x40 MLOAD DUP1 SWAP2 SUB SWAP1 RETURN JUMPDEST PUSH2 0x3BE PUSH2 0xCC6 JUMP JUMPDEST PUSH1 0x40 MLOAD PUSH2 0x3CB SWAP2 SWAP1 PUSH2 0x131A JUMP JUMPDEST PUSH1 0x40 MLOAD DUP1 SWAP2 SUB SWAP1 RETURN JUMPDEST PUSH2 0x3EE PUSH1 0x4 DUP1 CALLDATASIZE SUB DUP2 ADD SWAP1 PUSH2 0x3E9 SWAP2 SWAP1 PUSH2 0x16B6 JUMP JUMPDEST PUSH2 0xD55 JUMP JUMPDEST STOP JUMPDEST PUSH2 0x40A PUSH1 0x4 DUP1 CALLDATASIZE SUB DUP2 ADD SWAP1 PUSH2 0x405 SWAP2 SWAP1 PUSH2 0x11C7 JUMP JUMPDEST PUSH2 0xE07 JUMP JUMPDEST STOP JUMPDEST PUSH2 0x426 PUSH1 0x4 DUP1 CALLDATASIZE SUB DUP2 ADD SWAP1 PUSH2 0x421 SWAP2 SWAP1 PUSH2 0x11C7 JUMP JUMPDEST PUSH2 0xE30 JUMP JUMPDEST PUSH1 0x40 MLOAD PUSH2 0x433 SWAP2 SWAP1 PUSH2 0x1201 JUMP JUMPDEST PUSH1 0x40 MLOAD DUP1 SWAP2 SUB SWAP1 RETURN JUMPDEST PUSH2 0x456 PUSH1 0x4 DUP1 CALLDATASIZE SUB DUP2 ADD SWAP1 PUSH2 0x451 SWAP2 SWAP1 PUSH2 0x1736 JUMP JUMPDEST PUSH2 0xE49 JUMP JUMPDEST STOP JUMPDEST PUSH2 0x472 PUSH1 0x4 DUP1 CALLDATASIZE SUB DUP2 ADD SWAP1 PUSH2 0x46D SWAP2 SWAP1 PUSH2 0x10D1 JUMP JUMPDEST PUSH2 0xEBC JUMP JUMPDEST PUSH1 0x40 MLOAD PUSH2 0x480 SWAP3 SWAP2 SWAP1 PUSH2 0x1199 JUMP JUMPDEST PUSH1 0x40 MLOAD DUP1 SWAP2 SUB SWAP1 RETURN JUMPDEST PUSH2 0x491 PUSH2 0xFAB JUMP JUMPDEST PUSH1 0x40 MLOAD PUSH2 0x49E SWAP2 SWAP1 PUSH2 0x185E JUMP JUMPDEST PUSH1 0x40 MLOAD DUP1 SWAP2 SUB SWAP1 RETURN JUMPDEST PUSH2 0x4AF PUSH2 0x1001 JUMP JUMPDEST PUSH1 0x40 MLOAD PUSH2 0x4BC SWAP2 SWAP1 PUSH2 0x18FD JUMP JUMPDEST PUSH1 0x40 MLOAD DUP1 SWAP2 SUB SWAP1 RETURN JUMPDEST PUSH0 PUSH1 0x5 DUP1 SLOAD SWAP1 POP GT PUSH2 0x50C JUMPI PUSH1 0x40 MLOAD PUSH32 0x8C379A000000000000000000000000000000000000000000000000000000000 DUP2 MSTORE PUSH1 0x4 ADD PUSH2 0x503 SWAP1 PUSH2 0x1960 JUMP JUMPDEST PUSH1 0x40 MLOAD DUP1 SWAP2 SUB SWAP1 REVERT JUMPDEST PUSH1 0x5 DUP1 SLOAD DUP1 PUSH2 0x51E JUMPI PUSH2 0x51D PUSH2 0x197E JUMP JUMPDEST JUMPDEST PUSH1 0x1 SWAP1 SUB DUP2 DUP2 SWAP1 PUSH0 MSTORE PUSH1 0x20 PUSH0 KECCAK256 ADD PUSH0 SWAP1 SSTORE SWAP1 SSTORE JUMP JUMPDEST PUSH1 0x1A PUSH1 0x20 MSTORE DUP2 PUSH0 MSTORE PUSH1 0x40 PUSH0 KECCAK256 PUSH1 0x20 MSTORE DUP1 PUSH0 MSTORE PUSH1 0x40 PUSH0 KECCAK256 PUSH0 SWAP2 POP SWAP2 POP POP DUP1 PUSH0 ADD DUP1 SLOAD PUSH2 0x55D SWAP1 PUSH2 0x19D8 JUMP JUMPDEST DUP1 PUSH1 0x1F ADD PUSH1 0x20 DUP1 SWAP2 DIV MUL PUSH1 0x20 ADD PUSH1 0x40 MLOAD SWAP1 DUP2 ADD PUSH1 0x40 MSTORE DUP1 SWAP3 SWAP2 SWAP1 DUP2 DUP2 MSTORE PUSH1 0x20 ADD DUP3 DUP1 SLOAD PUSH2 0x589 SWAP1 PUSH2 0x19D8 JUMP JUMPDEST DUP1 ISZERO PUSH2 0x5D4 JUMPI DUP1 PUSH1 0x1F LT PUSH2 0x5AB JUMPI PUSH2 0x100 DUP1 DUP4 SLOAD DIV MUL DUP4 MSTORE SWAP2 PUSH1 0x20 ADD SWAP2 PUSH2 0x5D4 JUMP JUMPDEST DUP3 ADD SWAP2 SWAP1 PUSH0 MSTORE PUSH1 0x20 PUSH0 KECCAK256 SWAP1 JUMPDEST DUP2 SLOAD DUP2 MSTORE SWAP1 PUSH1 0x1 ADD SWAP1 PUSH1 0x20 ADD DUP1 DUP4 GT PUSH2 0x5B7 JUMPI DUP3 SWAP1 SUB PUSH1 0x1F AND DUP3 ADD SWAP2 JUMPDEST POP POP POP POP POP SWAP1 DUP1 PUSH1 0x1 ADD PUSH0 SWAP1 SLOAD SWAP1 PUSH2 0x100 EXP SWAP1 DIV PUSH1 0xFF AND SWAP1 POP DUP3 JUMP JUMPDEST PUSH1 0x5 DUP2 DUP2 SLOAD DUP2 LT PUSH2 0x5FF JUMPI PUSH0 DUP1 REVERT JUMPDEST SWAP1 PUSH0 MSTORE PUSH1 0x20 PUSH0 KECCAK256 ADD PUSH0 SWAP2 POP SWAP1 POP SLOAD DUP2 JUMP JUMPDEST PUSH1 0x6 DUP1 PUSH0 ADD DUP1 SLOAD PUSH2 0x620 SWAP1 PUSH2 0x19D8 JUMP JUMPDEST DUP1 PUSH1 0x1F ADD PUSH1 0x20 DUP1 SWAP2 DIV MUL PUSH1 0x20 ADD PUSH1 0x40 MLOAD SWAP1 DUP2 ADD PUSH1 0x40 MSTORE DUP1 SWAP3 SWAP2 SWAP1 DUP2 DUP2 MSTORE PUSH1 0x20 ADD DUP3 DUP1 SLOAD PUSH2 0x64C SWAP1 PUSH2 0x19D8 JUMP JUMPDEST DUP1 ISZERO PUSH2 0x697 JUMPI DUP1 PUSH1 0x1F LT PUSH2 0x66E JUMPI PUSH2 0x100 DUP1 DUP4 SLOAD DIV MUL DUP4 MSTORE SWAP2 PUSH1 0x20 ADD SWAP2 PUSH2 0x697 JUMP JUMPDEST DUP3 ADD SWAP2 SWAP1 PUSH0 MSTORE PUSH1 0x20 PUSH0 KECCAK256 SWAP1 JUMPDEST DUP2 SLOAD DUP2 MSTORE SWAP1 PUSH1 0x1 ADD SWAP1 PUSH1 0x20 ADD DUP1 DUP4 GT PUSH2 0x67A JUMPI DUP3 SWAP1 SUB PUSH1 0x1F AND DUP3 ADD SWAP2 JUMPDEST POP POP POP POP POP SWAP1 DUP1 PUSH1 0x1 ADD SLOAD SWAP1 DUP1 PUSH1 0x2 ADD SLOAD SWAP1 POP DUP4 JUMP JUMPDEST PUSH0 PUSH1 0x5 SWAP1 POP SWAP1 JUMP JUMPDEST PUSH2 0x6BD PUSH2 0x104C JUMP JUMPDEST PUSH1 0x40 MLOAD DUP1 PUSH1 0x40 ADD PUSH1 0x40 MSTORE DUP1 PUSH1 0x5 DUP2 MSTORE PUSH1 0x20 ADD PUSH32 0x56696A6179000000000000000000000000000000000000000000000000000000 DUP2 MSTORE POP PUSH1 0x6 PUSH0 ADD SWAP1 DUP2 PUSH2 0x703 SWAP2 SWAP1 PUSH2 0x1BA5 JUMP JUMPDEST POP PUSH1 0x15 PUSH1 0x6 PUSH1 0x1 ADD DUP2 SWAP1 SSTORE POP PUSH1 0xCD PUSH1 0x6 PUSH1 0x2 ADD DUP2 SWAP1 SSTORE POP PUSH1 0x6 PUSH1 0x40 MLOAD DUP1 PUSH1 0x60 ADD PUSH1 0x40 MSTORE SWAP1 DUP2 PUSH0 DUP3 ADD DUP1 SLOAD PUSH2 0x736 SWAP1 PUSH2 0x19D8 JUMP JUMPDEST DUP1 PUSH1 0x1F ADD PUSH1 0x20 DUP1 SWAP2 DIV MUL PUSH1 0x20 ADD PUSH1 0x40 MLOAD SWAP1 DUP2 ADD PUSH1 0x40 MSTORE DUP1 SWAP3 SWAP2 SWAP1 DUP2 DUP2 MSTORE PUSH1 0x20 ADD DUP3 DUP1 SLOAD PUSH2 0x762 SWAP1 PUSH2 0x19D8 JUMP JUMPDEST DUP1 ISZERO PUSH2 0x7AD JUMPI DUP1 PUSH1 0x1F LT PUSH2 0x784 JUMPI PUSH2 0x100 DUP1 DUP4 SLOAD DIV MUL DUP4 MSTORE SWAP2 PUSH1 0x20 ADD SWAP2 PUSH2 0x7AD JUMP JUMPDEST DUP3 ADD SWAP2 SWAP1 PUSH0 MSTORE PUSH1 0x20 PUSH0 KECCAK256 SWAP1 JUMPDEST DUP2 SLOAD DUP2 MSTORE SWAP1 PUSH1 0x1 ADD SWAP1 PUSH1 0x20 ADD DUP1 DUP4 GT PUSH2 0x790 JUMPI DUP3 SWAP1 SUB PUSH1 0x1F AND DUP3 ADD SWAP2 JUMPDEST POP POP POP POP POP DUP2 MSTORE PUSH1 0x20 ADD PUSH1 0x1 DUP3 ADD SLOAD DUP2 MSTORE PUSH1 0x20 ADD PUSH1 0x2 DUP3 ADD SLOAD DUP2 MSTORE POP POP SWAP1 POP SWAP1 JUMP JUMPDEST PUSH1 0x60 PUSH1 0x6 PUSH0 ADD DUP1 SLOAD PUSH2 0x7E0 SWAP1 PUSH2 0x19D8 JUMP JUMPDEST DUP1 PUSH1 0x1F ADD PUSH1 0x20 DUP1 SWAP2 DIV MUL PUSH1 0x20 ADD PUSH1 0x40 MLOAD SWAP1 DUP2 ADD PUSH1 0x40 MSTORE DUP1 SWAP3 SWAP2 SWAP1 DUP2 DUP2 MSTORE PUSH1 0x20 ADD DUP3 DUP1 SLOAD PUSH2 0x80C SWAP1 PUSH2 0x19D8 JUMP JUMPDEST DUP1 ISZERO PUSH2 0x857 JUMPI DUP1 PUSH1 0x1F LT PUSH2 0x82E JUMPI PUSH2 0x100 DUP1 DUP4 SLOAD DIV MUL DUP4 MSTORE SWAP2 PUSH1 0x20 ADD SWAP2 PUSH2 0x857 JUMP JUMPDEST DUP3 ADD SWAP2 SWAP1 PUSH0 MSTORE PUSH1 0x20 PUSH0 KECCAK256 SWAP1 JUMPDEST DUP2 SLOAD DUP2 MSTORE SWAP1 PUSH1 0x1 ADD SWAP1 PUSH1 0x20 ADD DUP1 DUP4 GT PUSH2 0x83A JUMPI DUP3 SWAP1 SUB PUSH1 0x1F AND DUP3 ADD SWAP2 JUMPDEST POP POP POP POP POP SWAP1 POP SWAP1 JUMP JUMPDEST DUP1 PUSH0 SWAP1 DUP2 PUSH2 0x86F SWAP2 SWAP1 PUSH2 0x1BA5 JUMP JUMPDEST POP POP JUMP JUMPDEST PUSH0 DUP1 SLOAD PUSH2 0x87F SWAP1 PUSH2 0x19D8 JUMP JUMPDEST DUP1 PUSH1 0x1F ADD PUSH1 0x20 DUP1 SWAP2 DIV MUL PUSH1 0x20 ADD PUSH1 0x40 MLOAD SWAP1 DUP2 ADD PUSH1 0x40 MSTORE DUP1 SWAP3 SWAP2 SWAP1 DUP2 DUP2 MSTORE PUSH1 0x20 ADD DUP3 DUP1 SLOAD PUSH2 0x8AB SWAP1 PUSH2 0x19D8 JUMP JUMPDEST DUP1 ISZERO PUSH2 0x8F6 JUMPI DUP1 PUSH1 0x1F LT PUSH2 0x8CD JUMPI PUSH2 0x100 DUP1 DUP4 SLOAD DIV MUL DUP4 MSTORE SWAP2 PUSH1 0x20 ADD SWAP2 PUSH2 0x8F6 JUMP JUMPDEST DUP3 ADD SWAP2 SWAP1 PUSH0 MSTORE PUSH1 0x20 PUSH0 KECCAK256 SWAP1 JUMPDEST DUP2 SLOAD DUP2 MSTORE SWAP1 PUSH1 0x1 ADD SWAP1 PUSH1 0x20 ADD DUP1 DUP4 GT PUSH2 0x8D9 JUMPI DUP3 SWAP1 SUB PUSH1 0x1F AND DUP3 ADD SWAP2 JUMPDEST POP POP POP POP POP DUP2 JUMP JUMPDEST DUP1 PUSH1 0x1 DUP4 PUSH1 0x4 DUP2 LT PUSH2 0x913 JUMPI PUSH2 0x912 PUSH2 0x1C74 JUMP JUMPDEST JUMPDEST ADD DUP2 SWAP1 SSTORE POP POP POP JUMP JUMPDEST DUP1 PUSH1 0x18 DUP4 PUSH1 0x40 MLOAD PUSH2 0x92D SWAP2 SWAP1 PUSH2 0x1CDB JUMP JUMPDEST SWAP1 DUP2 MSTORE PUSH1 0x20 ADD PUSH1 0x40 MLOAD DUP1 SWAP2 SUB SWAP1 KECCAK256 DUP2 SWAP1 SSTORE POP POP POP JUMP JUMPDEST PUSH2 0x94B PUSH2 0x104C JUMP JUMPDEST PUSH1 0x9 DUP3 PUSH1 0x5 DUP2 LT PUSH2 0x95F JUMPI PUSH2 0x95E PUSH2 0x1C74 JUMP JUMPDEST JUMPDEST PUSH1 0x3 MUL ADD PUSH1 0x40 MLOAD DUP1 PUSH1 0x60 ADD PUSH1 0x40 MSTORE SWAP1 DUP2 PUSH0 DUP3 ADD DUP1 SLOAD PUSH2 0x97D SWAP1 PUSH2 0x19D8 JUMP JUMPDEST DUP1 PUSH1 0x1F ADD PUSH1 0x20 DUP1 SWAP2 DIV MUL PUSH1 0x20 ADD PUSH1 0x40 MLOAD SWAP1 DUP2 ADD PUSH1 0x40 MSTORE DUP1 SWAP3 SWAP2 SWAP1 DUP2 DUP2 MSTORE PUSH1 0x20 ADD DUP3 DUP1 SLOAD PUSH2 0x9A9 SWAP1 PUSH2 0x19D8 JUMP JUMPDEST DUP1 ISZERO PUSH2 0x9F4 JUMPI DUP1 PUSH1 0x1F LT PUSH2 0x9CB JUMPI PUSH2 0x100 DUP1 DUP4 SLOAD DIV MUL DUP4 MSTORE SWAP2 PUSH1 0x20 ADD SWAP2 PUSH2 0x9F4 JUMP JUMPDEST DUP3 ADD SWAP2 SWAP1 PUSH0 MSTORE PUSH1 0x20 PUSH0 KECCAK256 SWAP1 JUMPDEST DUP2 SLOAD DUP2 MSTORE SWAP1 PUSH1 0x1 ADD SWAP1 PUSH1 0x20 ADD DUP1 DUP4 GT PUSH2 0x9D7 JUMPI DUP3 SWAP1 SUB PUSH1 0x1F AND DUP3 ADD SWAP2 JUMPDEST POP POP POP POP POP DUP2 MSTORE PUSH1 0x20 ADD PUSH1 0x1 DUP3 ADD SLOAD DUP2 MSTORE PUSH1 0x20 ADD PUSH1 0x2 DUP3 ADD SLOAD DUP2 MSTORE POP POP SWAP1 POP SWAP2 SWAP1 POP JUMP JUMPDEST PUSH0 PUSH1 0x18 DUP3 PUSH1 0x40 MLOAD PUSH2 0xA29 SWAP2 SWAP1 PUSH2 0x1CDB JUMP JUMPDEST SWAP1 DUP2 MSTORE PUSH1 0x20 ADD PUSH1 0x40 MLOAD DUP1 SWAP2 SUB SWAP1 KECCAK256 SLOAD SWAP1 POP SWAP2 SWAP1 POP JUMP JUMPDEST PUSH1 0x40 MLOAD DUP1 PUSH1 0x80 ADD PUSH1 0x40 MSTORE DUP1 DUP6 DUP2 MSTORE PUSH1 0x20 ADD DUP5 DUP2 MSTORE PUSH1 0x20 ADD DUP4 DUP2 MSTORE PUSH1 0x20 ADD DUP3 ISZERO ISZERO DUP2 MSTORE POP PUSH1 0x19 PUSH0 DUP8 PUSH20 0xFFFFFFFFFFFFFFFFFFFFFFFFFFFFFFFFFFFFFFFF AND PUSH20 0xFFFFFFFFFFFFFFFFFFFFFFFFFFFFFFFFFFFFFFFF AND DUP2 MSTORE PUSH1 0x20 ADD SWAP1 DUP2 MSTORE PUSH1 0x20 ADD PUSH0 KECCAK256 PUSH0 DUP3 ADD MLOAD DUP2 PUSH0 ADD SWAP1 DUP2 PUSH2 0xAB2 SWAP2 SWAP1 PUSH2 0x1BA5 JUMP JUMPDEST POP PUSH1 0x20 DUP3 ADD MLOAD DUP2 PUSH1 0x1 ADD SWAP1 DUP2 PUSH2 0xAC8 SWAP2 SWAP1 PUSH2 0x1BA5 JUMP JUMPDEST POP PUSH1 0x40 DUP3 ADD MLOAD DUP2 PUSH1 0x2 ADD SSTORE PUSH1 0x60 DUP3 ADD MLOAD DUP2 PUSH1 0x3 ADD PUSH0 PUSH2 0x100 EXP DUP2 SLOAD DUP2 PUSH1 0xFF MUL NOT AND SWAP1 DUP4 ISZERO ISZERO MUL OR SWAP1 SSTORE POP SWAP1 POP POP POP POP POP POP POP JUMP JUMPDEST PUSH1 0x60 DUP1 PUSH0 DUP1 PUSH0 PUSH1 0x19 PUSH0 DUP8 PUSH20 0xFFFFFFFFFFFFFFFFFFFFFFFFFFFFFFFFFFFFFFFF AND PUSH20 0xFFFFFFFFFFFFFFFFFFFFFFFFFFFFFFFFFFFFFFFF AND DUP2 MSTORE PUSH1 0x20 ADD SWAP1 DUP2 MSTORE PUSH1 0x20 ADD PUSH0 KECCAK256 PUSH1 0x40 MLOAD DUP1 PUSH1 0x80 ADD PUSH1 0x40 MSTORE SWAP1 DUP2 PUSH0 DUP3 ADD DUP1 SLOAD PUSH2 0xB59 SWAP1 PUSH2 0x19D8 JUMP JUMPDEST DUP1 PUSH1 0x1F ADD PUSH1 0x20 DUP1 SWAP2 DIV MUL PUSH1 0x20 ADD PUSH1 0x40 MLOAD SWAP1 DUP2 ADD PUSH1 0x40 MSTORE DUP1 SWAP3 SWAP2 SWAP1 DUP2 DUP2 MSTORE PUSH1 0x20 ADD DUP3 DUP1 SLOAD PUSH2 0xB85 SWAP1 PUSH2 0x19D8 JUMP JUMPDEST DUP1 ISZERO PUSH2 0xBD0 JUMPI DUP1 PUSH1 0x1F LT PUSH2 0xBA7 JUMPI PUSH2 0x100 DUP1 DUP4 SLOAD DIV MUL DUP4 MSTORE SWAP2 PUSH1 0x20 ADD SWAP2 PUSH2 0xBD0 JUMP JUMPDEST DUP3 ADD SWAP2 SWAP1 PUSH0 MSTORE PUSH1 0x20 PUSH0 KECCAK256 SWAP1 JUMPDEST DUP2 SLOAD DUP2 MSTORE SWAP1 PUSH1 0x1 ADD SWAP1 PUSH1 0x20 ADD DUP1 DUP4 GT PUSH2 0xBB3 JUMPI DUP3 SWAP1 SUB PUSH1 0x1F AND DUP3 ADD SWAP2 JUMPDEST POP POP POP POP POP DUP2 MSTORE PUSH1 0x20 ADD PUSH1 0x1 DUP3 ADD DUP1 SLOAD PUSH2 0xBE9 SWAP1 PUSH2 0x19D8 JUMP JUMPDEST DUP1 PUSH1 0x1F ADD PUSH1 0x20 DUP1 SWAP2 DIV MUL PUSH1 0x20 ADD PUSH1 0x40 MLOAD SWAP1 DUP2 ADD PUSH1 0x40 MSTORE DUP1 SWAP3 SWAP2 SWAP1 DUP2 DUP2 MSTORE PUSH1 0x20 ADD DUP3 DUP1 SLOAD PUSH2 0xC15 SWAP1 PUSH2 0x19D8 JUMP JUMPDEST DUP1 ISZERO PUSH2 0xC60 JUMPI DUP1 PUSH1 0x1F LT PUSH2 0xC37 JUMPI PUSH2 0x100 DUP1 DUP4 SLOAD DIV MUL DUP4 MSTORE SWAP2 PUSH1 0x20 ADD SWAP2 PUSH2 0xC60 JUMP JUMPDEST DUP3 ADD SWAP2 SWAP1 PUSH0 MSTORE PUSH1 0x20 PUSH0 KECCAK256 SWAP1 JUMPDEST DUP2 SLOAD DUP2 MSTORE SWAP1 PUSH1 0x1 ADD SWAP1 PUSH1 0x20 ADD DUP1 DUP4 GT PUSH2 0xC43 JUMPI DUP3 SWAP1 SUB PUSH1 0x1F AND DUP3 ADD SWAP2 JUMPDEST POP POP POP POP POP DUP2 MSTORE PUSH1 0x20 ADD PUSH1 0x2 DUP3 ADD SLOAD DUP2 MSTORE PUSH1 0x20 ADD PUSH1 0x3 DUP3 ADD PUSH0 SWAP1 SLOAD SWAP1 PUSH2 0x100 EXP SWAP1 DIV PUSH1 0xFF AND ISZERO ISZERO ISZERO ISZERO DUP2 MSTORE POP POP SWAP1 POP DUP1 PUSH0 ADD MLOAD DUP2 PUSH1 0x20 ADD MLOAD DUP3 PUSH1 0x40 ADD MLOAD DUP4 PUSH1 0x60 ADD MLOAD SWAP5 POP SWAP5 POP SWAP5 POP SWAP5 POP POP SWAP2 SWAP4 POP SWAP2 SWAP4 JUMP JUMPDEST PUSH0 PUSH1 0x5 DUP1 SLOAD SWAP1 POP SWAP1 POP SWAP1 JUMP JUMPDEST PUSH0 PUSH1 0x4 SWAP1 POP SWAP1 JUMP JUMPDEST PUSH1 0x60 PUSH0 DUP1 SLOAD PUSH2 0xCD4 SWAP1 PUSH2 0x19D8 JUMP JUMPDEST DUP1 PUSH1 0x1F ADD PUSH1 0x20 DUP1 SWAP2 DIV MUL PUSH1 0x20 ADD PUSH1 0x40 MLOAD SWAP1 DUP2 ADD PUSH1 0x40 MSTORE DUP1 SWAP3 SWAP2 SWAP1 DUP2 DUP2 MSTORE PUSH1 0x20 ADD DUP3 DUP1 SLOAD PUSH2 0xD00 SWAP1 PUSH2 0x19D8 JUMP JUMPDEST DUP1 ISZERO PUSH2 0xD4B JUMPI DUP1 PUSH1 0x1F LT PUSH2 0xD22 JUMPI PUSH2 0x100 DUP1 DUP4 SLOAD DIV MUL DUP4 MSTORE SWAP2 PUSH1 0x20 ADD SWAP2 PUSH2 0xD4B JUMP JUMPDEST DUP3 ADD SWAP2 SWAP1 PUSH0 MSTORE PUSH1 0x20 PUSH0 KECCAK256 SWAP1 JUMPDEST DUP2 SLOAD DUP2 MSTORE SWAP1 PUSH1 0x1 ADD SWAP1 PUSH1 0x20 ADD DUP1 DUP4 GT PUSH2 0xD2E JUMPI DUP3 SWAP1 SUB PUSH1 0x1F AND DUP3 ADD SWAP2 JUMPDEST POP POP POP POP POP SWAP1 POP SWAP1 JUMP JUMPDEST PUSH0 DUP5 GT DUP1 ISZERO PUSH2 0xD64 JUMPI POP PUSH1 0x5 DUP5 LT JUMPDEST PUSH2 0xDA3 JUMPI PUSH1 0x40 MLOAD PUSH32 0x8C379A000000000000000000000000000000000000000000000000000000000 DUP2 MSTORE PUSH1 0x4 ADD PUSH2 0xD9A SWAP1 PUSH2 0x1D3B JUMP JUMPDEST PUSH1 0x40 MLOAD DUP1 SWAP2 SUB SWAP1 REVERT JUMPDEST PUSH1 0x40 MLOAD DUP1 PUSH1 0x60 ADD PUSH1 0x40 MSTORE DUP1 DUP5 DUP2 MSTORE PUSH1 0x20 ADD DUP4 DUP2 MSTORE PUSH1 0x20 ADD DUP3 DUP2 MSTORE POP PUSH1 0x9 DUP6 PUSH1 0x5 DUP2 LT PUSH2 0xDD2 JUMPI PUSH2 0xDD1 PUSH2 0x1C74 JUMP JUMPDEST JUMPDEST PUSH1 0x3 MUL ADD PUSH0 DUP3 ADD MLOAD DUP2 PUSH0 ADD SWAP1 DUP2 PUSH2 0xDE9 SWAP2 SWAP1 PUSH2 0x1BA5 JUMP JUMPDEST POP PUSH1 0x20 DUP3 ADD MLOAD DUP2 PUSH1 0x1 ADD SSTORE PUSH1 0x40 DUP3 ADD MLOAD DUP2 PUSH1 0x2 ADD SSTORE SWAP1 POP POP POP POP POP POP JUMP JUMPDEST PUSH1 0x5 DUP2 SWAP1 DUP1 PUSH1 0x1 DUP2 SLOAD ADD DUP1 DUP3 SSTORE DUP1 SWAP2 POP POP PUSH1 0x1 SWAP1 SUB SWAP1 PUSH0 MSTORE PUSH1 0x20 PUSH0 KECCAK256 ADD PUSH0 SWAP1 SWAP2 SWAP1 SWAP2 SWAP1 SWAP2 POP SSTORE POP JUMP JUMPDEST PUSH1 0x1 DUP2 PUSH1 0x4 DUP2 LT PUSH2 0xE3F JUMPI PUSH0 DUP1 REVERT JUMPDEST ADD PUSH0 SWAP2 POP SWAP1 POP SLOAD DUP2 JUMP JUMPDEST PUSH1 0x40 MLOAD DUP1 PUSH1 0x40 ADD PUSH1 0x40 MSTORE DUP1 DUP4 DUP2 MSTORE PUSH1 0x20 ADD DUP3 ISZERO ISZERO DUP2 MSTORE POP PUSH1 0x1A PUSH0 DUP7 DUP2 MSTORE PUSH1 0x20 ADD SWAP1 DUP2 MSTORE PUSH1 0x20 ADD PUSH0 KECCAK256 PUSH0 DUP6 DUP2 MSTORE PUSH1 0x20 ADD SWAP1 DUP2 MSTORE PUSH1 0x20 ADD PUSH0 KECCAK256 PUSH0 DUP3 ADD MLOAD DUP2 PUSH0 ADD SWAP1 DUP2 PUSH2 0xE93 SWAP2 SWAP1 PUSH2 0x1BA5 JUMP JUMPDEST POP PUSH1 0x20 DUP3 ADD MLOAD DUP2 PUSH1 0x1 ADD PUSH0 PUSH2 0x100 EXP DUP2 SLOAD DUP2 PUSH1 0xFF MUL NOT AND SWAP1 DUP4 ISZERO ISZERO MUL OR SWAP1 SSTORE POP SWAP1 POP POP POP POP POP POP JUMP JUMPDEST PUSH1 0x60 PUSH0 DUP1 PUSH1 0x1A PUSH0 DUP7 DUP2 MSTORE PUSH1 0x20 ADD SWAP1 DUP2 MSTORE PUSH1 0x20 ADD PUSH0 KECCAK256 PUSH0 DUP6 DUP2 MSTORE PUSH1 0x20 ADD SWAP1 DUP2 MSTORE PUSH1 0x20 ADD PUSH0 KECCAK256 PUSH1 0x40 MLOAD DUP1 PUSH1 0x40 ADD PUSH1 0x40 MSTORE SWAP1 DUP2 PUSH0 DUP3 ADD DUP1 SLOAD PUSH2 0xEFA SWAP1 PUSH2 0x19D8 JUMP JUMPDEST DUP1 PUSH1 0x1F ADD PUSH1 0x20 DUP1 SWAP2 DIV MUL PUSH1 0x20 ADD PUSH1 0x40 MLOAD SWAP1 DUP2 ADD PUSH1 0x40 MSTORE DUP1 SWAP3 SWAP2 SWAP1 DUP2 DUP2 MSTORE PUSH1 0x20 ADD DUP3 DUP1 SLOAD PUSH2 0xF26 SWAP1 PUSH2 0x19D8 JUMP JUMPDEST DUP1 ISZERO PUSH2 0xF71 JUMPI DUP1 PUSH1 0x1F LT PUSH2 0xF48 JUMPI PUSH2 0x100 DUP1 DUP4 SLOAD DIV MUL DUP4 MSTORE SWAP2 PUSH1 0x20 ADD SWAP2 PUSH2 0xF71 JUMP JUMPDEST DUP3 ADD SWAP2 SWAP1 PUSH0 MSTORE PUSH1 0x20 PUSH0 KECCAK256 SWAP1 JUMPDEST DUP2 SLOAD DUP2 MSTORE SWAP1 PUSH1 0x1 ADD SWAP1 PUSH1 0x20 ADD DUP1 DUP4 GT PUSH2 0xF54 JUMPI DUP3 SWAP1 SUB PUSH1 0x1F AND DUP3 ADD SWAP2 JUMPDEST POP POP POP POP POP DUP2 MSTORE PUSH1 0x20 ADD PUSH1 0x1 DUP3 ADD PUSH0 SWAP1 SLOAD SWAP1 PUSH2 0x100 EXP SWAP1 DIV PUSH1 0xFF AND ISZERO ISZERO ISZERO ISZERO DUP2 MSTORE POP POP SWAP1 POP DUP1 PUSH0 ADD MLOAD DUP2 PUSH1 0x20 ADD MLOAD SWAP3 POP SWAP3 POP POP SWAP3 POP SWAP3 SWAP1 POP JUMP JUMPDEST PUSH1 0x60 PUSH1 0x5 DUP1 SLOAD DUP1 PUSH1 0x20 MUL PUSH1 0x20 ADD PUSH1 0x40 MLOAD SWAP1 DUP2 ADD PUSH1 0x40 MSTORE DUP1 SWAP3 SWAP2 SWAP1 DUP2 DUP2 MSTORE PUSH1 0x20 ADD DUP3 DUP1 SLOAD DUP1 ISZERO PUSH2 0xFF7 JUMPI PUSH1 0x20 MUL DUP3 ADD SWAP2 SWAP1 PUSH0 MSTORE PUSH1 0x20 PUSH0 KECCAK256 SWAP1 JUMPDEST DUP2 SLOAD DUP2 MSTORE PUSH1 0x20 ADD SWAP1 PUSH1 0x1 ADD SWAP1 DUP1 DUP4 GT PUSH2 0xFE3 JUMPI JUMPDEST POP POP POP POP POP SWAP1 POP SWAP1 JUMP JUMPDEST PUSH2 0x1009 PUSH2 0x106B JUMP JUMPDEST PUSH1 0x1 PUSH1 0x4 DUP1 PUSH1 0x20 MUL PUSH1 0x40 MLOAD SWAP1 DUP2 ADD PUSH1 0x40 MSTORE DUP1 SWAP3 SWAP2 SWAP1 DUP3 PUSH1 0x4 DUP1 ISZERO PUSH2 0x1042 JUMPI PUSH1 0x20 MUL DUP3 ADD SWAP2 JUMPDEST DUP2 SLOAD DUP2 MSTORE PUSH1 0x20 ADD SWAP1 PUSH1 0x1 ADD SWAP1 DUP1 DUP4 GT PUSH2 0x102E JUMPI JUMPDEST POP POP POP POP POP SWAP1 POP SWAP1 JUMP JUMPDEST PUSH1 0x40 MLOAD DUP1 PUSH1 0x60 ADD PUSH1 0x40 MSTORE DUP1 PUSH1 0x60 DUP2 MSTORE PUSH1 0x20 ADD PUSH0 DUP2 MSTORE PUSH1 0x20 ADD PUSH0 DUP2 MSTORE POP SWAP1 JUMP JUMPDEST PUSH1 0x40 MLOAD DUP1 PUSH1 0x80 ADD PUSH1 0x40 MSTORE DUP1 PUSH1 0x4 SWAP1 PUSH1 0x20 DUP3 MUL DUP1 CALLDATASIZE DUP4 CALLDATACOPY DUP1 DUP3 ADD SWAP2 POP POP SWAP1 POP POP SWAP1 JUMP JUMPDEST PUSH0 PUSH1 0x40 MLOAD SWAP1 POP SWAP1 JUMP JUMPDEST PUSH0 DUP1 REVERT JUMPDEST PUSH0 DUP1 REVERT JUMPDEST PUSH0 DUP2 SWAP1 POP SWAP2 SWAP1 POP JUMP JUMPDEST PUSH2 0x10B0 DUP2 PUSH2 0x109E JUMP JUMPDEST DUP2 EQ PUSH2 0x10BA JUMPI PUSH0 DUP1 REVERT JUMPDEST POP JUMP JUMPDEST PUSH0 DUP2 CALLDATALOAD SWAP1 POP PUSH2 0x10CB DUP2 PUSH2 0x10A7 JUMP JUMPDEST SWAP3 SWAP2 POP POP JUMP JUMPDEST PUSH0 DUP1 PUSH1 0x40 DUP4 DUP6 SUB SLT ISZERO PUSH2 0x10E7 JUMPI PUSH2 0x10E6 PUSH2 0x1096 JUMP JUMPDEST JUMPDEST PUSH0 PUSH2 0x10F4 DUP6 DUP3 DUP7 ADD PUSH2 0x10BD JUMP JUMPDEST SWAP3 POP POP PUSH1 0x20 PUSH2 0x1105 DUP6 DUP3 DUP7 ADD PUSH2 0x10BD JUMP JUMPDEST SWAP2 POP POP SWAP3 POP SWAP3 SWAP1 POP JUMP JUMPDEST PUSH0 DUP2 MLOAD SWAP1 POP SWAP2 SWAP1 POP JUMP JUMPDEST PUSH0 DUP3 DUP3 MSTORE PUSH1 0x20 DUP3 ADD SWAP1 POP SWAP3 SWAP2 POP POP JUMP JUMPDEST DUP3 DUP2 DUP4 MCOPY PUSH0 DUP4 DUP4 ADD MSTORE POP POP POP JUMP JUMPDEST PUSH0 PUSH1 0x1F NOT PUSH1 0x1F DUP4 ADD AND SWAP1 POP SWAP2 SWAP1 POP JUMP JUMPDEST PUSH0 PUSH2 0x1151 DUP3 PUSH2 0x110F JUMP JUMPDEST PUSH2 0x115B DUP2 DUP6 PUSH2 0x1119 JUMP JUMPDEST SWAP4 POP PUSH2 0x116B DUP2 DUP6 PUSH1 0x20 DUP7 ADD PUSH2 0x1129 JUMP JUMPDEST PUSH2 0x1174 DUP2 PUSH2 0x1137 JUMP JUMPDEST DUP5 ADD SWAP2 POP POP SWAP3 SWAP2 POP POP JUMP JUMPDEST PUSH0 DUP2 ISZERO ISZERO SWAP1 POP SWAP2 SWAP1 POP JUMP JUMPDEST PUSH2 0x1193 DUP2 PUSH2 0x117F JUMP JUMPDEST DUP3 MSTORE POP POP JUMP JUMPDEST PUSH0 PUSH1 0x40 DUP3 ADD SWAP1 POP DUP2 DUP2 SUB PUSH0 DUP4 ADD MSTORE PUSH2 0x11B1 DUP2 DUP6 PUSH2 0x1147 JUMP JUMPDEST SWAP1 POP PUSH2 0x11C0 PUSH1 0x20 DUP4 ADD DUP5 PUSH2 0x118A JUMP JUMPDEST SWAP4 SWAP3 POP POP POP JUMP JUMPDEST PUSH0 PUSH1 0x20 DUP3 DUP5 SUB SLT ISZERO PUSH2 0x11DC JUMPI PUSH2 0x11DB PUSH2 0x1096 JUMP JUMPDEST JUMPDEST PUSH0 PUSH2 0x11E9 DUP5 DUP3 DUP6 ADD PUSH2 0x10BD JUMP JUMPDEST SWAP2 POP POP SWAP3 SWAP2 POP POP JUMP JUMPDEST PUSH2 0x11FB DUP2 PUSH2 0x109E JUMP JUMPDEST DUP3 MSTORE POP POP JUMP JUMPDEST PUSH0 PUSH1 0x20 DUP3 ADD SWAP1 POP PUSH2 0x1214 PUSH0 DUP4 ADD DUP5 PUSH2 0x11F2 JUMP JUMPDEST SWAP3 SWAP2 POP POP JUMP JUMPDEST PUSH0 PUSH1 0x60 DUP3 ADD SWAP1 POP DUP2 DUP2 SUB PUSH0 DUP4 ADD MSTORE PUSH2 0x1232 DUP2 DUP7 PUSH2 0x1147 JUMP JUMPDEST SWAP1 POP PUSH2 0x1241 PUSH1 0x20 DUP4 ADD DUP6 PUSH2 0x11F2 JUMP JUMPDEST PUSH2 0x124E PUSH1 0x40 DUP4 ADD DUP5 PUSH2 0x11F2 JUMP JUMPDEST SWAP5 SWAP4 POP POP POP POP JUMP JUMPDEST PUSH0 DUP3 DUP3 MSTORE PUSH1 0x20 DUP3 ADD SWAP1 POP SWAP3 SWAP2 POP POP JUMP JUMPDEST PUSH0 PUSH2 0x1270 DUP3 PUSH2 0x110F JUMP JUMPDEST PUSH2 0x127A DUP2 DUP6 PUSH2 0x1256 JUMP JUMPDEST SWAP4 POP PUSH2 0x128A DUP2 DUP6 PUSH1 0x20 DUP7 ADD PUSH2 0x1129 JUMP JUMPDEST PUSH2 0x1293 DUP2 PUSH2 0x1137 JUMP JUMPDEST DUP5 ADD SWAP2 POP POP SWAP3 SWAP2 POP POP JUMP JUMPDEST PUSH2 0x12A7 DUP2 PUSH2 0x109E JUMP JUMPDEST DUP3 MSTORE POP POP JUMP JUMPDEST PUSH0 PUSH1 0x60 DUP4 ADD PUSH0 DUP4 ADD MLOAD DUP5 DUP3 SUB PUSH0 DUP7 ADD MSTORE PUSH2 0x12C7 DUP3 DUP3 PUSH2 0x1266 JUMP JUMPDEST SWAP2 POP POP PUSH1 0x20 DUP4 ADD MLOAD PUSH2 0x12DC PUSH1 0x20 DUP7 ADD DUP3 PUSH2 0x129E JUMP JUMPDEST POP PUSH1 0x40 DUP4 ADD MLOAD PUSH2 0x12EF PUSH1 0x40 DUP7 ADD DUP3 PUSH2 0x129E JUMP JUMPDEST POP DUP1 SWAP2 POP POP SWAP3 SWAP2 POP POP JUMP JUMPDEST PUSH0 PUSH1 0x20 DUP3 ADD SWAP1 POP DUP2 DUP2 SUB PUSH0 DUP4 ADD MSTORE PUSH2 0x1312 DUP2 DUP5 PUSH2 0x12AD JUMP JUMPDEST SWAP1 POP SWAP3 SWAP2 POP POP JUMP JUMPDEST PUSH0 PUSH1 0x20 DUP3 ADD SWAP1 POP DUP2 DUP2 SUB PUSH0 DUP4 ADD MSTORE PUSH2 0x1332 DUP2 DUP5 PUSH2 0x1147 JUMP JUMPDEST SWAP1 POP SWAP3 SWAP2 POP POP JUMP JUMPDEST PUSH0 DUP1 REVERT JUMPDEST PUSH0 DUP1 REVERT JUMPDEST PUSH32 0x4E487B7100000000000000000000000000000000000000000000000000000000 PUSH0 MSTORE PUSH1 0x41 PUSH1 0x4 MSTORE PUSH1 0x24 PUSH0 REVERT JUMPDEST PUSH2 0x1378 DUP3 PUSH2 0x1137 JUMP JUMPDEST DUP2 ADD DUP2 DUP2 LT PUSH8 0xFFFFFFFFFFFFFFFF DUP3 GT OR ISZERO PUSH2 0x1397 JUMPI PUSH2 0x1396 PUSH2 0x1342 JUMP JUMPDEST JUMPDEST DUP1 PUSH1 0x40 MSTORE POP POP POP JUMP JUMPDEST PUSH0 PUSH2 0x13A9 PUSH2 0x108D JUMP JUMPDEST SWAP1 POP PUSH2 0x13B5 DUP3 DUP3 PUSH2 0x136F JUMP JUMPDEST SWAP2 SWAP1 POP JUMP JUMPDEST PUSH0 PUSH8 0xFFFFFFFFFFFFFFFF DUP3 GT ISZERO PUSH2 0x13D4 JUMPI PUSH2 0x13D3 PUSH2 0x1342 JUMP JUMPDEST JUMPDEST PUSH2 0x13DD DUP3 PUSH2 0x1137 JUMP JUMPDEST SWAP1 POP PUSH1 0x20 DUP2 ADD SWAP1 POP SWAP2 SWAP1 POP JUMP JUMPDEST DUP3 DUP2 DUP4 CALLDATACOPY PUSH0 DUP4 DUP4 ADD MSTORE POP POP POP JUMP JUMPDEST PUSH0 PUSH2 0x140A PUSH2 0x1405 DUP5 PUSH2 0x13BA JUMP JUMPDEST PUSH2 0x13A0 JUMP JUMPDEST SWAP1 POP DUP3 DUP2 MSTORE PUSH1 0x20 DUP2 ADD DUP5 DUP5 DUP5 ADD GT ISZERO PUSH2 0x1426 JUMPI PUSH2 0x1425 PUSH2 0x133E JUMP JUMPDEST JUMPDEST PUSH2 0x1431 DUP5 DUP3 DUP6 PUSH2 0x13EA JUMP JUMPDEST POP SWAP4 SWAP3 POP POP POP JUMP JUMPDEST PUSH0 DUP3 PUSH1 0x1F DUP4 ADD SLT PUSH2 0x144D JUMPI PUSH2 0x144C PUSH2 0x133A JUMP JUMPDEST JUMPDEST DUP2 CALLDATALOAD PUSH2 0x145D DUP5 DUP3 PUSH1 0x20 DUP7 ADD PUSH2 0x13F8 JUMP JUMPDEST SWAP2 POP POP SWAP3 SWAP2 POP POP JUMP JUMPDEST PUSH0 PUSH1 0x20 DUP3 DUP5 SUB SLT ISZERO PUSH2 0x147B JUMPI PUSH2 0x147A PUSH2 0x1096 JUMP JUMPDEST JUMPDEST PUSH0 DUP3 ADD CALLDATALOAD PUSH8 0xFFFFFFFFFFFFFFFF DUP2 GT ISZERO PUSH2 0x1498 JUMPI PUSH2 0x1497 PUSH2 0x109A JUMP JUMPDEST JUMPDEST PUSH2 0x14A4 DUP5 DUP3 DUP6 ADD PUSH2 0x1439 JUMP JUMPDEST SWAP2 POP POP SWAP3 SWAP2 POP POP JUMP JUMPDEST PUSH0 DUP1 PUSH1 0x40 DUP4 DUP6 SUB SLT ISZERO PUSH2 0x14C3 JUMPI PUSH2 0x14C2 PUSH2 0x1096 JUMP JUMPDEST JUMPDEST PUSH0 DUP4 ADD CALLDATALOAD PUSH8 0xFFFFFFFFFFFFFFFF DUP2 GT ISZERO PUSH2 0x14E0 JUMPI PUSH2 0x14DF PUSH2 0x109A JUMP JUMPDEST JUMPDEST PUSH2 0x14EC DUP6 DUP3 DUP7 ADD PUSH2 0x1439 JUMP JUMPDEST SWAP3 POP POP PUSH1 0x20 PUSH2 0x14FD DUP6 DUP3 DUP7 ADD PUSH2 0x10BD JUMP JUMPDEST SWAP2 POP POP SWAP3 POP SWAP3 SWAP1 POP JUMP JUMPDEST PUSH0 PUSH20 0xFFFFFFFFFFFFFFFFFFFFFFFFFFFFFFFFFFFFFFFF DUP3 AND SWAP1 POP SWAP2 SWAP1 POP JUMP JUMPDEST PUSH0 PUSH2 0x1530 DUP3 PUSH2 0x1507 JUMP JUMPDEST SWAP1 POP SWAP2 SWAP1 POP JUMP JUMPDEST PUSH2 0x1540 DUP2 PUSH2 0x1526 JUMP JUMPDEST DUP2 EQ PUSH2 0x154A JUMPI PUSH0 DUP1 REVERT JUMPDEST POP JUMP JUMPDEST PUSH0 DUP2 CALLDATALOAD SWAP1 POP PUSH2 0x155B DUP2 PUSH2 0x1537 JUMP JUMPDEST SWAP3 SWAP2 POP POP JUMP JUMPDEST PUSH2 0x156A DUP2 PUSH2 0x117F JUMP JUMPDEST DUP2 EQ PUSH2 0x1574 JUMPI PUSH0 DUP1 REVERT JUMPDEST POP JUMP JUMPDEST PUSH0 DUP2 CALLDATALOAD SWAP1 POP PUSH2 0x1585 DUP2 PUSH2 0x1561 JUMP JUMPDEST SWAP3 SWAP2 POP POP JUMP JUMPDEST PUSH0 DUP1 PUSH0 DUP1 PUSH0 PUSH1 0xA0 DUP7 DUP9 SUB SLT ISZERO PUSH2 0x15A4 JUMPI PUSH2 0x15A3 PUSH2 0x1096 JUMP JUMPDEST JUMPDEST PUSH0 PUSH2 0x15B1 DUP9 DUP3 DUP10 ADD PUSH2 0x154D JUMP JUMPDEST SWAP6 POP POP PUSH1 0x20 DUP7 ADD CALLDATALOAD PUSH8 0xFFFFFFFFFFFFFFFF DUP2 GT ISZERO PUSH2 0x15D2 JUMPI PUSH2 0x15D1 PUSH2 0x109A JUMP JUMPDEST JUMPDEST PUSH2 0x15DE DUP9 DUP3 DUP10 ADD PUSH2 0x1439 JUMP JUMPDEST SWAP5 POP POP PUSH1 0x40 DUP7 ADD CALLDATALOAD PUSH8 0xFFFFFFFFFFFFFFFF DUP2 GT ISZERO PUSH2 0x15FF JUMPI PUSH2 0x15FE PUSH2 0x109A JUMP JUMPDEST JUMPDEST PUSH2 0x160B DUP9 DUP3 DUP10 ADD PUSH2 0x1439 JUMP JUMPDEST SWAP4 POP POP PUSH1 0x60 PUSH2 0x161C DUP9 DUP3 DUP10 ADD PUSH2 0x10BD JUMP JUMPDEST SWAP3 POP POP PUSH1 0x80 PUSH2 0x162D DUP9 DUP3 DUP10 ADD PUSH2 0x1577 JUMP JUMPDEST SWAP2 POP POP SWAP3 SWAP6 POP SWAP3 SWAP6 SWAP1 SWAP4 POP JUMP JUMPDEST PUSH0 PUSH1 0x20 DUP3 DUP5 SUB SLT ISZERO PUSH2 0x164F JUMPI PUSH2 0x164E PUSH2 0x1096 JUMP JUMPDEST JUMPDEST PUSH0 PUSH2 0x165C DUP5 DUP3 DUP6 ADD PUSH2 0x154D JUMP JUMPDEST SWAP2 POP POP SWAP3 SWAP2 POP POP JUMP JUMPDEST PUSH0 PUSH1 0x80 DUP3 ADD SWAP1 POP DUP2 DUP2 SUB PUSH0 DUP4 ADD MSTORE PUSH2 0x167D DUP2 DUP8 PUSH2 0x1147 JUMP JUMPDEST SWAP1 POP DUP2 DUP2 SUB PUSH1 0x20 DUP4 ADD MSTORE PUSH2 0x1691 DUP2 DUP7 PUSH2 0x1147 JUMP JUMPDEST SWAP1 POP PUSH2 0x16A0 PUSH1 0x40 DUP4 ADD DUP6 PUSH2 0x11F2 JUMP JUMPDEST PUSH2 0x16AD PUSH1 0x60 DUP4 ADD DUP5 PUSH2 0x118A JUMP JUMPDEST SWAP6 SWAP5 POP POP POP POP POP JUMP JUMPDEST PUSH0 DUP1 PUSH0 DUP1 PUSH1 0x80 DUP6 DUP8 SUB SLT ISZERO PUSH2 0x16CE JUMPI PUSH2 0x16CD PUSH2 0x1096 JUMP JUMPDEST JUMPDEST PUSH0 PUSH2 0x16DB DUP8 DUP3 DUP9 ADD PUSH2 0x10BD JUMP JUMPDEST SWAP5 POP POP PUSH1 0x20 DUP6 ADD CALLDATALOAD PUSH8 0xFFFFFFFFFFFFFFFF DUP2 GT ISZERO PUSH2 0x16FC JUMPI PUSH2 0x16FB PUSH2 0x109A JUMP JUMPDEST JUMPDEST PUSH2 0x1708 DUP8 DUP3 DUP9 ADD PUSH2 0x1439 JUMP JUMPDEST SWAP4 POP POP PUSH1 0x40 PUSH2 0x1719 DUP8 DUP3 DUP9 ADD PUSH2 0x10BD JUMP JUMPDEST SWAP3 POP POP PUSH1 0x60 PUSH2 0x172A DUP8 DUP3 DUP9 ADD PUSH2 0x10BD JUMP JUMPDEST SWAP2 POP POP SWAP3 SWAP6 SWAP2 SWAP5 POP SWAP3 POP JUMP JUMPDEST PUSH0 DUP1 PUSH0 DUP1 PUSH1 0x80 DUP6 DUP8 SUB SLT ISZERO PUSH2 0x174E JUMPI PUSH2 0x174D PUSH2 0x1096 JUMP JUMPDEST JUMPDEST PUSH0 PUSH2 0x175B DUP8 DUP3 DUP9 ADD PUSH2 0x10BD JUMP JUMPDEST SWAP5 POP POP PUSH1 0x20 PUSH2 0x176C DUP8 DUP3 DUP9 ADD PUSH2 0x10BD JUMP JUMPDEST SWAP4 POP POP PUSH1 0x40 DUP6 ADD CALLDATALOAD PUSH8 0xFFFFFFFFFFFFFFFF DUP2 GT ISZERO PUSH2 0x178D JUMPI PUSH2 0x178C PUSH2 0x109A JUMP JUMPDEST JUMPDEST PUSH2 0x1799 DUP8 DUP3 DUP9 ADD PUSH2 0x1439 JUMP JUMPDEST SWAP3 POP POP PUSH1 0x60 PUSH2 0x17AA DUP8 DUP3 DUP9 ADD PUSH2 0x1577 JUMP JUMPDEST SWAP2 POP POP SWAP3 SWAP6 SWAP2 SWAP5 POP SWAP3 POP JUMP JUMPDEST PUSH0 DUP2 MLOAD SWAP1 POP SWAP2 SWAP1 POP JUMP JUMPDEST PUSH0 DUP3 DUP3 MSTORE PUSH1 0x20 DUP3 ADD SWAP1 POP SWAP3 SWAP2 POP POP JUMP JUMPDEST PUSH0 DUP2 SWAP1 POP PUSH1 0x20 DUP3 ADD SWAP1 POP SWAP2 SWAP1 POP JUMP JUMPDEST PUSH0 PUSH2 0x17EA DUP4 DUP4 PUSH2 0x129E JUMP JUMPDEST PUSH1 0x20 DUP4 ADD SWAP1 POP SWAP3 SWAP2 POP POP JUMP JUMPDEST PUSH0 PUSH1 0x20 DUP3 ADD SWAP1 POP SWAP2 SWAP1 POP JUMP JUMPDEST PUSH0 PUSH2 0x180C DUP3 PUSH2 0x17B6 JUMP JUMPDEST PUSH2 0x1816 DUP2 DUP6 PUSH2 0x17C0 JUMP JUMPDEST SWAP4 POP PUSH2 0x1821 DUP4 PUSH2 0x17D0 JUMP JUMPDEST DUP1 PUSH0 JUMPDEST DUP4 DUP2 LT ISZERO PUSH2 0x1851 JUMPI DUP2 MLOAD PUSH2 0x1838 DUP9 DUP3 PUSH2 0x17DF JUMP JUMPDEST SWAP8 POP PUSH2 0x1843 DUP4 PUSH2 0x17F6 JUMP JUMPDEST SWAP3 POP POP PUSH1 0x1 DUP2 ADD SWAP1 POP PUSH2 0x1824 JUMP JUMPDEST POP DUP6 SWAP4 POP POP POP POP SWAP3 SWAP2 POP POP JUMP JUMPDEST PUSH0 PUSH1 0x20 DUP3 ADD SWAP1 POP DUP2 DUP2 SUB PUSH0 DUP4 ADD MSTORE PUSH2 0x1876 DUP2 DUP5 PUSH2 0x1802 JUMP JUMPDEST SWAP1 POP SWAP3 SWAP2 POP POP JUMP JUMPDEST PUSH0 PUSH1 0x4 SWAP1 POP SWAP2 SWAP1 POP JUMP JUMPDEST PUSH0 DUP2 SWAP1 POP SWAP3 SWAP2 POP POP JUMP JUMPDEST PUSH0 DUP2 SWAP1 POP SWAP2 SWAP1 POP JUMP JUMPDEST PUSH0 PUSH1 0x20 DUP3 ADD SWAP1 POP SWAP2 SWAP1 POP JUMP JUMPDEST PUSH2 0x18B0 DUP2 PUSH2 0x187E JUMP JUMPDEST PUSH2 0x18BA DUP2 DUP5 PUSH2 0x1888 JUMP JUMPDEST SWAP3 POP PUSH2 0x18C5 DUP3 PUSH2 0x1892 JUMP JUMPDEST DUP1 PUSH0 JUMPDEST DUP4 DUP2 LT ISZERO PUSH2 0x18F5 JUMPI DUP2 MLOAD PUSH2 0x18DC DUP8 DUP3 PUSH2 0x17DF JUMP JUMPDEST SWAP7 POP PUSH2 0x18E7 DUP4 PUSH2 0x189B JUMP JUMPDEST SWAP3 POP POP PUSH1 0x1 DUP2 ADD SWAP1 POP PUSH2 0x18C8 JUMP JUMPDEST POP POP POP POP POP POP JUMP JUMPDEST PUSH0 PUSH1 0x80 DUP3 ADD SWAP1 POP PUSH2 0x1910 PUSH0 DUP4 ADD DUP5 PUSH2 0x18A7 JUMP JUMPDEST SWAP3 SWAP2 POP POP JUMP JUMPDEST PUSH32 0x44796E616D696320417272617920697320456D70747900000000000000000000 PUSH0 DUP3 ADD MSTORE POP JUMP JUMPDEST PUSH0 PUSH2 0x194A PUSH1 0x16 DUP4 PUSH2 0x1119 JUMP JUMPDEST SWAP2 POP PUSH2 0x1955 DUP3 PUSH2 0x1916 JUMP JUMPDEST PUSH1 0x20 DUP3 ADD SWAP1 POP SWAP2 SWAP1 POP JUMP JUMPDEST PUSH0 PUSH1 0x20 DUP3 ADD SWAP1 POP DUP2 DUP2 SUB PUSH0 DUP4 ADD MSTORE PUSH2 0x1977 DUP2 PUSH2 0x193E JUMP JUMPDEST SWAP1 POP SWAP2 SWAP1 POP JUMP JUMPDEST PUSH32 0x4E487B7100000000000000000000000000000000000000000000000000000000 PUSH0 MSTORE PUSH1 0x31 PUSH1 0x4 MSTORE PUSH1 0x24 PUSH0 REVERT JUMPDEST PUSH32 0x4E487B7100000000000000000000000000000000000000000000000000000000 PUSH0 MSTORE PUSH1 0x22 PUSH1 0x4 MSTORE PUSH1 0x24 PUSH0 REVERT JUMPDEST PUSH0 PUSH1 0x2 DUP3 DIV SWAP1 POP PUSH1 0x1 DUP3 AND DUP1 PUSH2 0x19EF JUMPI PUSH1 0x7F DUP3 AND SWAP2 POP JUMPDEST PUSH1 0x20 DUP3 LT DUP2 SUB PUSH2 0x1A02 JUMPI PUSH2 0x1A01 PUSH2 0x19AB JUMP JUMPDEST JUMPDEST POP SWAP2 SWAP1 POP JUMP JUMPDEST PUSH0 DUP2 SWAP1 POP DUP2 PUSH0 MSTORE PUSH1 0x20 PUSH0 KECCAK256 SWAP1 POP SWAP2 SWAP1 POP JUMP JUMPDEST PUSH0 PUSH1 0x20 PUSH1 0x1F DUP4 ADD DIV SWAP1 POP SWAP2 SWAP1 POP JUMP JUMPDEST PUSH0 DUP3 DUP3 SHL SWAP1 POP SWAP3 SWAP2 POP POP JUMP JUMPDEST PUSH0 PUSH1 0x8 DUP4 MUL PUSH2 0x1A64 PUSH32 0xFFFFFFFFFFFFFFFFFFFFFFFFFFFFFFFFFFFFFFFFFFFFFFFFFFFFFFFFFFFFFFFF DUP3 PUSH2 0x1A29 JUMP JUMPDEST PUSH2 0x1A6E DUP7 DUP4 PUSH2 0x1A29 JUMP JUMPDEST SWAP6 POP DUP1 NOT DUP5 AND SWAP4 POP DUP1 DUP7 AND DUP5 OR SWAP3 POP POP POP SWAP4 SWAP3 POP POP POP JUMP JUMPDEST PUSH0 DUP2 SWAP1 POP SWAP2 SWAP1 POP JUMP JUMPDEST PUSH0 PUSH2 0x1AA9 PUSH2 0x1AA4 PUSH2 0x1A9F DUP5 PUSH2 0x109E JUMP JUMPDEST PUSH2 0x1A86 JUMP JUMPDEST PUSH2 0x109E JUMP JUMPDEST SWAP1 POP SWAP2 SWAP1 POP JUMP JUMPDEST PUSH0 DUP2 SWAP1 POP SWAP2 SWAP1 POP JUMP JUMPDEST PUSH2 0x1AC2 DUP4 PUSH2 0x1A8F JUMP JUMPDEST PUSH2 0x1AD6 PUSH2 0x1ACE DUP3 PUSH2 0x1AB0 JUMP JUMPDEST DUP5 DUP5 SLOAD PUSH2 0x1A35 JUMP JUMPDEST DUP3 SSTORE POP POP POP POP JUMP JUMPDEST PUSH0 SWAP1 JUMP JUMPDEST PUSH2 0x1AEA PUSH2 0x1ADE JUMP JUMPDEST PUSH2 0x1AF5 DUP2 DUP5 DUP5 PUSH2 0x1AB9 JUMP JUMPDEST POP POP POP JUMP JUMPDEST JUMPDEST DUP2 DUP2 LT ISZERO PUSH2 0x1B18 JUMPI PUSH2 0x1B0D PUSH0 DUP3 PUSH2 0x1AE2 JUMP JUMPDEST PUSH1 0x1 DUP2 ADD SWAP1 POP PUSH2 0x1AFB JUMP JUMPDEST POP POP JUMP JUMPDEST PUSH1 0x1F DUP3 GT ISZERO PUSH2 0x1B5D JUMPI PUSH2 0x1B2E DUP2 PUSH2 0x1A08 JUMP JUMPDEST PUSH2 0x1B37 DUP5 PUSH2 0x1A1A JUMP JUMPDEST DUP2 ADD PUSH1 0x20 DUP6 LT ISZERO PUSH2 0x1B46 JUMPI DUP2 SWAP1 POP JUMPDEST PUSH2 0x1B5A PUSH2 0x1B52 DUP6 PUSH2 0x1A1A JUMP JUMPDEST DUP4 ADD DUP3 PUSH2 0x1AFA JUMP JUMPDEST POP POP JUMPDEST POP POP POP JUMP JUMPDEST PUSH0 DUP3 DUP3 SHR SWAP1 POP SWAP3 SWAP2 POP POP JUMP JUMPDEST PUSH0 PUSH2 0x1B7D PUSH0 NOT DUP5 PUSH1 0x8 MUL PUSH2 0x1B62 JUMP JUMPDEST NOT DUP1 DUP4 AND SWAP2 POP POP SWAP3 SWAP2 POP POP JUMP JUMPDEST PUSH0 PUSH2 0x1B95 DUP4 DUP4 PUSH2 0x1B6E JUMP JUMPDEST SWAP2 POP DUP3 PUSH1 0x2 MUL DUP3 OR SWAP1 POP SWAP3 SWAP2 POP POP JUMP JUMPDEST PUSH2 0x1BAE DUP3 PUSH2 0x110F JUMP JUMPDEST PUSH8 0xFFFFFFFFFFFFFFFF DUP2 GT ISZERO PUSH2 0x1BC7 JUMPI PUSH2 0x1BC6 PUSH2 0x1342 JUMP JUMPDEST JUMPDEST PUSH2 0x1BD1 DUP3 SLOAD PUSH2 0x19D8 JUMP JUMPDEST PUSH2 0x1BDC DUP3 DUP3 DUP6 PUSH2 0x1B1C JUMP JUMPDEST PUSH0 PUSH1 0x20 SWAP1 POP PUSH1 0x1F DUP4 GT PUSH1 0x1 DUP2 EQ PUSH2 0x1C0D JUMPI PUSH0 DUP5 ISZERO PUSH2 0x1BFB JUMPI DUP3 DUP8 ADD MLOAD SWAP1 POP JUMPDEST PUSH2 0x1C05 DUP6 DUP3 PUSH2 0x1B8A JUMP JUMPDEST DUP7 SSTORE POP PUSH2 0x1C6C JUMP JUMPDEST PUSH1 0x1F NOT DUP5 AND PUSH2 0x1C1B DUP7 PUSH2 0x1A08 JUMP JUMPDEST PUSH0 JUMPDEST DUP3 DUP2 LT ISZERO PUSH2 0x1C42 JUMPI DUP5 DUP10 ADD MLOAD DUP3 SSTORE PUSH1 0x1 DUP3 ADD SWAP2 POP PUSH1 0x20 DUP6 ADD SWAP5 POP PUSH1 0x20 DUP2 ADD SWAP1 POP PUSH2 0x1C1D JUMP JUMPDEST DUP7 DUP4 LT ISZERO PUSH2 0x1C5F JUMPI DUP5 DUP10 ADD MLOAD PUSH2 0x1C5B PUSH1 0x1F DUP10 AND DUP3 PUSH2 0x1B6E JUMP JUMPDEST DUP4 SSTORE POP JUMPDEST PUSH1 0x1 PUSH1 0x2 DUP9 MUL ADD DUP9 SSTORE POP POP POP JUMPDEST POP POP POP POP POP POP JUMP JUMPDEST PUSH32 0x4E487B7100000000000000000000000000000000000000000000000000000000 PUSH0 MSTORE PUSH1 0x32 PUSH1 0x4 MSTORE PUSH1 0x24 PUSH0 REVERT JUMPDEST PUSH0 DUP2 SWAP1 POP SWAP3 SWAP2 POP POP JUMP JUMPDEST PUSH0 PUSH2 0x1CB5 DUP3 PUSH2 0x110F JUMP JUMPDEST PUSH2 0x1CBF DUP2 DUP6 PUSH2 0x1CA1 JUMP JUMPDEST SWAP4 POP PUSH2 0x1CCF DUP2 DUP6 PUSH1 0x20 DUP7 ADD PUSH2 0x1129 JUMP JUMPDEST DUP1 DUP5 ADD SWAP2 POP POP SWAP3 SWAP2 POP POP JUMP JUMPDEST PUSH0 PUSH2 0x1CE6 DUP3 DUP5 PUSH2 0x1CAB JUMP JUMPDEST SWAP2 POP DUP2 SWAP1 POP SWAP3 SWAP2 POP POP JUMP JUMPDEST PUSH32 0x496E646578204F7574206F6620426F756E647300000000000000000000000000 PUSH0 DUP3 ADD MSTORE POP JUMP JUMPDEST PUSH0 PUSH2 0x1D25 PUSH1 0x13 DUP4 PUSH2 0x1119 JUMP JUMPDEST SWAP2 POP PUSH2 0x1D30 DUP3 PUSH2 0x1CF1 JUMP JUMPDEST PUSH1 0x20 DUP3 ADD SWAP1 POP SWAP2 SWAP1 POP JUMP JUMPDEST PUSH0 PUSH1 0x20 DUP3 ADD SWAP1 POP DUP2 DUP2 SUB PUSH0 DUP4 ADD MSTORE PUSH2 0x1D52 DUP2 PUSH2 0x1D19 JUMP JUMPDEST SWAP1 POP SWAP2 SWAP1 POP JUMP INVALID LOG2 PUSH5 0x6970667358 0x22 SLT KECCAK256 0xF7 SWAP2 0xC5 GT 0xCE 0x2A CALLDATALOAD 0xBA PUSH17 0xFA2EC32F08FA0F1C909128C6F26322D21 0xD0 GASPRICE LT SLT DUP3 PUSH26 0x64736F6C634300081A0033000000000000000000000000000000 "
		},
		"gasEstimates": {
			"creation": {
				"codeDepositCost": "1513400",
				"executionCost": "1580",
				"totalCost": "1514980"
			},
			"external": {
				"dynamicArr(uint256)": "infinite",
				"dynamicArrayLen()": "2529",
				"fixArr(uint256)": "infinite",
				"fixArrLen()": "443",
				"getDynArr()": "infinite",
				"getEmpData(address)": "infinite",
				"getEmpSalary(string)": "infinite",
				"getFixArr()": "infinite",
				"getNestedMapData(uint256,uint256)": "infinite",
				"getStudLen()": "444",
				"getStudName()": "infinite",
				"getStudent(uint256)": "infinite",
				"myStr()": "infinite",
				"nestedMap(uint256,uint256)": "infinite",
				"printstr()": "infinite",
				"removeFrommDynArr()": "31595",
				"stud1()": "infinite",
				"updNestedMap(uint256,uint256,string,bool)": "infinite",
				"updateDynArr(uint256)": "46888",
				"updateFixArr(uint256,uint256)": "infinite",
				"updateMapping(string,uint256)": "infinite",
				"updateStr(string)": "infinite",
				"updateStructMap(address,string,string,uint256,bool)": "infinite",
				"updateStudDetails()": "infinite",
				"updateStudents(uint256,string,uint256,uint256)": "infinite"
			}
		},
		"methodIdentifiers": {
			"dynamicArr(uint256)": "2bc09df2",
			"dynamicArrayLen()": "85bc834b",
			"fixArr(uint256)": "a9484b83",
			"fixArrLen()": "88a92e35",
			"getDynArr()": "fbce5528",
			"getEmpData(address)": "828f7997",
			"getEmpSalary(string)": "76e8cca9",
			"getFixArr()": "fe2a96bb",
			"getNestedMapData(uint256,uint256)": "edd0115a",
			"getStudLen()": "41210e64",
			"getStudName()": "551b17eb",
			"getStudent(uint256)": "642f9163",
			"myStr()": "5a455c1c",
			"nestedMap(uint256,uint256)": "26fcfbcc",
			"printstr()": "8cbca72d",
			"removeFrommDynArr()": "00cfb8ea",
			"stud1()": "37272ad0",
			"updNestedMap(uint256,uint256,string,bool)": "bc7f0583",
			"updateDynArr(uint256)": "a6157ba5",
			"updateFixArr(uint256,uint256)": "5eeb16f7",
			"updateMapping(string,uint256)": "5f606662",
			"updateStr(string)": "583da1c4",
			"updateStructMap(address,string,string,uint256,bool)": "812e0750",
			"updateStudDetails()": "53c82201",
			"updateStudents(uint256,string,uint256,uint256)": "90498407"
		}
	},
	"abi": [
		{
			"inputs": [
				{
					"internalType": "uint256",
					"name": "",
					"type": "uint256"
				}
			],
			"name": "dynamicArr",
			"outputs": [
				{
					"internalType": "uint256",
					"name": "",
					"type": "uint256"
				}
			],
			"stateMutability": "view",
			"type": "function"
		},
		{
			"inputs": [],
			"name": "dynamicArrayLen",
			"outputs": [
				{
					"internalType": "uint256",
					"name": "",
					"type": "uint256"
				}
			],
			"stateMutability": "view",
			"type": "function"
		},
		{
			"inputs": [
				{
					"internalType": "uint256",
					"name": "",
					"type": "uint256"
				}
			],
			"name": "fixArr",
			"outputs": [
				{
					"internalType": "uint256",
					"name": "",
					"type": "uint256"
				}
			],
			"stateMutability": "view",
			"type": "function"
		},
		{
			"inputs": [],
			"name": "fixArrLen",
			"outputs": [
				{
					"internalType": "uint256",
					"name": "",
					"type": "uint256"
				}
			],
			"stateMutability": "view",
			"type": "function"
		},
		{
			"inputs": [],
			"name": "getDynArr",
			"outputs": [
				{
					"internalType": "uint256[]",
					"name": "",
					"type": "uint256[]"
				}
			],
			"stateMutability": "view",
			"type": "function"
		},
		{
			"inputs": [
				{
					"internalType": "address",
					"name": "_empAddress",
					"type": "address"
				}
			],
			"name": "getEmpData",
			"outputs": [
				{
					"internalType": "string",
					"name": "",
					"type": "string"
				},
				{
					"internalType": "string",
					"name": "",
					"type": "string"
				},
				{
					"internalType": "uint256",
					"name": "",
					"type": "uint256"
				},
				{
					"internalType": "bool",
					"name": "",
					"type": "bool"
				}
			],
			"stateMutability": "view",
			"type": "function"
		},
		{
			"inputs": [
				{
					"internalType": "string",
					"name": "_empName",
					"type": "string"
				}
			],
			"name": "getEmpSalary",
			"outputs": [
				{
					"internalType": "uint256",
					"name": "",
					"type": "uint256"
				}
			],
			"stateMutability": "view",
			"type": "function"
		},
		{
			"inputs": [],
			"name": "getFixArr",
			"outputs": [
				{
					"internalType": "uint256[4]",
					"name": "",
					"type": "uint256[4]"
				}
			],
			"stateMutability": "view",
			"type": "function"
		},
		{
			"inputs": [
				{
					"internalType": "uint256",
					"name": "_outerKey",
					"type": "uint256"
				},
				{
					"internalType": "uint256",
					"name": "_innerKey",
					"type": "uint256"
				}
			],
			"name": "getNestedMapData",
			"outputs": [
				{
					"internalType": "string",
					"name": "",
					"type": "string"
				},
				{
					"internalType": "bool",
					"name": "",
					"type": "bool"
				}
			],
			"stateMutability": "view",
			"type": "function"
		},
		{
			"inputs": [],
			"name": "getStudLen",
			"outputs": [
				{
					"internalType": "uint256",
					"name": "",
					"type": "uint256"
				}
			],
			"stateMutability": "view",
			"type": "function"
		},
		{
			"inputs": [],
			"name": "getStudName",
			"outputs": [
				{
					"internalType": "string",
					"name": "",
					"type": "string"
				}
			],
			"stateMutability": "view",
			"type": "function"
		},
		{
			"inputs": [
				{
					"internalType": "uint256",
					"name": "_index",
					"type": "uint256"
				}
			],
			"name": "getStudent",
			"outputs": [
				{
					"components": [
						{
							"internalType": "string",
							"name": "name",
							"type": "string"
						},
						{
							"internalType": "uint256",
							"name": "age",
							"type": "uint256"
						},
						{
							"internalType": "uint256",
							"name": "rollno",
							"type": "uint256"
						}
					],
					"internalType": "struct Demo.Student",
					"name": "",
					"type": "tuple"
				}
			],
			"stateMutability": "view",
			"type": "function"
		},
		{
			"inputs": [],
			"name": "myStr",
			"outputs": [
				{
					"internalType": "string",
					"name": "",
					"type": "string"
				}
			],
			"stateMutability": "view",
			"type": "function"
		},
		{
			"inputs": [
				{
					"internalType": "uint256",
					"name": "",
					"type": "uint256"
				},
				{
					"internalType": "uint256",
					"name": "",
					"type": "uint256"
				}
			],
			"name": "nestedMap",
			"outputs": [
				{
					"internalType": "string",
					"name": "ask",
					"type": "string"
				},
				{
					"internalType": "bool",
					"name": "chk",
					"type": "bool"
				}
			],
			"stateMutability": "view",
			"type": "function"
		},
		{
			"inputs": [],
			"name": "printstr",
			"outputs": [
				{
					"internalType": "string",
					"name": "",
					"type": "string"
				}
			],
			"stateMutability": "view",
			"type": "function"
		},
		{
			"inputs": [],
			"name": "removeFrommDynArr",
			"outputs": [],
			"stateMutability": "nonpayable",
			"type": "function"
		},
		{
			"inputs": [],
			"name": "stud1",
			"outputs": [
				{
					"internalType": "string",
					"name": "name",
					"type": "string"
				},
				{
					"internalType": "uint256",
					"name": "age",
					"type": "uint256"
				},
				{
					"internalType": "uint256",
					"name": "rollno",
					"type": "uint256"
				}
			],
			"stateMutability": "view",
			"type": "function"
		},
		{
			"inputs": [
				{
					"internalType": "uint256",
					"name": "_outerKey",
					"type": "uint256"
				},
				{
					"internalType": "uint256",
					"name": "_innerKey",
					"type": "uint256"
				},
				{
					"internalType": "string",
					"name": "_ask",
					"type": "string"
				},
				{
					"internalType": "bool",
					"name": "_chk",
					"type": "bool"
				}
			],
			"name": "updNestedMap",
			"outputs": [],
			"stateMutability": "nonpayable",
			"type": "function"
		},
		{
			"inputs": [
				{
					"internalType": "uint256",
					"name": "_value",
					"type": "uint256"
				}
			],
			"name": "updateDynArr",
			"outputs": [],
			"stateMutability": "nonpayable",
			"type": "function"
		},
		{
			"inputs": [
				{
					"internalType": "uint256",
					"name": "_index",
					"type": "uint256"
				},
				{
					"internalType": "uint256",
					"name": "_value",
					"type": "uint256"
				}
			],
			"name": "updateFixArr",
			"outputs": [],
			"stateMutability": "nonpayable",
			"type": "function"
		},
		{
			"inputs": [
				{
					"internalType": "string",
					"name": "_empName",
					"type": "string"
				},
				{
					"internalType": "uint256",
					"name": "_salary",
					"type": "uint256"
				}
			],
			"name": "updateMapping",
			"outputs": [],
			"stateMutability": "nonpayable",
			"type": "function"
		},
		{
			"inputs": [
				{
					"internalType": "string",
					"name": "_newStr",
					"type": "string"
				}
			],
			"name": "updateStr",
			"outputs": [],
			"stateMutability": "nonpayable",
			"type": "function"
		},
		{
			"inputs": [
				{
					"internalType": "address",
					"name": "_address",
					"type": "address"
				},
				{
					"internalType": "string",
					"name": "_name",
					"type": "string"
				},
				{
					"internalType": "string",
					"name": "_position",
					"type": "string"
				},
				{
					"internalType": "uint256",
					"name": "_salary",
					"type": "uint256"
				},
				{
					"internalType": "bool",
					"name": "_leftOrg",
					"type": "bool"
				}
			],
			"name": "updateStructMap",
			"outputs": [],
			"stateMutability": "nonpayable",
			"type": "function"
		},
		{
			"inputs": [],
			"name": "updateStudDetails",
			"outputs": [
				{
					"components": [
						{
							"internalType": "string",
							"name": "name",
							"type": "string"
						},
						{
							"internalType": "uint256",
							"name": "age",
							"type": "uint256"
						},
						{
							"internalType": "uint256",
							"name": "rollno",
							"type": "uint256"
						}
					],
					"internalType": "struct Demo.Student",
					"name": "",
					"type": "tuple"
				}
			],
			"stateMutability": "nonpayable",
			"type": "function"
		},
		{
			"inputs": [
				{
					"internalType": "uint256",
					"name": "_index",
					"type": "uint256"
				},
				{
					"internalType": "string",
					"name": "_name",
					"type": "string"
				},
				{
					"internalType": "uint256",
					"name": "_age",
					"type": "uint256"
				},
				{
					"internalType": "uint256",
					"name": "_rollno",
					"type": "uint256"
				}
			],
			"name": "updateStudents",
			"outputs": [],
			"stateMutability": "nonpayable",
			"type": "function"
		}
	]
}