{
	"contracts/1_Storage.sol": {
		"child": {
			"abi": [
				{
					"inputs": [],
					"name": "checkFunCall",
					"outputs": [
						{
							"internalType": "string",
							"name": "",
							"type": "string"
						}
					],
					"stateMutability": "pure",
					"type": "function"
				},
				{
					"inputs": [],
					"name": "childReturnParentFun",
					"outputs": [
						{
							"internalType": "string",
							"name": "",
							"type": "string"
						}
					],
					"stateMutability": "view",
					"type": "function"
				},
				{
					"inputs": [
						{
							"internalType": "int256",
							"name": "a",
							"type": "int256"
						}
					],
					"name": "conditions",
					"outputs": [
						{
							"internalType": "int256",
							"name": "",
							"type": "int256"
						}
					],
					"stateMutability": "pure",
					"type": "function"
				},
				{
					"inputs": [],
					"name": "f1",
					"outputs": [
						{
							"internalType": "string",
							"name": "",
							"type": "string"
						}
					],
					"stateMutability": "pure",
					"type": "function"
				},
				{
					"inputs": [],
					"name": "f4",
					"outputs": [
						{
							"internalType": "string",
							"name": "",
							"type": "string"
						}
					],
					"stateMutability": "pure",
					"type": "function"
				},
				{
					"inputs": [],
					"name": "num",
					"outputs": [
						{
							"internalType": "int256",
							"name": "",
							"type": "int256"
						}
					],
					"stateMutability": "view",
					"type": "function"
				},
				{
					"inputs": [
						{
							"internalType": "int256",
							"name": "_a",
							"type": "int256"
						}
					],
					"name": "requireCheck",
					"outputs": [
						{
							"internalType": "int256",
							"name": "",
							"type": "int256"
						}
					],
					"stateMutability": "nonpayable",
					"type": "function"
				},
				{
					"inputs": [
						{
							"internalType": "uint256",
							"name": "_inp",
							"type": "uint256"
						}
					],
					"name": "verifyInput",
					"outputs": [
						{
							"internalType": "uint256",
							"name": "",
							"type": "uint256"
						}
					],
					"stateMutability": "pure",
					"type": "function"
				}
			],
			"devdoc": {
				"kind": "dev",
				"methods": {},
				"version": 1
			},
			"evm": {
				"assembly": "    /* \"contracts/1_Storage.sol\":2524:2752  contract child is Storage { //derived child contract... */\n  mstore(0x40, 0x80)\n    /* \"contracts/1_Storage.sol\":2593:2597  f1() */\n  tag_1\n    /* \"contracts/1_Storage.sol\":2593:2595  f1 */\n  shl(0x20, tag_2)\n    /* \"contracts/1_Storage.sol\":2593:2597  f1() */\n  0x20\n  shr\n  jump\t// in\ntag_1:\n    /* \"contracts/1_Storage.sol\":2581:2597  string  x = f1() */\n  0x01\n  swap1\n  dup2\n  tag_3\n  swap2\n  swap1\n  tag_4\n  jump\t// in\ntag_3:\n  pop\n    /* \"contracts/1_Storage.sol\":2615:2619  f3() */\n  tag_5\n    /* \"contracts/1_Storage.sol\":2615:2617  f3 */\n  shl(0x20, tag_6)\n    /* \"contracts/1_Storage.sol\":2615:2619  f3() */\n  0x20\n  shr\n  jump\t// in\ntag_5:\n    /* \"contracts/1_Storage.sol\":2603:2619  string  y = f3() */\n  0x02\n  swap1\n  dup2\n  tag_7\n  swap2\n  swap1\n  tag_4\n  jump\t// in\ntag_7:\n  pop\n    /* \"contracts/1_Storage.sol\":2524:2752  contract child is Storage { //derived child contract... */\n  callvalue\n  dup1\n  iszero\n  tag_8\n  jumpi\n  0x00\n  dup1\n  revert\ntag_8:\n  pop\n  jump(tag_9)\n    /* \"contracts/1_Storage.sol\":1327:1483  function f1() public pure returns(string memory) { //can acces in-SM, derived-SM, outside-SM, outside-CODE ... */\ntag_2:\n    /* \"contracts/1_Storage.sol\":1361:1374  string memory */\n  0x60\n    /* \"contracts/1_Storage.sol\":1443:1476  return \" It is public fun-f1 -- \" */\n  mload(0x40)\n  dup1\n  0x40\n  add\n  0x40\n  mstore\n  dup1\n  0x18\n  dup2\n  mstore\n  0x20\n  add\n  0x204974206973207075626c69632066756e2d6631202d2d200000000000000000\n  dup2\n  mstore\n  pop\n  swap1\n  pop\n    /* \"contracts/1_Storage.sol\":1327:1483  function f1() public pure returns(string memory) { //can acces in-SM, derived-SM, outside-SM, outside-CODE ... */\n  swap1\n  jump\t// out\n    /* \"contracts/1_Storage.sol\":1624:1773  function f3() internal  pure returns(string memory) {// can access in-SM and its Derived(child)-SM... */\ntag_6:\n    /* \"contracts/1_Storage.sol\":1661:1674  string memory */\n  0x60\n    /* \"contracts/1_Storage.sol\":1731:1766  return \" It is internal fun-f3 -- \" */\n  mload(0x40)\n  dup1\n  0x40\n  add\n  0x40\n  mstore\n  dup1\n  0x1a\n  dup2\n  mstore\n  0x20\n  add\n  0x20497420697320696e7465726e616c2066756e2d6633202d2d20000000000000\n  dup2\n  mstore\n  pop\n  swap1\n  pop\n    /* \"contracts/1_Storage.sol\":1624:1773  function f3() internal  pure returns(string memory) {// can access in-SM and its Derived(child)-SM... */\n  swap1\n  jump\t// out\n    /* \"#utility.yul\":7:106   */\ntag_12:\n    /* \"#utility.yul\":59:65   */\n  0x00\n    /* \"#utility.yul\":93:98   */\n  dup2\n    /* \"#utility.yul\":87:99   */\n  mload\n    /* \"#utility.yul\":77:99   */\n  swap1\n  pop\n    /* \"#utility.yul\":7:106   */\n  swap2\n  swap1\n  pop\n  jump\t// out\n    /* \"#utility.yul\":112:292   */\ntag_13:\n    /* \"#utility.yul\":160:237   */\n  0x4e487b7100000000000000000000000000000000000000000000000000000000\n    /* \"#utility.yul\":157:158   */\n  0x00\n    /* \"#utility.yul\":150:238   */\n  mstore\n    /* \"#utility.yul\":257:261   */\n  0x41\n    /* \"#utility.yul\":254:255   */\n  0x04\n    /* \"#utility.yul\":247:262   */\n  mstore\n    /* \"#utility.yul\":281:285   */\n  0x24\n    /* \"#utility.yul\":278:279   */\n  0x00\n    /* \"#utility.yul\":271:286   */\n  revert\n    /* \"#utility.yul\":298:478   */\ntag_14:\n    /* \"#utility.yul\":346:423   */\n  0x4e487b7100000000000000000000000000000000000000000000000000000000\n    /* \"#utility.yul\":343:344   */\n  0x00\n    /* \"#utility.yul\":336:424   */\n  mstore\n    /* \"#utility.yul\":443:447   */\n  0x22\n    /* \"#utility.yul\":440:441   */\n  0x04\n    /* \"#utility.yul\":433:448   */\n  mstore\n    /* \"#utility.yul\":467:471   */\n  0x24\n    /* \"#utility.yul\":464:465   */\n  0x00\n    /* \"#utility.yul\":457:472   */\n  revert\n    /* \"#utility.yul\":484:804   */\ntag_15:\n    /* \"#utility.yul\":528:534   */\n  0x00\n    /* \"#utility.yul\":565:566   */\n  0x02\n    /* \"#utility.yul\":559:563   */\n  dup3\n    /* \"#utility.yul\":555:567   */\n  div\n    /* \"#utility.yul\":545:567   */\n  swap1\n  pop\n    /* \"#utility.yul\":612:613   */\n  0x01\n    /* \"#utility.yul\":606:610   */\n  dup3\n    /* \"#utility.yul\":602:614   */\n  and\n    /* \"#utility.yul\":633:651   */\n  dup1\n    /* \"#utility.yul\":623:704   */\n  tag_37\n  jumpi\n    /* \"#utility.yul\":689:693   */\n  0x7f\n    /* \"#utility.yul\":681:687   */\n  dup3\n    /* \"#utility.yul\":677:694   */\n  and\n    /* \"#utility.yul\":667:694   */\n  swap2\n  pop\n    /* \"#utility.yul\":623:704   */\ntag_37:\n    /* \"#utility.yul\":751:753   */\n  0x20\n    /* \"#utility.yul\":743:749   */\n  dup3\n    /* \"#utility.yul\":740:754   */\n  lt\n    /* \"#utility.yul\":720:738   */\n  dup2\n    /* \"#utility.yul\":717:755   */\n  sub\n    /* \"#utility.yul\":714:798   */\n  tag_38\n  jumpi\n    /* \"#utility.yul\":770:788   */\n  tag_39\n  tag_14\n  jump\t// in\ntag_39:\n    /* \"#utility.yul\":714:798   */\ntag_38:\n    /* \"#utility.yul\":535:804   */\n  pop\n    /* \"#utility.yul\":484:804   */\n  swap2\n  swap1\n  pop\n  jump\t// out\n    /* \"#utility.yul\":810:951   */\ntag_16:\n    /* \"#utility.yul\":859:863   */\n  0x00\n    /* \"#utility.yul\":882:885   */\n  dup2\n    /* \"#utility.yul\":874:885   */\n  swap1\n  pop\n    /* \"#utility.yul\":905:908   */\n  dup2\n    /* \"#utility.yul\":902:903   */\n  0x00\n    /* \"#utility.yul\":895:909   */\n  mstore\n    /* \"#utility.yul\":939:943   */\n  0x20\n    /* \"#utility.yul\":936:937   */\n  0x00\n    /* \"#utility.yul\":926:944   */\n  keccak256\n    /* \"#utility.yul\":918:944   */\n  swap1\n  pop\n    /* \"#utility.yul\":810:951   */\n  swap2\n  swap1\n  pop\n  jump\t// out\n    /* \"#utility.yul\":957:1050   */\ntag_17:\n    /* \"#utility.yul\":994:1000   */\n  0x00\n    /* \"#utility.yul\":1041:1043   */\n  0x20\n    /* \"#utility.yul\":1036:1038   */\n  0x1f\n    /* \"#utility.yul\":1029:1034   */\n  dup4\n    /* \"#utility.yul\":1025:1039   */\n  add\n    /* \"#utility.yul\":1021:1044   */\n  div\n    /* \"#utility.yul\":1011:1044   */\n  swap1\n  pop\n    /* \"#utility.yul\":957:1050   */\n  swap2\n  swap1\n  pop\n  jump\t// out\n    /* \"#utility.yul\":1056:1163   */\ntag_18:\n    /* \"#utility.yul\":1100:1108   */\n  0x00\n    /* \"#utility.yul\":1150:1155   */\n  dup3\n    /* \"#utility.yul\":1144:1148   */\n  dup3\n    /* \"#utility.yul\":1140:1156   */\n  shl\n    /* \"#utility.yul\":1119:1156   */\n  swap1\n  pop\n    /* \"#utility.yul\":1056:1163   */\n  swap3\n  swap2\n  pop\n  pop\n  jump\t// out\n    /* \"#utility.yul\":1169:1562   */\ntag_19:\n    /* \"#utility.yul\":1238:1244   */\n  0x00\n    /* \"#utility.yul\":1288:1289   */\n  0x08\n    /* \"#utility.yul\":1276:1286   */\n  dup4\n    /* \"#utility.yul\":1272:1290   */\n  mul\n    /* \"#utility.yul\":1311:1408   */\n  tag_44\n    /* \"#utility.yul\":1341:1407   */\n  0xffffffffffffffffffffffffffffffffffffffffffffffffffffffffffffffff\n    /* \"#utility.yul\":1330:1339   */\n  dup3\n    /* \"#utility.yul\":1311:1408   */\n  tag_18\n  jump\t// in\ntag_44:\n    /* \"#utility.yul\":1429:1468   */\n  tag_45\n    /* \"#utility.yul\":1459:1467   */\n  dup7\n    /* \"#utility.yul\":1448:1457   */\n  dup4\n    /* \"#utility.yul\":1429:1468   */\n  tag_18\n  jump\t// in\ntag_45:\n    /* \"#utility.yul\":1417:1468   */\n  swap6\n  pop\n    /* \"#utility.yul\":1501:1505   */\n  dup1\n    /* \"#utility.yul\":1497:1506   */\n  not\n    /* \"#utility.yul\":1490:1495   */\n  dup5\n    /* \"#utility.yul\":1486:1507   */\n  and\n    /* \"#utility.yul\":1477:1507   */\n  swap4\n  pop\n    /* \"#utility.yul\":1550:1554   */\n  dup1\n    /* \"#utility.yul\":1540:1548   */\n  dup7\n    /* \"#utility.yul\":1536:1555   */\n  and\n    /* \"#utility.yul\":1529:1534   */\n  dup5\n    /* \"#utility.yul\":1526:1556   */\n  or\n    /* \"#utility.yul\":1516:1556   */\n  swap3\n  pop\n    /* \"#utility.yul\":1245:1562   */\n  pop\n  pop\n    /* \"#utility.yul\":1169:1562   */\n  swap4\n  swap3\n  pop\n  pop\n  pop\n  jump\t// out\n    /* \"#utility.yul\":1568:1645   */\ntag_20:\n    /* \"#utility.yul\":1605:1612   */\n  0x00\n    /* \"#utility.yul\":1634:1639   */\n  dup2\n    /* \"#utility.yul\":1623:1639   */\n  swap1\n  pop\n    /* \"#utility.yul\":1568:1645   */\n  swap2\n  swap1\n  pop\n  jump\t// out\n    /* \"#utility.yul\":1651:1711   */\ntag_21:\n    /* \"#utility.yul\":1679:1682   */\n  0x00\n    /* \"#utility.yul\":1700:1705   */\n  dup2\n    /* \"#utility.yul\":1693:1705   */\n  swap1\n  pop\n    /* \"#utility.yul\":1651:1711   */\n  swap2\n  swap1\n  pop\n  jump\t// out\n    /* \"#utility.yul\":1717:1859   */\ntag_22:\n    /* \"#utility.yul\":1767:1776   */\n  0x00\n    /* \"#utility.yul\":1800:1853   */\n  tag_49\n    /* \"#utility.yul\":1818:1852   */\n  tag_50\n    /* \"#utility.yul\":1827:1851   */\n  tag_51\n    /* \"#utility.yul\":1845:1850   */\n  dup5\n    /* \"#utility.yul\":1827:1851   */\n  tag_20\n  jump\t// in\ntag_51:\n    /* \"#utility.yul\":1818:1852   */\n  tag_21\n  jump\t// in\ntag_50:\n    /* \"#utility.yul\":1800:1853   */\n  tag_20\n  jump\t// in\ntag_49:\n    /* \"#utility.yul\":1787:1853   */\n  swap1\n  pop\n    /* \"#utility.yul\":1717:1859   */\n  swap2\n  swap1\n  pop\n  jump\t// out\n    /* \"#utility.yul\":1865:1940   */\ntag_23:\n    /* \"#utility.yul\":1908:1911   */\n  0x00\n    /* \"#utility.yul\":1929:1934   */\n  dup2\n    /* \"#utility.yul\":1922:1934   */\n  swap1\n  pop\n    /* \"#utility.yul\":1865:1940   */\n  swap2\n  swap1\n  pop\n  jump\t// out\n    /* \"#utility.yul\":1946:2215   */\ntag_24:\n    /* \"#utility.yul\":2056:2095   */\n  tag_54\n    /* \"#utility.yul\":2087:2094   */\n  dup4\n    /* \"#utility.yul\":2056:2095   */\n  tag_22\n  jump\t// in\ntag_54:\n    /* \"#utility.yul\":2117:2208   */\n  tag_55\n    /* \"#utility.yul\":2166:2207   */\n  tag_56\n    /* \"#utility.yul\":2190:2206   */\n  dup3\n    /* \"#utility.yul\":2166:2207   */\n  tag_23\n  jump\t// in\ntag_56:\n    /* \"#utility.yul\":2158:2164   */\n  dup5\n    /* \"#utility.yul\":2151:2155   */\n  dup5\n    /* \"#utility.yul\":2145:2156   */\n  sload\n    /* \"#utility.yul\":2117:2208   */\n  tag_19\n  jump\t// in\ntag_55:\n    /* \"#utility.yul\":2111:2115   */\n  dup3\n    /* \"#utility.yul\":2104:2209   */\n  sstore\n    /* \"#utility.yul\":2022:2215   */\n  pop\n    /* \"#utility.yul\":1946:2215   */\n  pop\n  pop\n  pop\n  jump\t// out\n    /* \"#utility.yul\":2221:2294   */\ntag_25:\n    /* \"#utility.yul\":2266:2269   */\n  0x00\n    /* \"#utility.yul\":2221:2294   */\n  swap1\n  jump\t// out\n    /* \"#utility.yul\":2300:2489   */\ntag_26:\n    /* \"#utility.yul\":2377:2409   */\n  tag_59\n  tag_25\n  jump\t// in\ntag_59:\n    /* \"#utility.yul\":2418:2483   */\n  tag_60\n    /* \"#utility.yul\":2476:2482   */\n  dup2\n    /* \"#utility.yul\":2468:2474   */\n  dup5\n    /* \"#utility.yul\":2462:2466   */\n  dup5\n    /* \"#utility.yul\":2418:2483   */\n  tag_24\n  jump\t// in\ntag_60:\n    /* \"#utility.yul\":2353:2489   */\n  pop\n    /* \"#utility.yul\":2300:2489   */\n  pop\n  pop\n  jump\t// out\n    /* \"#utility.yul\":2495:2681   */\ntag_27:\n    /* \"#utility.yul\":2555:2675   */\ntag_62:\n    /* \"#utility.yul\":2572:2575   */\n  dup2\n    /* \"#utility.yul\":2565:2570   */\n  dup2\n    /* \"#utility.yul\":2562:2576   */\n  lt\n    /* \"#utility.yul\":2555:2675   */\n  iszero\n  tag_64\n  jumpi\n    /* \"#utility.yul\":2626:2665   */\n  tag_65\n    /* \"#utility.yul\":2663:2664   */\n  0x00\n    /* \"#utility.yul\":2656:2661   */\n  dup3\n    /* \"#utility.yul\":2626:2665   */\n  tag_26\n  jump\t// in\ntag_65:\n    /* \"#utility.yul\":2599:2600   */\n  0x01\n    /* \"#utility.yul\":2592:2597   */\n  dup2\n    /* \"#utility.yul\":2588:2601   */\n  add\n    /* \"#utility.yul\":2579:2601   */\n  swap1\n  pop\n    /* \"#utility.yul\":2555:2675   */\n  jump(tag_62)\ntag_64:\n    /* \"#utility.yul\":2495:2681   */\n  pop\n  pop\n  jump\t// out\n    /* \"#utility.yul\":2687:3230   */\ntag_28:\n    /* \"#utility.yul\":2788:2790   */\n  0x1f\n    /* \"#utility.yul\":2783:2786   */\n  dup3\n    /* \"#utility.yul\":2780:2791   */\n  gt\n    /* \"#utility.yul\":2777:3223   */\n  iszero\n  tag_67\n  jumpi\n    /* \"#utility.yul\":2822:2860   */\n  tag_68\n    /* \"#utility.yul\":2854:2859   */\n  dup2\n    /* \"#utility.yul\":2822:2860   */\n  tag_16\n  jump\t// in\ntag_68:\n    /* \"#utility.yul\":2906:2935   */\n  tag_69\n    /* \"#utility.yul\":2924:2934   */\n  dup5\n    /* \"#utility.yul\":2906:2935   */\n  tag_17\n  jump\t// in\ntag_69:\n    /* \"#utility.yul\":2896:2904   */\n  dup2\n    /* \"#utility.yul\":2892:2936   */\n  add\n    /* \"#utility.yul\":3089:3091   */\n  0x20\n    /* \"#utility.yul\":3077:3087   */\n  dup6\n    /* \"#utility.yul\":3074:3092   */\n  lt\n    /* \"#utility.yul\":3071:3120   */\n  iszero\n  tag_70\n  jumpi\n    /* \"#utility.yul\":3110:3118   */\n  dup2\n    /* \"#utility.yul\":3095:3118   */\n  swap1\n  pop\n    /* \"#utility.yul\":3071:3120   */\ntag_70:\n    /* \"#utility.yul\":3133:3213   */\n  tag_71\n    /* \"#utility.yul\":3189:3211   */\n  tag_72\n    /* \"#utility.yul\":3207:3210   */\n  dup6\n    /* \"#utility.yul\":3189:3211   */\n  tag_17\n  jump\t// in\ntag_72:\n    /* \"#utility.yul\":3179:3187   */\n  dup4\n    /* \"#utility.yul\":3175:3212   */\n  add\n    /* \"#utility.yul\":3162:3173   */\n  dup3\n    /* \"#utility.yul\":3133:3213   */\n  tag_27\n  jump\t// in\ntag_71:\n    /* \"#utility.yul\":2792:3223   */\n  pop\n  pop\n    /* \"#utility.yul\":2777:3223   */\ntag_67:\n    /* \"#utility.yul\":2687:3230   */\n  pop\n  pop\n  pop\n  jump\t// out\n    /* \"#utility.yul\":3236:3353   */\ntag_29:\n    /* \"#utility.yul\":3290:3298   */\n  0x00\n    /* \"#utility.yul\":3340:3345   */\n  dup3\n    /* \"#utility.yul\":3334:3338   */\n  dup3\n    /* \"#utility.yul\":3330:3346   */\n  shr\n    /* \"#utility.yul\":3309:3346   */\n  swap1\n  pop\n    /* \"#utility.yul\":3236:3353   */\n  swap3\n  swap2\n  pop\n  pop\n  jump\t// out\n    /* \"#utility.yul\":3359:3528   */\ntag_30:\n    /* \"#utility.yul\":3403:3409   */\n  0x00\n    /* \"#utility.yul\":3436:3487   */\n  tag_75\n    /* \"#utility.yul\":3484:3485   */\n  0x00\n    /* \"#utility.yul\":3480:3486   */\n  not\n    /* \"#utility.yul\":3472:3477   */\n  dup5\n    /* \"#utility.yul\":3469:3470   */\n  0x08\n    /* \"#utility.yul\":3465:3478   */\n  mul\n    /* \"#utility.yul\":3436:3487   */\n  tag_29\n  jump\t// in\ntag_75:\n    /* \"#utility.yul\":3432:3488   */\n  not\n    /* \"#utility.yul\":3517:3521   */\n  dup1\n    /* \"#utility.yul\":3511:3515   */\n  dup4\n    /* \"#utility.yul\":3507:3522   */\n  and\n    /* \"#utility.yul\":3497:3522   */\n  swap2\n  pop\n    /* \"#utility.yul\":3410:3528   */\n  pop\n    /* \"#utility.yul\":3359:3528   */\n  swap3\n  swap2\n  pop\n  pop\n  jump\t// out\n    /* \"#utility.yul\":3533:3828   */\ntag_31:\n    /* \"#utility.yul\":3609:3613   */\n  0x00\n    /* \"#utility.yul\":3755:3784   */\n  tag_77\n    /* \"#utility.yul\":3780:3783   */\n  dup4\n    /* \"#utility.yul\":3774:3778   */\n  dup4\n    /* \"#utility.yul\":3755:3784   */\n  tag_30\n  jump\t// in\ntag_77:\n    /* \"#utility.yul\":3747:3784   */\n  swap2\n  pop\n    /* \"#utility.yul\":3817:3820   */\n  dup3\n    /* \"#utility.yul\":3814:3815   */\n  0x02\n    /* \"#utility.yul\":3810:3821   */\n  mul\n    /* \"#utility.yul\":3804:3808   */\n  dup3\n    /* \"#utility.yul\":3801:3822   */\n  or\n    /* \"#utility.yul\":3793:3822   */\n  swap1\n  pop\n    /* \"#utility.yul\":3533:3828   */\n  swap3\n  swap2\n  pop\n  pop\n  jump\t// out\n    /* \"#utility.yul\":3833:5228   */\ntag_4:\n    /* \"#utility.yul\":3950:3987   */\n  tag_79\n    /* \"#utility.yul\":3983:3986   */\n  dup3\n    /* \"#utility.yul\":3950:3987   */\n  tag_12\n  jump\t// in\ntag_79:\n    /* \"#utility.yul\":4052:4070   */\n  0xffffffffffffffff\n    /* \"#utility.yul\":4044:4050   */\n  dup2\n    /* \"#utility.yul\":4041:4071   */\n  gt\n    /* \"#utility.yul\":4038:4094   */\n  iszero\n  tag_80\n  jumpi\n    /* \"#utility.yul\":4074:4092   */\n  tag_81\n  tag_13\n  jump\t// in\ntag_81:\n    /* \"#utility.yul\":4038:4094   */\ntag_80:\n    /* \"#utility.yul\":4118:4156   */\n  tag_82\n    /* \"#utility.yul\":4150:4154   */\n  dup3\n    /* \"#utility.yul\":4144:4155   */\n  sload\n    /* \"#utility.yul\":4118:4156   */\n  tag_15\n  jump\t// in\ntag_82:\n    /* \"#utility.yul\":4203:4270   */\n  tag_83\n    /* \"#utility.yul\":4263:4269   */\n  dup3\n    /* \"#utility.yul\":4255:4261   */\n  dup3\n    /* \"#utility.yul\":4249:4253   */\n  dup6\n    /* \"#utility.yul\":4203:4270   */\n  tag_28\n  jump\t// in\ntag_83:\n    /* \"#utility.yul\":4297:4298   */\n  0x00\n    /* \"#utility.yul\":4321:4325   */\n  0x20\n    /* \"#utility.yul\":4308:4325   */\n  swap1\n  pop\n    /* \"#utility.yul\":4353:4355   */\n  0x1f\n    /* \"#utility.yul\":4345:4351   */\n  dup4\n    /* \"#utility.yul\":4342:4356   */\n  gt\n    /* \"#utility.yul\":4370:4371   */\n  0x01\n    /* \"#utility.yul\":4365:4983   */\n  dup2\n  eq\n  tag_85\n  jumpi\n    /* \"#utility.yul\":5027:5028   */\n  0x00\n    /* \"#utility.yul\":5044:5050   */\n  dup5\n    /* \"#utility.yul\":5041:5118   */\n  iszero\n  tag_86\n  jumpi\n    /* \"#utility.yul\":5093:5102   */\n  dup3\n    /* \"#utility.yul\":5088:5091   */\n  dup8\n    /* \"#utility.yul\":5084:5103   */\n  add\n    /* \"#utility.yul\":5078:5104   */\n  mload\n    /* \"#utility.yul\":5069:5104   */\n  swap1\n  pop\n    /* \"#utility.yul\":5041:5118   */\ntag_86:\n    /* \"#utility.yul\":5144:5211   */\n  tag_87\n    /* \"#utility.yul\":5204:5210   */\n  dup6\n    /* \"#utility.yul\":5197:5202   */\n  dup3\n    /* \"#utility.yul\":5144:5211   */\n  tag_31\n  jump\t// in\ntag_87:\n    /* \"#utility.yul\":5138:5142   */\n  dup7\n    /* \"#utility.yul\":5131:5212   */\n  sstore\n    /* \"#utility.yul\":5000:5222   */\n  pop\n    /* \"#utility.yul\":4335:5222   */\n  jump(tag_84)\n    /* \"#utility.yul\":4365:4983   */\ntag_85:\n    /* \"#utility.yul\":4417:4421   */\n  0x1f\n    /* \"#utility.yul\":4413:4422   */\n  not\n    /* \"#utility.yul\":4405:4411   */\n  dup5\n    /* \"#utility.yul\":4401:4423   */\n  and\n    /* \"#utility.yul\":4451:4488   */\n  tag_88\n    /* \"#utility.yul\":4483:4487   */\n  dup7\n    /* \"#utility.yul\":4451:4488   */\n  tag_16\n  jump\t// in\ntag_88:\n    /* \"#utility.yul\":4510:4511   */\n  0x00\n    /* \"#utility.yul\":4524:4732   */\ntag_89:\n    /* \"#utility.yul\":4538:4545   */\n  dup3\n    /* \"#utility.yul\":4535:4536   */\n  dup2\n    /* \"#utility.yul\":4532:4546   */\n  lt\n    /* \"#utility.yul\":4524:4732   */\n  iszero\n  tag_91\n  jumpi\n    /* \"#utility.yul\":4617:4626   */\n  dup5\n    /* \"#utility.yul\":4612:4615   */\n  dup10\n    /* \"#utility.yul\":4608:4627   */\n  add\n    /* \"#utility.yul\":4602:4628   */\n  mload\n    /* \"#utility.yul\":4594:4600   */\n  dup3\n    /* \"#utility.yul\":4587:4629   */\n  sstore\n    /* \"#utility.yul\":4668:4669   */\n  0x01\n    /* \"#utility.yul\":4660:4666   */\n  dup3\n    /* \"#utility.yul\":4656:4670   */\n  add\n    /* \"#utility.yul\":4646:4670   */\n  swap2\n  pop\n    /* \"#utility.yul\":4715:4717   */\n  0x20\n    /* \"#utility.yul\":4704:4713   */\n  dup6\n    /* \"#utility.yul\":4700:4718   */\n  add\n    /* \"#utility.yul\":4687:4718   */\n  swap5\n  pop\n    /* \"#utility.yul\":4561:4565   */\n  0x20\n    /* \"#utility.yul\":4558:4559   */\n  dup2\n    /* \"#utility.yul\":4554:4566   */\n  add\n    /* \"#utility.yul\":4549:4566   */\n  swap1\n  pop\n    /* \"#utility.yul\":4524:4732   */\n  jump(tag_89)\ntag_91:\n    /* \"#utility.yul\":4760:4766   */\n  dup7\n    /* \"#utility.yul\":4751:4758   */\n  dup4\n    /* \"#utility.yul\":4748:4767   */\n  lt\n    /* \"#utility.yul\":4745:4924   */\n  iszero\n  tag_92\n  jumpi\n    /* \"#utility.yul\":4818:4827   */\n  dup5\n    /* \"#utility.yul\":4813:4816   */\n  dup10\n    /* \"#utility.yul\":4809:4828   */\n  add\n    /* \"#utility.yul\":4803:4829   */\n  mload\n    /* \"#utility.yul\":4861:4909   */\n  tag_93\n    /* \"#utility.yul\":4903:4907   */\n  0x1f\n    /* \"#utility.yul\":4895:4901   */\n  dup10\n    /* \"#utility.yul\":4891:4908   */\n  and\n    /* \"#utility.yul\":4880:4889   */\n  dup3\n    /* \"#utility.yul\":4861:4909   */\n  tag_30\n  jump\t// in\ntag_93:\n    /* \"#utility.yul\":4853:4859   */\n  dup4\n    /* \"#utility.yul\":4846:4910   */\n  sstore\n    /* \"#utility.yul\":4768:4924   */\n  pop\n    /* \"#utility.yul\":4745:4924   */\ntag_92:\n    /* \"#utility.yul\":4970:4971   */\n  0x01\n    /* \"#utility.yul\":4966:4967   */\n  0x02\n    /* \"#utility.yul\":4958:4964   */\n  dup9\n    /* \"#utility.yul\":4954:4968   */\n  mul\n    /* \"#utility.yul\":4950:4972   */\n  add\n    /* \"#utility.yul\":4944:4948   */\n  dup9\n    /* \"#utility.yul\":4937:4973   */\n  sstore\n    /* \"#utility.yul\":4372:4983   */\n  pop\n  pop\n  pop\n    /* \"#utility.yul\":4335:5222   */\ntag_84:\n  pop\n    /* \"#utility.yul\":3925:5228   */\n  pop\n  pop\n  pop\n    /* \"#utility.yul\":3833:5228   */\n  pop\n  pop\n  jump\t// out\n    /* \"contracts/1_Storage.sol\":2524:2752  contract child is Storage { //derived child contract... */\ntag_9:\n  dataSize(sub_0)\n  dup1\n  dataOffset(sub_0)\n  0x00\n  codecopy\n  0x00\n  return\nstop\n\nsub_0: assembly {\n        /* \"contracts/1_Storage.sol\":2524:2752  contract child is Storage { //derived child contract... */\n      mstore(0x40, 0x80)\n      callvalue\n      dup1\n      iszero\n      tag_1\n      jumpi\n      0x00\n      dup1\n      revert\n    tag_1:\n      pop\n      jumpi(tag_2, lt(calldatasize, 0x04))\n      shr(0xe0, calldataload(0x00))\n      dup1\n      0xb6c66f3b\n      gt\n      tag_11\n      jumpi\n      dup1\n      0xb6c66f3b\n      eq\n      tag_7\n      jumpi\n      dup1\n      0xb9498172\n      eq\n      tag_8\n      jumpi\n      dup1\n      0xc27fc305\n      eq\n      tag_9\n      jumpi\n      dup1\n      0xc3f90202\n      eq\n      tag_10\n      jumpi\n      jump(tag_2)\n    tag_11:\n      dup1\n      0x04f04595\n      eq\n      tag_3\n      jumpi\n      dup1\n      0x39c54e53\n      eq\n      tag_4\n      jumpi\n      dup1\n      0x4e70b1dc\n      eq\n      tag_5\n      jumpi\n      dup1\n      0x7076e062\n      eq\n      tag_6\n      jumpi\n    tag_2:\n      0x00\n      dup1\n      revert\n        /* \"contracts/1_Storage.sol\":520:874  function requireCheck(int _a) public returns (int256) {//'view' not-req, since writing st-var=num=_a;... */\n    tag_3:\n      tag_12\n      0x04\n      dup1\n      calldatasize\n      sub\n      dup2\n      add\n      swap1\n      tag_13\n      swap2\n      swap1\n      tag_14\n      jump\t// in\n    tag_13:\n      tag_15\n      jump\t// in\n    tag_12:\n      mload(0x40)\n      tag_16\n      swap2\n      swap1\n      tag_17\n      jump\t// in\n    tag_16:\n      mload(0x40)\n      dup1\n      swap2\n      sub\n      swap1\n      return\n        /* \"contracts/1_Storage.sol\":248:445  function conditions(int a) public pure returns (int) {... */\n    tag_4:\n      tag_18\n      0x04\n      dup1\n      calldatasize\n      sub\n      dup2\n      add\n      swap1\n      tag_19\n      swap2\n      swap1\n      tag_14\n      jump\t// in\n    tag_19:\n      tag_20\n      jump\t// in\n    tag_18:\n      mload(0x40)\n      tag_21\n      swap2\n      swap1\n      tag_17\n      jump\t// in\n    tag_21:\n      mload(0x40)\n      dup1\n      swap2\n      sub\n      swap1\n      return\n        /* \"contracts/1_Storage.sol\":477:494  int256 public num */\n    tag_5:\n      tag_22\n      tag_23\n      jump\t// in\n    tag_22:\n      mload(0x40)\n      tag_24\n      swap2\n      swap1\n      tag_17\n      jump\t// in\n    tag_24:\n      mload(0x40)\n      dup1\n      swap2\n      sub\n      swap1\n      return\n        /* \"contracts/1_Storage.sol\":1925:2342  function checkFunCall() public pure returns(string memory) {... */\n    tag_6:\n      tag_25\n      tag_26\n      jump\t// in\n    tag_25:\n      mload(0x40)\n      tag_27\n      swap2\n      swap1\n      tag_28\n      jump\t// in\n    tag_27:\n      mload(0x40)\n      dup1\n      swap2\n      sub\n      swap1\n      return\n        /* \"contracts/1_Storage.sol\":2630:2750  function childReturnParentFun() public view returns(string memory){... */\n    tag_7:\n      tag_29\n      tag_30\n      jump\t// in\n    tag_29:\n      mload(0x40)\n      tag_31\n      swap2\n      swap1\n      tag_28\n      jump\t// in\n    tag_31:\n      mload(0x40)\n      dup1\n      swap2\n      sub\n      swap1\n      return\n        /* \"contracts/1_Storage.sol\":1161:1283  function verifyInput(uint _inp) public valueInRange(_inp, 25, 250) pure returns(uint256) {... */\n    tag_8:\n      tag_32\n      0x04\n      dup1\n      calldatasize\n      sub\n      dup2\n      add\n      swap1\n      tag_33\n      swap2\n      swap1\n      tag_34\n      jump\t// in\n    tag_33:\n      tag_35\n      jump\t// in\n    tag_32:\n      mload(0x40)\n      tag_36\n      swap2\n      swap1\n      tag_37\n      jump\t// in\n    tag_36:\n      mload(0x40)\n      dup1\n      swap2\n      sub\n      swap1\n      return\n        /* \"contracts/1_Storage.sol\":1327:1483  function f1() public pure returns(string memory) { //can acces in-SM, derived-SM, outside-SM, outside-CODE ... */\n    tag_9:\n      tag_38\n      tag_39\n      jump\t// in\n    tag_38:\n      mload(0x40)\n      tag_40\n      swap2\n      swap1\n      tag_28\n      jump\t// in\n    tag_40:\n      mload(0x40)\n      dup1\n      swap2\n      sub\n      swap1\n      return\n        /* \"contracts/1_Storage.sol\":1778:1919  function f4() external pure returns(string memory) {//can access only outside-Codse -world... */\n    tag_10:\n      tag_41\n      tag_42\n      jump\t// in\n    tag_41:\n      mload(0x40)\n      tag_43\n      swap2\n      swap1\n      tag_28\n      jump\t// in\n    tag_43:\n      mload(0x40)\n      dup1\n      swap2\n      sub\n      swap1\n      return\n        /* \"contracts/1_Storage.sol\":520:874  function requireCheck(int _a) public returns (int256) {//'view' not-req, since writing st-var=num=_a;... */\n    tag_15:\n        /* \"contracts/1_Storage.sol\":566:572  int256 */\n      0x00\n        /* \"contracts/1_Storage.sol\":641:642  0 */\n      dup1\n        /* \"contracts/1_Storage.sol\":638:640  _a */\n      dup3\n        /* \"contracts/1_Storage.sol\":638:642  _a>0 */\n      sgt\n        /* \"contracts/1_Storage.sol\":630:682  require(_a>0, \"This is a -ve and Transact not done\") */\n      tag_45\n      jumpi\n      mload(0x40)\n      0x08c379a000000000000000000000000000000000000000000000000000000000\n      dup2\n      mstore\n      0x04\n      add\n      tag_46\n      swap1\n      tag_47\n      jump\t// in\n    tag_46:\n      mload(0x40)\n      dup1\n      swap2\n      sub\n      swap1\n      revert\n    tag_45:\n        /* \"contracts/1_Storage.sol\":845:847  _a */\n      dup2\n        /* \"contracts/1_Storage.sol\":839:842  num */\n      0x00\n        /* \"contracts/1_Storage.sol\":839:847  num = _a */\n      dup2\n      swap1\n      sstore\n      pop\n        /* \"contracts/1_Storage.sol\":864:867  num */\n      sload(0x00)\n        /* \"contracts/1_Storage.sol\":857:867  return num */\n      swap1\n      pop\n        /* \"contracts/1_Storage.sol\":520:874  function requireCheck(int _a) public returns (int256) {//'view' not-req, since writing st-var=num=_a;... */\n      swap2\n      swap1\n      pop\n      jump\t// out\n        /* \"contracts/1_Storage.sol\":248:445  function conditions(int a) public pure returns (int) {... */\n    tag_20:\n        /* \"contracts/1_Storage.sol\":296:299  int */\n      0x00\n        /* \"contracts/1_Storage.sol\":316:317  0 */\n      dup1\n        /* \"contracts/1_Storage.sol\":314:315  a */\n      dup3\n        /* \"contracts/1_Storage.sol\":314:317  a>0 */\n      sgt\n        /* \"contracts/1_Storage.sol\":311:439  if(a>0) {... */\n      iszero\n      tag_49\n      jumpi\n        /* \"contracts/1_Storage.sol\":340:341  0 */\n      0x00\n        /* \"contracts/1_Storage.sol\":333:341  return 0 */\n      swap1\n      pop\n      jump(tag_48)\n        /* \"contracts/1_Storage.sol\":311:439  if(a>0) {... */\n    tag_49:\n        /* \"contracts/1_Storage.sol\":363:364  0 */\n      0x00\n        /* \"contracts/1_Storage.sol\":361:362  a */\n      dup3\n        /* \"contracts/1_Storage.sol\":361:364  a<0 */\n      slt\n        /* \"contracts/1_Storage.sol\":358:439  if(a<0) {... */\n      iszero\n      tag_51\n      jumpi\n        /* \"contracts/1_Storage.sol\":387:389  -1 */\n      0xffffffffffffffffffffffffffffffffffffffffffffffffffffffffffffffff\n        /* \"contracts/1_Storage.sol\":380:389  return -1 */\n      swap1\n      pop\n      jump(tag_48)\n        /* \"contracts/1_Storage.sol\":358:439  if(a<0) {... */\n    tag_51:\n        /* \"contracts/1_Storage.sol\":427:428  1 */\n      0x01\n        /* \"contracts/1_Storage.sol\":420:428  return 1 */\n      swap1\n      pop\n        /* \"contracts/1_Storage.sol\":248:445  function conditions(int a) public pure returns (int) {... */\n    tag_48:\n      swap2\n      swap1\n      pop\n      jump\t// out\n        /* \"contracts/1_Storage.sol\":477:494  int256 public num */\n    tag_23:\n      sload(0x00)\n      dup2\n      jump\t// out\n        /* \"contracts/1_Storage.sol\":1925:2342  function checkFunCall() public pure returns(string memory) {... */\n    tag_26:\n        /* \"contracts/1_Storage.sol\":1969:1982  string memory */\n      0x60\n        /* \"contracts/1_Storage.sol\":1994:2014  string memory result */\n      dup1\n        /* \"contracts/1_Storage.sol\":2024:2042  string memory fun1 */\n      0x00\n        /* \"contracts/1_Storage.sol\":2044:2048  f1() */\n      tag_54\n        /* \"contracts/1_Storage.sol\":2044:2046  f1 */\n      tag_39\n        /* \"contracts/1_Storage.sol\":2044:2048  f1() */\n      jump\t// in\n    tag_54:\n        /* \"contracts/1_Storage.sol\":2024:2048  string memory fun1= f1() */\n      swap1\n      pop\n        /* \"contracts/1_Storage.sol\":2058:2076  string memory fun2 */\n      0x00\n        /* \"contracts/1_Storage.sol\":2078:2082  f2() */\n      tag_55\n        /* \"contracts/1_Storage.sol\":2078:2080  f2 */\n      tag_56\n        /* \"contracts/1_Storage.sol\":2078:2082  f2() */\n      jump\t// in\n    tag_55:\n        /* \"contracts/1_Storage.sol\":2058:2082  string memory fun2= f2() */\n      swap1\n      pop\n        /* \"contracts/1_Storage.sol\":2092:2110  string memory fun3 */\n      0x00\n        /* \"contracts/1_Storage.sol\":2112:2116  f3() */\n      tag_57\n        /* \"contracts/1_Storage.sol\":2112:2114  f3 */\n      tag_58\n        /* \"contracts/1_Storage.sol\":2112:2116  f3() */\n      jump\t// in\n    tag_57:\n        /* \"contracts/1_Storage.sol\":2092:2116  string memory fun3= f3() */\n      swap1\n      pop\n        /* \"contracts/1_Storage.sol\":2256:2260  fun1 */\n      dup3\n        /* \"contracts/1_Storage.sol\":2262:2266  fun2 */\n      dup3\n        /* \"contracts/1_Storage.sol\":2268:2272  fun3 */\n      dup3\n        /* \"contracts/1_Storage.sol\":2239:2273  abi.encodePacked(fun1, fun2, fun3) */\n      add(0x20, mload(0x40))\n      tag_59\n      swap4\n      swap3\n      swap2\n      swap1\n      tag_60\n      jump\t// in\n    tag_59:\n      mload(0x40)\n      0x20\n      dup2\n      dup4\n      sub\n      sub\n      dup2\n      mstore\n      swap1\n      0x40\n      mstore\n        /* \"contracts/1_Storage.sol\":2223:2274  result = string(abi.encodePacked(fun1, fun2, fun3)) */\n      swap4\n      pop\n        /* \"contracts/1_Storage.sol\":2329:2335  result */\n      dup4\n        /* \"contracts/1_Storage.sol\":2322:2335  return result */\n      swap5\n      pop\n      pop\n      pop\n      pop\n      pop\n        /* \"contracts/1_Storage.sol\":1925:2342  function checkFunCall() public pure returns(string memory) {... */\n      swap1\n      jump\t// out\n        /* \"contracts/1_Storage.sol\":2630:2750  function childReturnParentFun() public view returns(string memory){... */\n    tag_30:\n        /* \"contracts/1_Storage.sol\":2682:2695  string memory */\n      0x60\n        /* \"contracts/1_Storage.sol\":2737:2738  x */\n      0x01\n        /* \"contracts/1_Storage.sol\":2740:2741  y */\n      0x02\n        /* \"contracts/1_Storage.sol\":2720:2742  abi.encodePacked(x, y) */\n      add(0x20, mload(0x40))\n      tag_62\n      swap3\n      swap2\n      swap1\n      tag_63\n      jump\t// in\n    tag_62:\n      mload(0x40)\n      0x20\n      dup2\n      dup4\n      sub\n      sub\n      dup2\n      mstore\n      swap1\n      0x40\n      mstore\n        /* \"contracts/1_Storage.sol\":2706:2743  return string(abi.encodePacked(x, y)) */\n      swap1\n      pop\n        /* \"contracts/1_Storage.sol\":2630:2750  function childReturnParentFun() public view returns(string memory){... */\n      swap1\n      jump\t// out\n        /* \"contracts/1_Storage.sol\":1161:1283  function verifyInput(uint _inp) public valueInRange(_inp, 25, 250) pure returns(uint256) {... */\n    tag_35:\n        /* \"contracts/1_Storage.sol\":1241:1248  uint256 */\n      0x00\n        /* \"contracts/1_Storage.sol\":1213:1217  _inp */\n      dup2\n        /* \"contracts/1_Storage.sol\":1219:1221  25 */\n      0x19\n        /* \"contracts/1_Storage.sol\":1223:1226  250 */\n      0xfa\n        /* \"contracts/1_Storage.sol\":985:991  _value */\n      dup3\n        /* \"contracts/1_Storage.sol\":980:984  _min */\n      dup3\n        /* \"contracts/1_Storage.sol\":980:991  _min<_value */\n      lt\n        /* \"contracts/1_Storage.sol\":980:1006  _min<_value && _value<_max */\n      dup1\n      iszero\n      tag_65\n      jumpi\n      pop\n        /* \"contracts/1_Storage.sol\":1002:1006  _max */\n      dup1\n        /* \"contracts/1_Storage.sol\":995:1001  _value */\n      dup4\n        /* \"contracts/1_Storage.sol\":995:1006  _value<_max */\n      lt\n        /* \"contracts/1_Storage.sol\":980:1006  _min<_value && _value<_max */\n    tag_65:\n        /* \"contracts/1_Storage.sol\":972:1044  require(_min<_value && _value<_max, \"The entered value is Out of Range\") */\n      tag_66\n      jumpi\n      mload(0x40)\n      0x08c379a000000000000000000000000000000000000000000000000000000000\n      dup2\n      mstore\n      0x04\n      add\n      tag_67\n      swap1\n      tag_68\n      jump\t// in\n    tag_67:\n      mload(0x40)\n      dup1\n      swap2\n      sub\n      swap1\n      revert\n    tag_66:\n        /* \"contracts/1_Storage.sol\":1272:1276  _inp */\n      dup5\n        /* \"contracts/1_Storage.sol\":1267:1271  _inp */\n      dup6\n        /* \"contracts/1_Storage.sol\":1267:1276  _inp*_inp */\n      tag_70\n      swap2\n      swap1\n      tag_71\n      jump\t// in\n    tag_70:\n        /* \"contracts/1_Storage.sol\":1260:1276  return _inp*_inp */\n      swap4\n      pop\n        /* \"contracts/1_Storage.sol\":1161:1283  function verifyInput(uint _inp) public valueInRange(_inp, 25, 250) pure returns(uint256) {... */\n      pop\n      pop\n      pop\n      swap2\n      swap1\n      pop\n      jump\t// out\n        /* \"contracts/1_Storage.sol\":1327:1483  function f1() public pure returns(string memory) { //can acces in-SM, derived-SM, outside-SM, outside-CODE ... */\n    tag_39:\n        /* \"contracts/1_Storage.sol\":1361:1374  string memory */\n      0x60\n        /* \"contracts/1_Storage.sol\":1443:1476  return \" It is public fun-f1 -- \" */\n      mload(0x40)\n      dup1\n      0x40\n      add\n      0x40\n      mstore\n      dup1\n      0x18\n      dup2\n      mstore\n      0x20\n      add\n      0x204974206973207075626c69632066756e2d6631202d2d200000000000000000\n      dup2\n      mstore\n      pop\n      swap1\n      pop\n        /* \"contracts/1_Storage.sol\":1327:1483  function f1() public pure returns(string memory) { //can acces in-SM, derived-SM, outside-SM, outside-CODE ... */\n      swap1\n      jump\t// out\n        /* \"contracts/1_Storage.sol\":1778:1919  function f4() external pure returns(string memory) {//can access only outside-Codse -world... */\n    tag_42:\n        /* \"contracts/1_Storage.sol\":1814:1827  string memory */\n      0x60\n        /* \"contracts/1_Storage.sol\":1877:1912  return \" It is external fun-f4 -- \" */\n      mload(0x40)\n      dup1\n      0x40\n      add\n      0x40\n      mstore\n      dup1\n      0x1a\n      dup2\n      mstore\n      0x20\n      add\n      0x2049742069732065787465726e616c2066756e2d6634202d2d20000000000000\n      dup2\n      mstore\n      pop\n      swap1\n      pop\n        /* \"contracts/1_Storage.sol\":1778:1919  function f4() external pure returns(string memory) {//can access only outside-Codse -world... */\n      swap1\n      jump\t// out\n        /* \"contracts/1_Storage.sol\":1488:1619  function f2() private pure returns(string memory) { //can access onluy inside SM... */\n    tag_56:\n        /* \"contracts/1_Storage.sol\":1523:1536  string memory */\n      0x60\n        /* \"contracts/1_Storage.sol\":1577:1611  return \" It is private fun-f2 -- \" */\n      mload(0x40)\n      dup1\n      0x40\n      add\n      0x40\n      mstore\n      dup1\n      0x19\n      dup2\n      mstore\n      0x20\n      add\n      0x20497420697320707269766174652066756e2d6632202d2d2000000000000000\n      dup2\n      mstore\n      pop\n      swap1\n      pop\n        /* \"contracts/1_Storage.sol\":1488:1619  function f2() private pure returns(string memory) { //can access onluy inside SM... */\n      swap1\n      jump\t// out\n        /* \"contracts/1_Storage.sol\":1624:1773  function f3() internal  pure returns(string memory) {// can access in-SM and its Derived(child)-SM... */\n    tag_58:\n        /* \"contracts/1_Storage.sol\":1661:1674  string memory */\n      0x60\n        /* \"contracts/1_Storage.sol\":1731:1766  return \" It is internal fun-f3 -- \" */\n      mload(0x40)\n      dup1\n      0x40\n      add\n      0x40\n      mstore\n      dup1\n      0x1a\n      dup2\n      mstore\n      0x20\n      add\n      0x20497420697320696e7465726e616c2066756e2d6633202d2d20000000000000\n      dup2\n      mstore\n      pop\n      swap1\n      pop\n        /* \"contracts/1_Storage.sol\":1624:1773  function f3() internal  pure returns(string memory) {// can access in-SM and its Derived(child)-SM... */\n      swap1\n      jump\t// out\n        /* \"#utility.yul\":88:205   */\n    tag_77:\n        /* \"#utility.yul\":197:198   */\n      0x00\n        /* \"#utility.yul\":194:195   */\n      dup1\n        /* \"#utility.yul\":187:199   */\n      revert\n        /* \"#utility.yul\":334:410   */\n    tag_79:\n        /* \"#utility.yul\":370:377   */\n      0x00\n        /* \"#utility.yul\":399:404   */\n      dup2\n        /* \"#utility.yul\":388:404   */\n      swap1\n      pop\n        /* \"#utility.yul\":334:410   */\n      swap2\n      swap1\n      pop\n      jump\t// out\n        /* \"#utility.yul\":416:536   */\n    tag_80:\n        /* \"#utility.yul\":488:511   */\n      tag_109\n        /* \"#utility.yul\":505:510   */\n      dup2\n        /* \"#utility.yul\":488:511   */\n      tag_79\n      jump\t// in\n    tag_109:\n        /* \"#utility.yul\":481:486   */\n      dup2\n        /* \"#utility.yul\":478:512   */\n      eq\n        /* \"#utility.yul\":468:530   */\n      tag_110\n      jumpi\n        /* \"#utility.yul\":526:527   */\n      0x00\n        /* \"#utility.yul\":523:524   */\n      dup1\n        /* \"#utility.yul\":516:528   */\n      revert\n        /* \"#utility.yul\":468:530   */\n    tag_110:\n        /* \"#utility.yul\":416:536   */\n      pop\n      jump\t// out\n        /* \"#utility.yul\":542:679   */\n    tag_81:\n        /* \"#utility.yul\":587:592   */\n      0x00\n        /* \"#utility.yul\":625:631   */\n      dup2\n        /* \"#utility.yul\":612:632   */\n      calldataload\n        /* \"#utility.yul\":603:632   */\n      swap1\n      pop\n        /* \"#utility.yul\":641:673   */\n      tag_112\n        /* \"#utility.yul\":667:672   */\n      dup2\n        /* \"#utility.yul\":641:673   */\n      tag_80\n      jump\t// in\n    tag_112:\n        /* \"#utility.yul\":542:679   */\n      swap3\n      swap2\n      pop\n      pop\n      jump\t// out\n        /* \"#utility.yul\":685:1012   */\n    tag_14:\n        /* \"#utility.yul\":743:749   */\n      0x00\n        /* \"#utility.yul\":792:794   */\n      0x20\n        /* \"#utility.yul\":780:789   */\n      dup3\n        /* \"#utility.yul\":771:778   */\n      dup5\n        /* \"#utility.yul\":767:790   */\n      sub\n        /* \"#utility.yul\":763:795   */\n      slt\n        /* \"#utility.yul\":760:879   */\n      iszero\n      tag_114\n      jumpi\n        /* \"#utility.yul\":798:877   */\n      tag_115\n      tag_77\n      jump\t// in\n    tag_115:\n        /* \"#utility.yul\":760:879   */\n    tag_114:\n        /* \"#utility.yul\":918:919   */\n      0x00\n        /* \"#utility.yul\":943:995   */\n      tag_116\n        /* \"#utility.yul\":987:994   */\n      dup5\n        /* \"#utility.yul\":978:984   */\n      dup3\n        /* \"#utility.yul\":967:976   */\n      dup6\n        /* \"#utility.yul\":963:985   */\n      add\n        /* \"#utility.yul\":943:995   */\n      tag_81\n      jump\t// in\n    tag_116:\n        /* \"#utility.yul\":933:995   */\n      swap2\n      pop\n        /* \"#utility.yul\":889:1005   */\n      pop\n        /* \"#utility.yul\":685:1012   */\n      swap3\n      swap2\n      pop\n      pop\n      jump\t// out\n        /* \"#utility.yul\":1018:1133   */\n    tag_82:\n        /* \"#utility.yul\":1103:1126   */\n      tag_118\n        /* \"#utility.yul\":1120:1125   */\n      dup2\n        /* \"#utility.yul\":1103:1126   */\n      tag_79\n      jump\t// in\n    tag_118:\n        /* \"#utility.yul\":1098:1101   */\n      dup3\n        /* \"#utility.yul\":1091:1127   */\n      mstore\n        /* \"#utility.yul\":1018:1133   */\n      pop\n      pop\n      jump\t// out\n        /* \"#utility.yul\":1139:1357   */\n    tag_17:\n        /* \"#utility.yul\":1230:1234   */\n      0x00\n        /* \"#utility.yul\":1268:1270   */\n      0x20\n        /* \"#utility.yul\":1257:1266   */\n      dup3\n        /* \"#utility.yul\":1253:1271   */\n      add\n        /* \"#utility.yul\":1245:1271   */\n      swap1\n      pop\n        /* \"#utility.yul\":1281:1350   */\n      tag_120\n        /* \"#utility.yul\":1347:1348   */\n      0x00\n        /* \"#utility.yul\":1336:1345   */\n      dup4\n        /* \"#utility.yul\":1332:1349   */\n      add\n        /* \"#utility.yul\":1323:1329   */\n      dup5\n        /* \"#utility.yul\":1281:1350   */\n      tag_82\n      jump\t// in\n    tag_120:\n        /* \"#utility.yul\":1139:1357   */\n      swap3\n      swap2\n      pop\n      pop\n      jump\t// out\n        /* \"#utility.yul\":1363:1462   */\n    tag_83:\n        /* \"#utility.yul\":1415:1421   */\n      0x00\n        /* \"#utility.yul\":1449:1454   */\n      dup2\n        /* \"#utility.yul\":1443:1455   */\n      mload\n        /* \"#utility.yul\":1433:1455   */\n      swap1\n      pop\n        /* \"#utility.yul\":1363:1462   */\n      swap2\n      swap1\n      pop\n      jump\t// out\n        /* \"#utility.yul\":1468:1637   */\n    tag_84:\n        /* \"#utility.yul\":1552:1563   */\n      0x00\n        /* \"#utility.yul\":1586:1592   */\n      dup3\n        /* \"#utility.yul\":1581:1584   */\n      dup3\n        /* \"#utility.yul\":1574:1593   */\n      mstore\n        /* \"#utility.yul\":1626:1630   */\n      0x20\n        /* \"#utility.yul\":1621:1624   */\n      dup3\n        /* \"#utility.yul\":1617:1631   */\n      add\n        /* \"#utility.yul\":1602:1631   */\n      swap1\n      pop\n        /* \"#utility.yul\":1468:1637   */\n      swap3\n      swap2\n      pop\n      pop\n      jump\t// out\n        /* \"#utility.yul\":1643:1782   */\n    tag_85:\n        /* \"#utility.yul\":1732:1738   */\n      dup3\n        /* \"#utility.yul\":1727:1730   */\n      dup2\n        /* \"#utility.yul\":1722:1725   */\n      dup4\n        /* \"#utility.yul\":1716:1739   */\n      mcopy\n        /* \"#utility.yul\":1773:1774   */\n      0x00\n        /* \"#utility.yul\":1764:1770   */\n      dup4\n        /* \"#utility.yul\":1759:1762   */\n      dup4\n        /* \"#utility.yul\":1755:1771   */\n      add\n        /* \"#utility.yul\":1748:1775   */\n      mstore\n        /* \"#utility.yul\":1643:1782   */\n      pop\n      pop\n      pop\n      jump\t// out\n        /* \"#utility.yul\":1788:1890   */\n    tag_86:\n        /* \"#utility.yul\":1829:1835   */\n      0x00\n        /* \"#utility.yul\":1880:1882   */\n      0x1f\n        /* \"#utility.yul\":1876:1883   */\n      not\n        /* \"#utility.yul\":1871:1873   */\n      0x1f\n        /* \"#utility.yul\":1864:1869   */\n      dup4\n        /* \"#utility.yul\":1860:1874   */\n      add\n        /* \"#utility.yul\":1856:1884   */\n      and\n        /* \"#utility.yul\":1846:1884   */\n      swap1\n      pop\n        /* \"#utility.yul\":1788:1890   */\n      swap2\n      swap1\n      pop\n      jump\t// out\n        /* \"#utility.yul\":1896:2273   */\n    tag_87:\n        /* \"#utility.yul\":1984:1987   */\n      0x00\n        /* \"#utility.yul\":2012:2051   */\n      tag_126\n        /* \"#utility.yul\":2045:2050   */\n      dup3\n        /* \"#utility.yul\":2012:2051   */\n      tag_83\n      jump\t// in\n    tag_126:\n        /* \"#utility.yul\":2067:2138   */\n      tag_127\n        /* \"#utility.yul\":2131:2137   */\n      dup2\n        /* \"#utility.yul\":2126:2129   */\n      dup6\n        /* \"#utility.yul\":2067:2138   */\n      tag_84\n      jump\t// in\n    tag_127:\n        /* \"#utility.yul\":2060:2138   */\n      swap4\n      pop\n        /* \"#utility.yul\":2147:2212   */\n      tag_128\n        /* \"#utility.yul\":2205:2211   */\n      dup2\n        /* \"#utility.yul\":2200:2203   */\n      dup6\n        /* \"#utility.yul\":2193:2197   */\n      0x20\n        /* \"#utility.yul\":2186:2191   */\n      dup7\n        /* \"#utility.yul\":2182:2198   */\n      add\n        /* \"#utility.yul\":2147:2212   */\n      tag_85\n      jump\t// in\n    tag_128:\n        /* \"#utility.yul\":2237:2266   */\n      tag_129\n        /* \"#utility.yul\":2259:2265   */\n      dup2\n        /* \"#utility.yul\":2237:2266   */\n      tag_86\n      jump\t// in\n    tag_129:\n        /* \"#utility.yul\":2232:2235   */\n      dup5\n        /* \"#utility.yul\":2228:2267   */\n      add\n        /* \"#utility.yul\":2221:2267   */\n      swap2\n      pop\n        /* \"#utility.yul\":1988:2273   */\n      pop\n        /* \"#utility.yul\":1896:2273   */\n      swap3\n      swap2\n      pop\n      pop\n      jump\t// out\n        /* \"#utility.yul\":2279:2592   */\n    tag_28:\n        /* \"#utility.yul\":2392:2396   */\n      0x00\n        /* \"#utility.yul\":2430:2432   */\n      0x20\n        /* \"#utility.yul\":2419:2428   */\n      dup3\n        /* \"#utility.yul\":2415:2433   */\n      add\n        /* \"#utility.yul\":2407:2433   */\n      swap1\n      pop\n        /* \"#utility.yul\":2479:2488   */\n      dup2\n        /* \"#utility.yul\":2473:2477   */\n      dup2\n        /* \"#utility.yul\":2469:2489   */\n      sub\n        /* \"#utility.yul\":2465:2466   */\n      0x00\n        /* \"#utility.yul\":2454:2463   */\n      dup4\n        /* \"#utility.yul\":2450:2467   */\n      add\n        /* \"#utility.yul\":2443:2490   */\n      mstore\n        /* \"#utility.yul\":2507:2585   */\n      tag_131\n        /* \"#utility.yul\":2580:2584   */\n      dup2\n        /* \"#utility.yul\":2571:2577   */\n      dup5\n        /* \"#utility.yul\":2507:2585   */\n      tag_87\n      jump\t// in\n    tag_131:\n        /* \"#utility.yul\":2499:2585   */\n      swap1\n      pop\n        /* \"#utility.yul\":2279:2592   */\n      swap3\n      swap2\n      pop\n      pop\n      jump\t// out\n        /* \"#utility.yul\":2598:2675   */\n    tag_88:\n        /* \"#utility.yul\":2635:2642   */\n      0x00\n        /* \"#utility.yul\":2664:2669   */\n      dup2\n        /* \"#utility.yul\":2653:2669   */\n      swap1\n      pop\n        /* \"#utility.yul\":2598:2675   */\n      swap2\n      swap1\n      pop\n      jump\t// out\n        /* \"#utility.yul\":2681:2803   */\n    tag_89:\n        /* \"#utility.yul\":2754:2778   */\n      tag_134\n        /* \"#utility.yul\":2772:2777   */\n      dup2\n        /* \"#utility.yul\":2754:2778   */\n      tag_88\n      jump\t// in\n    tag_134:\n        /* \"#utility.yul\":2747:2752   */\n      dup2\n        /* \"#utility.yul\":2744:2779   */\n      eq\n        /* \"#utility.yul\":2734:2797   */\n      tag_135\n      jumpi\n        /* \"#utility.yul\":2793:2794   */\n      0x00\n        /* \"#utility.yul\":2790:2791   */\n      dup1\n        /* \"#utility.yul\":2783:2795   */\n      revert\n        /* \"#utility.yul\":2734:2797   */\n    tag_135:\n        /* \"#utility.yul\":2681:2803   */\n      pop\n      jump\t// out\n        /* \"#utility.yul\":2809:2948   */\n    tag_90:\n        /* \"#utility.yul\":2855:2860   */\n      0x00\n        /* \"#utility.yul\":2893:2899   */\n      dup2\n        /* \"#utility.yul\":2880:2900   */\n      calldataload\n        /* \"#utility.yul\":2871:2900   */\n      swap1\n      pop\n        /* \"#utility.yul\":2909:2942   */\n      tag_137\n        /* \"#utility.yul\":2936:2941   */\n      dup2\n        /* \"#utility.yul\":2909:2942   */\n      tag_89\n      jump\t// in\n    tag_137:\n        /* \"#utility.yul\":2809:2948   */\n      swap3\n      swap2\n      pop\n      pop\n      jump\t// out\n        /* \"#utility.yul\":2954:3283   */\n    tag_34:\n        /* \"#utility.yul\":3013:3019   */\n      0x00\n        /* \"#utility.yul\":3062:3064   */\n      0x20\n        /* \"#utility.yul\":3050:3059   */\n      dup3\n        /* \"#utility.yul\":3041:3048   */\n      dup5\n        /* \"#utility.yul\":3037:3060   */\n      sub\n        /* \"#utility.yul\":3033:3065   */\n      slt\n        /* \"#utility.yul\":3030:3149   */\n      iszero\n      tag_139\n      jumpi\n        /* \"#utility.yul\":3068:3147   */\n      tag_140\n      tag_77\n      jump\t// in\n    tag_140:\n        /* \"#utility.yul\":3030:3149   */\n    tag_139:\n        /* \"#utility.yul\":3188:3189   */\n      0x00\n        /* \"#utility.yul\":3213:3266   */\n      tag_141\n        /* \"#utility.yul\":3258:3265   */\n      dup5\n        /* \"#utility.yul\":3249:3255   */\n      dup3\n        /* \"#utility.yul\":3238:3247   */\n      dup6\n        /* \"#utility.yul\":3234:3256   */\n      add\n        /* \"#utility.yul\":3213:3266   */\n      tag_90\n      jump\t// in\n    tag_141:\n        /* \"#utility.yul\":3203:3266   */\n      swap2\n      pop\n        /* \"#utility.yul\":3159:3276   */\n      pop\n        /* \"#utility.yul\":2954:3283   */\n      swap3\n      swap2\n      pop\n      pop\n      jump\t// out\n        /* \"#utility.yul\":3289:3407   */\n    tag_91:\n        /* \"#utility.yul\":3376:3400   */\n      tag_143\n        /* \"#utility.yul\":3394:3399   */\n      dup2\n        /* \"#utility.yul\":3376:3400   */\n      tag_88\n      jump\t// in\n    tag_143:\n        /* \"#utility.yul\":3371:3374   */\n      dup3\n        /* \"#utility.yul\":3364:3401   */\n      mstore\n        /* \"#utility.yul\":3289:3407   */\n      pop\n      pop\n      jump\t// out\n        /* \"#utility.yul\":3413:3635   */\n    tag_37:\n        /* \"#utility.yul\":3506:3510   */\n      0x00\n        /* \"#utility.yul\":3544:3546   */\n      0x20\n        /* \"#utility.yul\":3533:3542   */\n      dup3\n        /* \"#utility.yul\":3529:3547   */\n      add\n        /* \"#utility.yul\":3521:3547   */\n      swap1\n      pop\n        /* \"#utility.yul\":3557:3628   */\n      tag_145\n        /* \"#utility.yul\":3625:3626   */\n      0x00\n        /* \"#utility.yul\":3614:3623   */\n      dup4\n        /* \"#utility.yul\":3610:3627   */\n      add\n        /* \"#utility.yul\":3601:3607   */\n      dup5\n        /* \"#utility.yul\":3557:3628   */\n      tag_91\n      jump\t// in\n    tag_145:\n        /* \"#utility.yul\":3413:3635   */\n      swap3\n      swap2\n      pop\n      pop\n      jump\t// out\n        /* \"#utility.yul\":3641:3863   */\n    tag_92:\n        /* \"#utility.yul\":3781:3815   */\n      0x546869732069732061202d766520616e64205472616e73616374206e6f742064\n        /* \"#utility.yul\":3777:3778   */\n      0x00\n        /* \"#utility.yul\":3769:3775   */\n      dup3\n        /* \"#utility.yul\":3765:3779   */\n      add\n        /* \"#utility.yul\":3758:3816   */\n      mstore\n        /* \"#utility.yul\":3850:3855   */\n      0x6f6e650000000000000000000000000000000000000000000000000000000000\n        /* \"#utility.yul\":3845:3847   */\n      0x20\n        /* \"#utility.yul\":3837:3843   */\n      dup3\n        /* \"#utility.yul\":3833:3848   */\n      add\n        /* \"#utility.yul\":3826:3856   */\n      mstore\n        /* \"#utility.yul\":3641:3863   */\n      pop\n      jump\t// out\n        /* \"#utility.yul\":3869:4235   */\n    tag_93:\n        /* \"#utility.yul\":4011:4014   */\n      0x00\n        /* \"#utility.yul\":4032:4099   */\n      tag_148\n        /* \"#utility.yul\":4096:4098   */\n      0x23\n        /* \"#utility.yul\":4091:4094   */\n      dup4\n        /* \"#utility.yul\":4032:4099   */\n      tag_84\n      jump\t// in\n    tag_148:\n        /* \"#utility.yul\":4025:4099   */\n      swap2\n      pop\n        /* \"#utility.yul\":4108:4201   */\n      tag_149\n        /* \"#utility.yul\":4197:4200   */\n      dup3\n        /* \"#utility.yul\":4108:4201   */\n      tag_92\n      jump\t// in\n    tag_149:\n        /* \"#utility.yul\":4226:4228   */\n      0x40\n        /* \"#utility.yul\":4221:4224   */\n      dup3\n        /* \"#utility.yul\":4217:4229   */\n      add\n        /* \"#utility.yul\":4210:4229   */\n      swap1\n      pop\n        /* \"#utility.yul\":3869:4235   */\n      swap2\n      swap1\n      pop\n      jump\t// out\n        /* \"#utility.yul\":4241:4660   */\n    tag_47:\n        /* \"#utility.yul\":4407:4411   */\n      0x00\n        /* \"#utility.yul\":4445:4447   */\n      0x20\n        /* \"#utility.yul\":4434:4443   */\n      dup3\n        /* \"#utility.yul\":4430:4448   */\n      add\n        /* \"#utility.yul\":4422:4448   */\n      swap1\n      pop\n        /* \"#utility.yul\":4494:4503   */\n      dup2\n        /* \"#utility.yul\":4488:4492   */\n      dup2\n        /* \"#utility.yul\":4484:4504   */\n      sub\n        /* \"#utility.yul\":4480:4481   */\n      0x00\n        /* \"#utility.yul\":4469:4478   */\n      dup4\n        /* \"#utility.yul\":4465:4482   */\n      add\n        /* \"#utility.yul\":4458:4505   */\n      mstore\n        /* \"#utility.yul\":4522:4653   */\n      tag_151\n        /* \"#utility.yul\":4648:4652   */\n      dup2\n        /* \"#utility.yul\":4522:4653   */\n      tag_93\n      jump\t// in\n    tag_151:\n        /* \"#utility.yul\":4514:4653   */\n      swap1\n      pop\n        /* \"#utility.yul\":4241:4660   */\n      swap2\n      swap1\n      pop\n      jump\t// out\n        /* \"#utility.yul\":4666:4814   */\n    tag_94:\n        /* \"#utility.yul\":4768:4779   */\n      0x00\n        /* \"#utility.yul\":4805:4808   */\n      dup2\n        /* \"#utility.yul\":4790:4808   */\n      swap1\n      pop\n        /* \"#utility.yul\":4666:4814   */\n      swap3\n      swap2\n      pop\n      pop\n      jump\t// out\n        /* \"#utility.yul\":4820:5210   */\n    tag_95:\n        /* \"#utility.yul\":4926:4929   */\n      0x00\n        /* \"#utility.yul\":4954:4993   */\n      tag_154\n        /* \"#utility.yul\":4987:4992   */\n      dup3\n        /* \"#utility.yul\":4954:4993   */\n      tag_83\n      jump\t// in\n    tag_154:\n        /* \"#utility.yul\":5009:5098   */\n      tag_155\n        /* \"#utility.yul\":5091:5097   */\n      dup2\n        /* \"#utility.yul\":5086:5089   */\n      dup6\n        /* \"#utility.yul\":5009:5098   */\n      tag_94\n      jump\t// in\n    tag_155:\n        /* \"#utility.yul\":5002:5098   */\n      swap4\n      pop\n        /* \"#utility.yul\":5107:5172   */\n      tag_156\n        /* \"#utility.yul\":5165:5171   */\n      dup2\n        /* \"#utility.yul\":5160:5163   */\n      dup6\n        /* \"#utility.yul\":5153:5157   */\n      0x20\n        /* \"#utility.yul\":5146:5151   */\n      dup7\n        /* \"#utility.yul\":5142:5158   */\n      add\n        /* \"#utility.yul\":5107:5172   */\n      tag_85\n      jump\t// in\n    tag_156:\n        /* \"#utility.yul\":5197:5203   */\n      dup1\n        /* \"#utility.yul\":5192:5195   */\n      dup5\n        /* \"#utility.yul\":5188:5204   */\n      add\n        /* \"#utility.yul\":5181:5204   */\n      swap2\n      pop\n        /* \"#utility.yul\":4930:5210   */\n      pop\n        /* \"#utility.yul\":4820:5210   */\n      swap3\n      swap2\n      pop\n      pop\n      jump\t// out\n        /* \"#utility.yul\":5216:5811   */\n    tag_60:\n        /* \"#utility.yul\":5444:5447   */\n      0x00\n        /* \"#utility.yul\":5466:5561   */\n      tag_158\n        /* \"#utility.yul\":5557:5560   */\n      dup3\n        /* \"#utility.yul\":5548:5554   */\n      dup7\n        /* \"#utility.yul\":5466:5561   */\n      tag_95\n      jump\t// in\n    tag_158:\n        /* \"#utility.yul\":5459:5561   */\n      swap2\n      pop\n        /* \"#utility.yul\":5578:5673   */\n      tag_159\n        /* \"#utility.yul\":5669:5672   */\n      dup3\n        /* \"#utility.yul\":5660:5666   */\n      dup6\n        /* \"#utility.yul\":5578:5673   */\n      tag_95\n      jump\t// in\n    tag_159:\n        /* \"#utility.yul\":5571:5673   */\n      swap2\n      pop\n        /* \"#utility.yul\":5690:5785   */\n      tag_160\n        /* \"#utility.yul\":5781:5784   */\n      dup3\n        /* \"#utility.yul\":5772:5778   */\n      dup5\n        /* \"#utility.yul\":5690:5785   */\n      tag_95\n      jump\t// in\n    tag_160:\n        /* \"#utility.yul\":5683:5785   */\n      swap2\n      pop\n        /* \"#utility.yul\":5802:5805   */\n      dup2\n        /* \"#utility.yul\":5795:5805   */\n      swap1\n      pop\n        /* \"#utility.yul\":5216:5811   */\n      swap5\n      swap4\n      pop\n      pop\n      pop\n      pop\n      jump\t// out\n        /* \"#utility.yul\":5817:5997   */\n    tag_96:\n        /* \"#utility.yul\":5865:5942   */\n      0x4e487b7100000000000000000000000000000000000000000000000000000000\n        /* \"#utility.yul\":5862:5863   */\n      0x00\n        /* \"#utility.yul\":5855:5943   */\n      mstore\n        /* \"#utility.yul\":5962:5966   */\n      0x22\n        /* \"#utility.yul\":5959:5960   */\n      0x04\n        /* \"#utility.yul\":5952:5967   */\n      mstore\n        /* \"#utility.yul\":5986:5990   */\n      0x24\n        /* \"#utility.yul\":5983:5984   */\n      0x00\n        /* \"#utility.yul\":5976:5991   */\n      revert\n        /* \"#utility.yul\":6003:6323   */\n    tag_97:\n        /* \"#utility.yul\":6047:6053   */\n      0x00\n        /* \"#utility.yul\":6084:6085   */\n      0x02\n        /* \"#utility.yul\":6078:6082   */\n      dup3\n        /* \"#utility.yul\":6074:6086   */\n      div\n        /* \"#utility.yul\":6064:6086   */\n      swap1\n      pop\n        /* \"#utility.yul\":6131:6132   */\n      0x01\n        /* \"#utility.yul\":6125:6129   */\n      dup3\n        /* \"#utility.yul\":6121:6133   */\n      and\n        /* \"#utility.yul\":6152:6170   */\n      dup1\n        /* \"#utility.yul\":6142:6223   */\n      tag_163\n      jumpi\n        /* \"#utility.yul\":6208:6212   */\n      0x7f\n        /* \"#utility.yul\":6200:6206   */\n      dup3\n        /* \"#utility.yul\":6196:6213   */\n      and\n        /* \"#utility.yul\":6186:6213   */\n      swap2\n      pop\n        /* \"#utility.yul\":6142:6223   */\n    tag_163:\n        /* \"#utility.yul\":6270:6272   */\n      0x20\n        /* \"#utility.yul\":6262:6268   */\n      dup3\n        /* \"#utility.yul\":6259:6273   */\n      lt\n        /* \"#utility.yul\":6239:6257   */\n      dup2\n        /* \"#utility.yul\":6236:6274   */\n      sub\n        /* \"#utility.yul\":6233:6317   */\n      tag_164\n      jumpi\n        /* \"#utility.yul\":6289:6307   */\n      tag_165\n      tag_96\n      jump\t// in\n    tag_165:\n        /* \"#utility.yul\":6233:6317   */\n    tag_164:\n        /* \"#utility.yul\":6054:6323   */\n      pop\n        /* \"#utility.yul\":6003:6323   */\n      swap2\n      swap1\n      pop\n      jump\t// out\n        /* \"#utility.yul\":6329:6470   */\n    tag_98:\n        /* \"#utility.yul\":6378:6382   */\n      0x00\n        /* \"#utility.yul\":6401:6404   */\n      dup2\n        /* \"#utility.yul\":6393:6404   */\n      swap1\n      pop\n        /* \"#utility.yul\":6424:6427   */\n      dup2\n        /* \"#utility.yul\":6421:6422   */\n      0x00\n        /* \"#utility.yul\":6414:6428   */\n      mstore\n        /* \"#utility.yul\":6458:6462   */\n      0x20\n        /* \"#utility.yul\":6455:6456   */\n      0x00\n        /* \"#utility.yul\":6445:6463   */\n      keccak256\n        /* \"#utility.yul\":6437:6463   */\n      swap1\n      pop\n        /* \"#utility.yul\":6329:6470   */\n      swap2\n      swap1\n      pop\n      jump\t// out\n        /* \"#utility.yul\":6500:7374   */\n    tag_99:\n        /* \"#utility.yul\":6603:6606   */\n      0x00\n        /* \"#utility.yul\":6640:6645   */\n      dup2\n        /* \"#utility.yul\":6634:6646   */\n      sload\n        /* \"#utility.yul\":6669:6705   */\n      tag_168\n        /* \"#utility.yul\":6695:6704   */\n      dup2\n        /* \"#utility.yul\":6669:6705   */\n      tag_97\n      jump\t// in\n    tag_168:\n        /* \"#utility.yul\":6721:6810   */\n      tag_169\n        /* \"#utility.yul\":6803:6809   */\n      dup2\n        /* \"#utility.yul\":6798:6801   */\n      dup7\n        /* \"#utility.yul\":6721:6810   */\n      tag_94\n      jump\t// in\n    tag_169:\n        /* \"#utility.yul\":6714:6810   */\n      swap5\n      pop\n        /* \"#utility.yul\":6841:6842   */\n      0x01\n        /* \"#utility.yul\":6830:6839   */\n      dup3\n        /* \"#utility.yul\":6826:6843   */\n      and\n        /* \"#utility.yul\":6857:6858   */\n      0x00\n        /* \"#utility.yul\":6852:7018   */\n      dup2\n      eq\n      tag_171\n      jumpi\n        /* \"#utility.yul\":7032:7033   */\n      0x01\n        /* \"#utility.yul\":7027:7368   */\n      dup2\n      eq\n      tag_172\n      jumpi\n        /* \"#utility.yul\":6819:7368   */\n      jump(tag_170)\n        /* \"#utility.yul\":6852:7018   */\n    tag_171:\n        /* \"#utility.yul\":6936:6940   */\n      0xff\n        /* \"#utility.yul\":6932:6941   */\n      not\n        /* \"#utility.yul\":6921:6930   */\n      dup4\n        /* \"#utility.yul\":6917:6942   */\n      and\n        /* \"#utility.yul\":6912:6915   */\n      dup7\n        /* \"#utility.yul\":6905:6943   */\n      mstore\n        /* \"#utility.yul\":6998:7004   */\n      dup2\n        /* \"#utility.yul\":6991:7005   */\n      iszero\n        /* \"#utility.yul\":6984:7006   */\n      iszero\n        /* \"#utility.yul\":6976:6982   */\n      dup3\n        /* \"#utility.yul\":6972:7007   */\n      mul\n        /* \"#utility.yul\":6967:6970   */\n      dup7\n        /* \"#utility.yul\":6963:7008   */\n      add\n        /* \"#utility.yul\":6956:7008   */\n      swap4\n      pop\n        /* \"#utility.yul\":6852:7018   */\n      jump(tag_170)\n        /* \"#utility.yul\":7027:7368   */\n    tag_172:\n        /* \"#utility.yul\":7094:7132   */\n      tag_173\n        /* \"#utility.yul\":7126:7131   */\n      dup6\n        /* \"#utility.yul\":7094:7132   */\n      tag_98\n      jump\t// in\n    tag_173:\n        /* \"#utility.yul\":7154:7155   */\n      0x00\n        /* \"#utility.yul\":7168:7322   */\n    tag_174:\n        /* \"#utility.yul\":7182:7188   */\n      dup4\n        /* \"#utility.yul\":7179:7180   */\n      dup2\n        /* \"#utility.yul\":7176:7189   */\n      lt\n        /* \"#utility.yul\":7168:7322   */\n      iszero\n      tag_176\n      jumpi\n        /* \"#utility.yul\":7256:7263   */\n      dup2\n        /* \"#utility.yul\":7250:7264   */\n      sload\n        /* \"#utility.yul\":7246:7247   */\n      dup2\n        /* \"#utility.yul\":7241:7244   */\n      dup10\n        /* \"#utility.yul\":7237:7248   */\n      add\n        /* \"#utility.yul\":7230:7265   */\n      mstore\n        /* \"#utility.yul\":7306:7307   */\n      0x01\n        /* \"#utility.yul\":7297:7304   */\n      dup3\n        /* \"#utility.yul\":7293:7308   */\n      add\n        /* \"#utility.yul\":7282:7308   */\n      swap2\n      pop\n        /* \"#utility.yul\":7204:7208   */\n      0x20\n        /* \"#utility.yul\":7201:7202   */\n      dup2\n        /* \"#utility.yul\":7197:7209   */\n      add\n        /* \"#utility.yul\":7192:7209   */\n      swap1\n      pop\n        /* \"#utility.yul\":7168:7322   */\n      jump(tag_174)\n    tag_176:\n        /* \"#utility.yul\":7351:7357   */\n      dup4\n        /* \"#utility.yul\":7346:7349   */\n      dup9\n        /* \"#utility.yul\":7342:7358   */\n      add\n        /* \"#utility.yul\":7335:7358   */\n      swap6\n      pop\n        /* \"#utility.yul\":7034:7368   */\n      pop\n      pop\n        /* \"#utility.yul\":6819:7368   */\n    tag_170:\n      pop\n        /* \"#utility.yul\":6607:7374   */\n      pop\n      pop\n        /* \"#utility.yul\":6500:7374   */\n      swap3\n      swap2\n      pop\n      pop\n      jump\t// out\n        /* \"#utility.yul\":7380:7803   */\n    tag_63:\n        /* \"#utility.yul\":7554:7557   */\n      0x00\n        /* \"#utility.yul\":7576:7668   */\n      tag_178\n        /* \"#utility.yul\":7664:7667   */\n      dup3\n        /* \"#utility.yul\":7655:7661   */\n      dup6\n        /* \"#utility.yul\":7576:7668   */\n      tag_99\n      jump\t// in\n    tag_178:\n        /* \"#utility.yul\":7569:7668   */\n      swap2\n      pop\n        /* \"#utility.yul\":7685:7777   */\n      tag_179\n        /* \"#utility.yul\":7773:7776   */\n      dup3\n        /* \"#utility.yul\":7764:7770   */\n      dup5\n        /* \"#utility.yul\":7685:7777   */\n      tag_99\n      jump\t// in\n    tag_179:\n        /* \"#utility.yul\":7678:7777   */\n      swap2\n      pop\n        /* \"#utility.yul\":7794:7797   */\n      dup2\n        /* \"#utility.yul\":7787:7797   */\n      swap1\n      pop\n        /* \"#utility.yul\":7380:7803   */\n      swap4\n      swap3\n      pop\n      pop\n      pop\n      jump\t// out\n        /* \"#utility.yul\":7809:8029   */\n    tag_100:\n        /* \"#utility.yul\":7949:7983   */\n      0x54686520656e74657265642076616c7565206973204f7574206f662052616e67\n        /* \"#utility.yul\":7945:7946   */\n      0x00\n        /* \"#utility.yul\":7937:7943   */\n      dup3\n        /* \"#utility.yul\":7933:7947   */\n      add\n        /* \"#utility.yul\":7926:7984   */\n      mstore\n        /* \"#utility.yul\":8018:8021   */\n      0x6500000000000000000000000000000000000000000000000000000000000000\n        /* \"#utility.yul\":8013:8015   */\n      0x20\n        /* \"#utility.yul\":8005:8011   */\n      dup3\n        /* \"#utility.yul\":8001:8016   */\n      add\n        /* \"#utility.yul\":7994:8022   */\n      mstore\n        /* \"#utility.yul\":7809:8029   */\n      pop\n      jump\t// out\n        /* \"#utility.yul\":8035:8401   */\n    tag_101:\n        /* \"#utility.yul\":8177:8180   */\n      0x00\n        /* \"#utility.yul\":8198:8265   */\n      tag_182\n        /* \"#utility.yul\":8262:8264   */\n      0x21\n        /* \"#utility.yul\":8257:8260   */\n      dup4\n        /* \"#utility.yul\":8198:8265   */\n      tag_84\n      jump\t// in\n    tag_182:\n        /* \"#utility.yul\":8191:8265   */\n      swap2\n      pop\n        /* \"#utility.yul\":8274:8367   */\n      tag_183\n        /* \"#utility.yul\":8363:8366   */\n      dup3\n        /* \"#utility.yul\":8274:8367   */\n      tag_100\n      jump\t// in\n    tag_183:\n        /* \"#utility.yul\":8392:8394   */\n      0x40\n        /* \"#utility.yul\":8387:8390   */\n      dup3\n        /* \"#utility.yul\":8383:8395   */\n      add\n        /* \"#utility.yul\":8376:8395   */\n      swap1\n      pop\n        /* \"#utility.yul\":8035:8401   */\n      swap2\n      swap1\n      pop\n      jump\t// out\n        /* \"#utility.yul\":8407:8826   */\n    tag_68:\n        /* \"#utility.yul\":8573:8577   */\n      0x00\n        /* \"#utility.yul\":8611:8613   */\n      0x20\n        /* \"#utility.yul\":8600:8609   */\n      dup3\n        /* \"#utility.yul\":8596:8614   */\n      add\n        /* \"#utility.yul\":8588:8614   */\n      swap1\n      pop\n        /* \"#utility.yul\":8660:8669   */\n      dup2\n        /* \"#utility.yul\":8654:8658   */\n      dup2\n        /* \"#utility.yul\":8650:8670   */\n      sub\n        /* \"#utility.yul\":8646:8647   */\n      0x00\n        /* \"#utility.yul\":8635:8644   */\n      dup4\n        /* \"#utility.yul\":8631:8648   */\n      add\n        /* \"#utility.yul\":8624:8671   */\n      mstore\n        /* \"#utility.yul\":8688:8819   */\n      tag_185\n        /* \"#utility.yul\":8814:8818   */\n      dup2\n        /* \"#utility.yul\":8688:8819   */\n      tag_101\n      jump\t// in\n    tag_185:\n        /* \"#utility.yul\":8680:8819   */\n      swap1\n      pop\n        /* \"#utility.yul\":8407:8826   */\n      swap2\n      swap1\n      pop\n      jump\t// out\n        /* \"#utility.yul\":8832:9012   */\n    tag_102:\n        /* \"#utility.yul\":8880:8957   */\n      0x4e487b7100000000000000000000000000000000000000000000000000000000\n        /* \"#utility.yul\":8877:8878   */\n      0x00\n        /* \"#utility.yul\":8870:8958   */\n      mstore\n        /* \"#utility.yul\":8977:8981   */\n      0x11\n        /* \"#utility.yul\":8974:8975   */\n      0x04\n        /* \"#utility.yul\":8967:8982   */\n      mstore\n        /* \"#utility.yul\":9001:9005   */\n      0x24\n        /* \"#utility.yul\":8998:8999   */\n      0x00\n        /* \"#utility.yul\":8991:9006   */\n      revert\n        /* \"#utility.yul\":9018:9428   */\n    tag_71:\n        /* \"#utility.yul\":9058:9065   */\n      0x00\n        /* \"#utility.yul\":9081:9101   */\n      tag_188\n        /* \"#utility.yul\":9099:9100   */\n      dup3\n        /* \"#utility.yul\":9081:9101   */\n      tag_88\n      jump\t// in\n    tag_188:\n        /* \"#utility.yul\":9076:9101   */\n      swap2\n      pop\n        /* \"#utility.yul\":9115:9135   */\n      tag_189\n        /* \"#utility.yul\":9133:9134   */\n      dup4\n        /* \"#utility.yul\":9115:9135   */\n      tag_88\n      jump\t// in\n    tag_189:\n        /* \"#utility.yul\":9110:9135   */\n      swap3\n      pop\n        /* \"#utility.yul\":9170:9171   */\n      dup3\n        /* \"#utility.yul\":9167:9168   */\n      dup3\n        /* \"#utility.yul\":9163:9172   */\n      mul\n        /* \"#utility.yul\":9192:9222   */\n      tag_190\n        /* \"#utility.yul\":9210:9221   */\n      dup2\n        /* \"#utility.yul\":9192:9222   */\n      tag_88\n      jump\t// in\n    tag_190:\n        /* \"#utility.yul\":9181:9222   */\n      swap2\n      pop\n        /* \"#utility.yul\":9371:9372   */\n      dup3\n        /* \"#utility.yul\":9362:9369   */\n      dup3\n        /* \"#utility.yul\":9358:9373   */\n      div\n        /* \"#utility.yul\":9355:9356   */\n      dup5\n        /* \"#utility.yul\":9352:9374   */\n      eq\n        /* \"#utility.yul\":9332:9333   */\n      dup4\n        /* \"#utility.yul\":9325:9334   */\n      iszero\n        /* \"#utility.yul\":9305:9388   */\n      or\n        /* \"#utility.yul\":9282:9421   */\n      tag_191\n      jumpi\n        /* \"#utility.yul\":9401:9419   */\n      tag_192\n      tag_102\n      jump\t// in\n    tag_192:\n        /* \"#utility.yul\":9282:9421   */\n    tag_191:\n        /* \"#utility.yul\":9066:9428   */\n      pop\n        /* \"#utility.yul\":9018:9428   */\n      swap3\n      swap2\n      pop\n      pop\n      jump\t// out\n\n    auxdata: 0xa26469706673582212202f0b112276d72e70275c134151ffbdb06d38cf4793b835e70976f66ab5fd791064736f6c634300081a0033\n}\n",
				"bytecode": {
					"linkReferences": {},
					"object": "608060405261001261004f60201b60201c565b600190816100209190610303565b5061002f61008c60201b60201c565b6002908161003d9190610303565b50348015610049575f80fd5b506103d2565b60606040518060400160405280601881526020017f204974206973207075626c69632066756e2d6631202d2d200000000000000000815250905090565b60606040518060400160405280601a81526020017f20497420697320696e7465726e616c2066756e2d6633202d2d20000000000000815250905090565b5f81519050919050565b7f4e487b71000000000000000000000000000000000000000000000000000000005f52604160045260245ffd5b7f4e487b71000000000000000000000000000000000000000000000000000000005f52602260045260245ffd5b5f600282049050600182168061014457607f821691505b60208210810361015757610156610100565b5b50919050565b5f819050815f5260205f209050919050565b5f6020601f8301049050919050565b5f82821b905092915050565b5f600883026101b97fffffffffffffffffffffffffffffffffffffffffffffffffffffffffffffffff8261017e565b6101c3868361017e565b95508019841693508086168417925050509392505050565b5f819050919050565b5f819050919050565b5f6102076102026101fd846101db565b6101e4565b6101db565b9050919050565b5f819050919050565b610220836101ed565b61023461022c8261020e565b84845461018a565b825550505050565b5f90565b61024861023c565b610253818484610217565b505050565b5b818110156102765761026b5f82610240565b600181019050610259565b5050565b601f8211156102bb5761028c8161015d565b6102958461016f565b810160208510156102a4578190505b6102b86102b08561016f565b830182610258565b50505b505050565b5f82821c905092915050565b5f6102db5f19846008026102c0565b1980831691505092915050565b5f6102f383836102cc565b9150826002028217905092915050565b61030c826100c9565b67ffffffffffffffff811115610325576103246100d3565b5b61032f825461012d565b61033a82828561027a565b5f60209050601f83116001811461036b575f8415610359578287015190505b61036385826102e8565b8655506103ca565b601f1984166103798661015d565b5f5b828110156103a05784890151825560018201915060208501945060208101905061037b565b868310156103bd57848901516103b9601f8916826102cc565b8355505b6001600288020188555050505b505050505050565b61090a806103df5f395ff3fe608060405234801561000f575f80fd5b5060043610610086575f3560e01c8063b6c66f3b11610059578063b6c66f3b14610126578063b949817214610144578063c27fc30514610174578063c3f902021461019257610086565b806304f045951461008a57806339c54e53146100ba5780634e70b1dc146100ea5780637076e06214610108575b5f80fd5b6100a4600480360381019061009f9190610465565b6101b0565b6040516100b1919061049f565b60405180910390f35b6100d460048036038101906100cf9190610465565b610202565b6040516100e1919061049f565b60405180910390f35b6100f261024d565b6040516100ff919061049f565b60405180910390f35b610110610252565b60405161011d9190610528565b60405180910390f35b61012e6102a6565b60405161013b9190610528565b60405180910390f35b61015e6004803603810190610159919061057b565b6102d1565b60405161016b91906105b5565b60405180910390f35b61017c61033a565b6040516101899190610528565b60405180910390f35b61019a610377565b6040516101a79190610528565b60405180910390f35b5f8082136101f3576040517f08c379a00000000000000000000000000000000000000000000000000000000081526004016101ea9061063e565b60405180910390fd5b815f819055505f549050919050565b5f80821315610213575f9050610248565b5f821215610243577fffffffffffffffffffffffffffffffffffffffffffffffffffffffffffffffff9050610248565b600190505b919050565b5f5481565b6060805f61025e61033a565b90505f6102696103b4565b90505f6102746103f1565b905082828260405160200161028b93929190610696565b60405160208183030381529060405293508394505050505090565b6060600160026040516020016102bd9291906107b5565b604051602081830303815290604052905090565b5f81601960fa82821080156102e557508083105b610324576040517f08c379a000000000000000000000000000000000000000000000000000000000815260040161031b90610848565b60405180910390fd5b84856103309190610893565b9350505050919050565b60606040518060400160405280601881526020017f204974206973207075626c69632066756e2d6631202d2d200000000000000000815250905090565b60606040518060400160405280601a81526020017f2049742069732065787465726e616c2066756e2d6634202d2d20000000000000815250905090565b60606040518060400160405280601981526020017f20497420697320707269766174652066756e2d6632202d2d2000000000000000815250905090565b60606040518060400160405280601a81526020017f20497420697320696e7465726e616c2066756e2d6633202d2d20000000000000815250905090565b5f80fd5b5f819050919050565b61044481610432565b811461044e575f80fd5b50565b5f8135905061045f8161043b565b92915050565b5f6020828403121561047a5761047961042e565b5b5f61048784828501610451565b91505092915050565b61049981610432565b82525050565b5f6020820190506104b25f830184610490565b92915050565b5f81519050919050565b5f82825260208201905092915050565b8281835e5f83830152505050565b5f601f19601f8301169050919050565b5f6104fa826104b8565b61050481856104c2565b93506105148185602086016104d2565b61051d816104e0565b840191505092915050565b5f6020820190508181035f83015261054081846104f0565b905092915050565b5f819050919050565b61055a81610548565b8114610564575f80fd5b50565b5f8135905061057581610551565b92915050565b5f602082840312156105905761058f61042e565b5b5f61059d84828501610567565b91505092915050565b6105af81610548565b82525050565b5f6020820190506105c85f8301846105a6565b92915050565b7f546869732069732061202d766520616e64205472616e73616374206e6f7420645f8201527f6f6e650000000000000000000000000000000000000000000000000000000000602082015250565b5f6106286023836104c2565b9150610633826105ce565b604082019050919050565b5f6020820190508181035f8301526106558161061c565b9050919050565b5f81905092915050565b5f610670826104b8565b61067a818561065c565b935061068a8185602086016104d2565b80840191505092915050565b5f6106a18286610666565b91506106ad8285610666565b91506106b98284610666565b9150819050949350505050565b7f4e487b71000000000000000000000000000000000000000000000000000000005f52602260045260245ffd5b5f600282049050600182168061070a57607f821691505b60208210810361071d5761071c6106c6565b5b50919050565b5f819050815f5260205f209050919050565b5f8154610741816106f3565b61074b818661065c565b9450600182165f8114610765576001811461077a576107ac565b60ff19831686528115158202860193506107ac565b61078385610723565b5f5b838110156107a457815481890152600182019150602081019050610785565b838801955050505b50505092915050565b5f6107c08285610735565b91506107cc8284610735565b91508190509392505050565b7f54686520656e74657265642076616c7565206973204f7574206f662052616e675f8201527f6500000000000000000000000000000000000000000000000000000000000000602082015250565b5f6108326021836104c2565b915061083d826107d8565b604082019050919050565b5f6020820190508181035f83015261085f81610826565b9050919050565b7f4e487b71000000000000000000000000000000000000000000000000000000005f52601160045260245ffd5b5f61089d82610548565b91506108a883610548565b92508282026108b681610548565b915082820484148315176108cd576108cc610866565b5b509291505056fea26469706673582212202f0b112276d72e70275c134151ffbdb06d38cf4793b835e70976f66ab5fd791064736f6c634300081a0033",
					"opcodes": "PUSH1 0x80 PUSH1 0x40 MSTORE PUSH2 0x12 PUSH2 0x4F PUSH1 0x20 SHL PUSH1 0x20 SHR JUMP JUMPDEST PUSH1 0x1 SWAP1 DUP2 PUSH2 0x20 SWAP2 SWAP1 PUSH2 0x303 JUMP JUMPDEST POP PUSH2 0x2F PUSH2 0x8C PUSH1 0x20 SHL PUSH1 0x20 SHR JUMP JUMPDEST PUSH1 0x2 SWAP1 DUP2 PUSH2 0x3D SWAP2 SWAP1 PUSH2 0x303 JUMP JUMPDEST POP CALLVALUE DUP1 ISZERO PUSH2 0x49 JUMPI PUSH0 DUP1 REVERT JUMPDEST POP PUSH2 0x3D2 JUMP JUMPDEST PUSH1 0x60 PUSH1 0x40 MLOAD DUP1 PUSH1 0x40 ADD PUSH1 0x40 MSTORE DUP1 PUSH1 0x18 DUP2 MSTORE PUSH1 0x20 ADD PUSH32 0x204974206973207075626C69632066756E2D6631202D2D200000000000000000 DUP2 MSTORE POP SWAP1 POP SWAP1 JUMP JUMPDEST PUSH1 0x60 PUSH1 0x40 MLOAD DUP1 PUSH1 0x40 ADD PUSH1 0x40 MSTORE DUP1 PUSH1 0x1A DUP2 MSTORE PUSH1 0x20 ADD PUSH32 0x20497420697320696E7465726E616C2066756E2D6633202D2D20000000000000 DUP2 MSTORE POP SWAP1 POP SWAP1 JUMP JUMPDEST PUSH0 DUP2 MLOAD SWAP1 POP SWAP2 SWAP1 POP JUMP JUMPDEST PUSH32 0x4E487B7100000000000000000000000000000000000000000000000000000000 PUSH0 MSTORE PUSH1 0x41 PUSH1 0x4 MSTORE PUSH1 0x24 PUSH0 REVERT JUMPDEST PUSH32 0x4E487B7100000000000000000000000000000000000000000000000000000000 PUSH0 MSTORE PUSH1 0x22 PUSH1 0x4 MSTORE PUSH1 0x24 PUSH0 REVERT JUMPDEST PUSH0 PUSH1 0x2 DUP3 DIV SWAP1 POP PUSH1 0x1 DUP3 AND DUP1 PUSH2 0x144 JUMPI PUSH1 0x7F DUP3 AND SWAP2 POP JUMPDEST PUSH1 0x20 DUP3 LT DUP2 SUB PUSH2 0x157 JUMPI PUSH2 0x156 PUSH2 0x100 JUMP JUMPDEST JUMPDEST POP SWAP2 SWAP1 POP JUMP JUMPDEST PUSH0 DUP2 SWAP1 POP DUP2 PUSH0 MSTORE PUSH1 0x20 PUSH0 KECCAK256 SWAP1 POP SWAP2 SWAP1 POP JUMP JUMPDEST PUSH0 PUSH1 0x20 PUSH1 0x1F DUP4 ADD DIV SWAP1 POP SWAP2 SWAP1 POP JUMP JUMPDEST PUSH0 DUP3 DUP3 SHL SWAP1 POP SWAP3 SWAP2 POP POP JUMP JUMPDEST PUSH0 PUSH1 0x8 DUP4 MUL PUSH2 0x1B9 PUSH32 0xFFFFFFFFFFFFFFFFFFFFFFFFFFFFFFFFFFFFFFFFFFFFFFFFFFFFFFFFFFFFFFFF DUP3 PUSH2 0x17E JUMP JUMPDEST PUSH2 0x1C3 DUP7 DUP4 PUSH2 0x17E JUMP JUMPDEST SWAP6 POP DUP1 NOT DUP5 AND SWAP4 POP DUP1 DUP7 AND DUP5 OR SWAP3 POP POP POP SWAP4 SWAP3 POP POP POP JUMP JUMPDEST PUSH0 DUP2 SWAP1 POP SWAP2 SWAP1 POP JUMP JUMPDEST PUSH0 DUP2 SWAP1 POP SWAP2 SWAP1 POP JUMP JUMPDEST PUSH0 PUSH2 0x207 PUSH2 0x202 PUSH2 0x1FD DUP5 PUSH2 0x1DB JUMP JUMPDEST PUSH2 0x1E4 JUMP JUMPDEST PUSH2 0x1DB JUMP JUMPDEST SWAP1 POP SWAP2 SWAP1 POP JUMP JUMPDEST PUSH0 DUP2 SWAP1 POP SWAP2 SWAP1 POP JUMP JUMPDEST PUSH2 0x220 DUP4 PUSH2 0x1ED JUMP JUMPDEST PUSH2 0x234 PUSH2 0x22C DUP3 PUSH2 0x20E JUMP JUMPDEST DUP5 DUP5 SLOAD PUSH2 0x18A JUMP JUMPDEST DUP3 SSTORE POP POP POP POP JUMP JUMPDEST PUSH0 SWAP1 JUMP JUMPDEST PUSH2 0x248 PUSH2 0x23C JUMP JUMPDEST PUSH2 0x253 DUP2 DUP5 DUP5 PUSH2 0x217 JUMP JUMPDEST POP POP POP JUMP JUMPDEST JUMPDEST DUP2 DUP2 LT ISZERO PUSH2 0x276 JUMPI PUSH2 0x26B PUSH0 DUP3 PUSH2 0x240 JUMP JUMPDEST PUSH1 0x1 DUP2 ADD SWAP1 POP PUSH2 0x259 JUMP JUMPDEST POP POP JUMP JUMPDEST PUSH1 0x1F DUP3 GT ISZERO PUSH2 0x2BB JUMPI PUSH2 0x28C DUP2 PUSH2 0x15D JUMP JUMPDEST PUSH2 0x295 DUP5 PUSH2 0x16F JUMP JUMPDEST DUP2 ADD PUSH1 0x20 DUP6 LT ISZERO PUSH2 0x2A4 JUMPI DUP2 SWAP1 POP JUMPDEST PUSH2 0x2B8 PUSH2 0x2B0 DUP6 PUSH2 0x16F JUMP JUMPDEST DUP4 ADD DUP3 PUSH2 0x258 JUMP JUMPDEST POP POP JUMPDEST POP POP POP JUMP JUMPDEST PUSH0 DUP3 DUP3 SHR SWAP1 POP SWAP3 SWAP2 POP POP JUMP JUMPDEST PUSH0 PUSH2 0x2DB PUSH0 NOT DUP5 PUSH1 0x8 MUL PUSH2 0x2C0 JUMP JUMPDEST NOT DUP1 DUP4 AND SWAP2 POP POP SWAP3 SWAP2 POP POP JUMP JUMPDEST PUSH0 PUSH2 0x2F3 DUP4 DUP4 PUSH2 0x2CC JUMP JUMPDEST SWAP2 POP DUP3 PUSH1 0x2 MUL DUP3 OR SWAP1 POP SWAP3 SWAP2 POP POP JUMP JUMPDEST PUSH2 0x30C DUP3 PUSH2 0xC9 JUMP JUMPDEST PUSH8 0xFFFFFFFFFFFFFFFF DUP2 GT ISZERO PUSH2 0x325 JUMPI PUSH2 0x324 PUSH2 0xD3 JUMP JUMPDEST JUMPDEST PUSH2 0x32F DUP3 SLOAD PUSH2 0x12D JUMP JUMPDEST PUSH2 0x33A DUP3 DUP3 DUP6 PUSH2 0x27A JUMP JUMPDEST PUSH0 PUSH1 0x20 SWAP1 POP PUSH1 0x1F DUP4 GT PUSH1 0x1 DUP2 EQ PUSH2 0x36B JUMPI PUSH0 DUP5 ISZERO PUSH2 0x359 JUMPI DUP3 DUP8 ADD MLOAD SWAP1 POP JUMPDEST PUSH2 0x363 DUP6 DUP3 PUSH2 0x2E8 JUMP JUMPDEST DUP7 SSTORE POP PUSH2 0x3CA JUMP JUMPDEST PUSH1 0x1F NOT DUP5 AND PUSH2 0x379 DUP7 PUSH2 0x15D JUMP JUMPDEST PUSH0 JUMPDEST DUP3 DUP2 LT ISZERO PUSH2 0x3A0 JUMPI DUP5 DUP10 ADD MLOAD DUP3 SSTORE PUSH1 0x1 DUP3 ADD SWAP2 POP PUSH1 0x20 DUP6 ADD SWAP5 POP PUSH1 0x20 DUP2 ADD SWAP1 POP PUSH2 0x37B JUMP JUMPDEST DUP7 DUP4 LT ISZERO PUSH2 0x3BD JUMPI DUP5 DUP10 ADD MLOAD PUSH2 0x3B9 PUSH1 0x1F DUP10 AND DUP3 PUSH2 0x2CC JUMP JUMPDEST DUP4 SSTORE POP JUMPDEST PUSH1 0x1 PUSH1 0x2 DUP9 MUL ADD DUP9 SSTORE POP POP POP JUMPDEST POP POP POP POP POP POP JUMP JUMPDEST PUSH2 0x90A DUP1 PUSH2 0x3DF PUSH0 CODECOPY PUSH0 RETURN INVALID PUSH1 0x80 PUSH1 0x40 MSTORE CALLVALUE DUP1 ISZERO PUSH2 0xF JUMPI PUSH0 DUP1 REVERT JUMPDEST POP PUSH1 0x4 CALLDATASIZE LT PUSH2 0x86 JUMPI PUSH0 CALLDATALOAD PUSH1 0xE0 SHR DUP1 PUSH4 0xB6C66F3B GT PUSH2 0x59 JUMPI DUP1 PUSH4 0xB6C66F3B EQ PUSH2 0x126 JUMPI DUP1 PUSH4 0xB9498172 EQ PUSH2 0x144 JUMPI DUP1 PUSH4 0xC27FC305 EQ PUSH2 0x174 JUMPI DUP1 PUSH4 0xC3F90202 EQ PUSH2 0x192 JUMPI PUSH2 0x86 JUMP JUMPDEST DUP1 PUSH4 0x4F04595 EQ PUSH2 0x8A JUMPI DUP1 PUSH4 0x39C54E53 EQ PUSH2 0xBA JUMPI DUP1 PUSH4 0x4E70B1DC EQ PUSH2 0xEA JUMPI DUP1 PUSH4 0x7076E062 EQ PUSH2 0x108 JUMPI JUMPDEST PUSH0 DUP1 REVERT JUMPDEST PUSH2 0xA4 PUSH1 0x4 DUP1 CALLDATASIZE SUB DUP2 ADD SWAP1 PUSH2 0x9F SWAP2 SWAP1 PUSH2 0x465 JUMP JUMPDEST PUSH2 0x1B0 JUMP JUMPDEST PUSH1 0x40 MLOAD PUSH2 0xB1 SWAP2 SWAP1 PUSH2 0x49F JUMP JUMPDEST PUSH1 0x40 MLOAD DUP1 SWAP2 SUB SWAP1 RETURN JUMPDEST PUSH2 0xD4 PUSH1 0x4 DUP1 CALLDATASIZE SUB DUP2 ADD SWAP1 PUSH2 0xCF SWAP2 SWAP1 PUSH2 0x465 JUMP JUMPDEST PUSH2 0x202 JUMP JUMPDEST PUSH1 0x40 MLOAD PUSH2 0xE1 SWAP2 SWAP1 PUSH2 0x49F JUMP JUMPDEST PUSH1 0x40 MLOAD DUP1 SWAP2 SUB SWAP1 RETURN JUMPDEST PUSH2 0xF2 PUSH2 0x24D JUMP JUMPDEST PUSH1 0x40 MLOAD PUSH2 0xFF SWAP2 SWAP1 PUSH2 0x49F JUMP JUMPDEST PUSH1 0x40 MLOAD DUP1 SWAP2 SUB SWAP1 RETURN JUMPDEST PUSH2 0x110 PUSH2 0x252 JUMP JUMPDEST PUSH1 0x40 MLOAD PUSH2 0x11D SWAP2 SWAP1 PUSH2 0x528 JUMP JUMPDEST PUSH1 0x40 MLOAD DUP1 SWAP2 SUB SWAP1 RETURN JUMPDEST PUSH2 0x12E PUSH2 0x2A6 JUMP JUMPDEST PUSH1 0x40 MLOAD PUSH2 0x13B SWAP2 SWAP1 PUSH2 0x528 JUMP JUMPDEST PUSH1 0x40 MLOAD DUP1 SWAP2 SUB SWAP1 RETURN JUMPDEST PUSH2 0x15E PUSH1 0x4 DUP1 CALLDATASIZE SUB DUP2 ADD SWAP1 PUSH2 0x159 SWAP2 SWAP1 PUSH2 0x57B JUMP JUMPDEST PUSH2 0x2D1 JUMP JUMPDEST PUSH1 0x40 MLOAD PUSH2 0x16B SWAP2 SWAP1 PUSH2 0x5B5 JUMP JUMPDEST PUSH1 0x40 MLOAD DUP1 SWAP2 SUB SWAP1 RETURN JUMPDEST PUSH2 0x17C PUSH2 0x33A JUMP JUMPDEST PUSH1 0x40 MLOAD PUSH2 0x189 SWAP2 SWAP1 PUSH2 0x528 JUMP JUMPDEST PUSH1 0x40 MLOAD DUP1 SWAP2 SUB SWAP1 RETURN JUMPDEST PUSH2 0x19A PUSH2 0x377 JUMP JUMPDEST PUSH1 0x40 MLOAD PUSH2 0x1A7 SWAP2 SWAP1 PUSH2 0x528 JUMP JUMPDEST PUSH1 0x40 MLOAD DUP1 SWAP2 SUB SWAP1 RETURN JUMPDEST PUSH0 DUP1 DUP3 SGT PUSH2 0x1F3 JUMPI PUSH1 0x40 MLOAD PUSH32 0x8C379A000000000000000000000000000000000000000000000000000000000 DUP2 MSTORE PUSH1 0x4 ADD PUSH2 0x1EA SWAP1 PUSH2 0x63E JUMP JUMPDEST PUSH1 0x40 MLOAD DUP1 SWAP2 SUB SWAP1 REVERT JUMPDEST DUP2 PUSH0 DUP2 SWAP1 SSTORE POP PUSH0 SLOAD SWAP1 POP SWAP2 SWAP1 POP JUMP JUMPDEST PUSH0 DUP1 DUP3 SGT ISZERO PUSH2 0x213 JUMPI PUSH0 SWAP1 POP PUSH2 0x248 JUMP JUMPDEST PUSH0 DUP3 SLT ISZERO PUSH2 0x243 JUMPI PUSH32 0xFFFFFFFFFFFFFFFFFFFFFFFFFFFFFFFFFFFFFFFFFFFFFFFFFFFFFFFFFFFFFFFF SWAP1 POP PUSH2 0x248 JUMP JUMPDEST PUSH1 0x1 SWAP1 POP JUMPDEST SWAP2 SWAP1 POP JUMP JUMPDEST PUSH0 SLOAD DUP2 JUMP JUMPDEST PUSH1 0x60 DUP1 PUSH0 PUSH2 0x25E PUSH2 0x33A JUMP JUMPDEST SWAP1 POP PUSH0 PUSH2 0x269 PUSH2 0x3B4 JUMP JUMPDEST SWAP1 POP PUSH0 PUSH2 0x274 PUSH2 0x3F1 JUMP JUMPDEST SWAP1 POP DUP3 DUP3 DUP3 PUSH1 0x40 MLOAD PUSH1 0x20 ADD PUSH2 0x28B SWAP4 SWAP3 SWAP2 SWAP1 PUSH2 0x696 JUMP JUMPDEST PUSH1 0x40 MLOAD PUSH1 0x20 DUP2 DUP4 SUB SUB DUP2 MSTORE SWAP1 PUSH1 0x40 MSTORE SWAP4 POP DUP4 SWAP5 POP POP POP POP POP SWAP1 JUMP JUMPDEST PUSH1 0x60 PUSH1 0x1 PUSH1 0x2 PUSH1 0x40 MLOAD PUSH1 0x20 ADD PUSH2 0x2BD SWAP3 SWAP2 SWAP1 PUSH2 0x7B5 JUMP JUMPDEST PUSH1 0x40 MLOAD PUSH1 0x20 DUP2 DUP4 SUB SUB DUP2 MSTORE SWAP1 PUSH1 0x40 MSTORE SWAP1 POP SWAP1 JUMP JUMPDEST PUSH0 DUP2 PUSH1 0x19 PUSH1 0xFA DUP3 DUP3 LT DUP1 ISZERO PUSH2 0x2E5 JUMPI POP DUP1 DUP4 LT JUMPDEST PUSH2 0x324 JUMPI PUSH1 0x40 MLOAD PUSH32 0x8C379A000000000000000000000000000000000000000000000000000000000 DUP2 MSTORE PUSH1 0x4 ADD PUSH2 0x31B SWAP1 PUSH2 0x848 JUMP JUMPDEST PUSH1 0x40 MLOAD DUP1 SWAP2 SUB SWAP1 REVERT JUMPDEST DUP5 DUP6 PUSH2 0x330 SWAP2 SWAP1 PUSH2 0x893 JUMP JUMPDEST SWAP4 POP POP POP POP SWAP2 SWAP1 POP JUMP JUMPDEST PUSH1 0x60 PUSH1 0x40 MLOAD DUP1 PUSH1 0x40 ADD PUSH1 0x40 MSTORE DUP1 PUSH1 0x18 DUP2 MSTORE PUSH1 0x20 ADD PUSH32 0x204974206973207075626C69632066756E2D6631202D2D200000000000000000 DUP2 MSTORE POP SWAP1 POP SWAP1 JUMP JUMPDEST PUSH1 0x60 PUSH1 0x40 MLOAD DUP1 PUSH1 0x40 ADD PUSH1 0x40 MSTORE DUP1 PUSH1 0x1A DUP2 MSTORE PUSH1 0x20 ADD PUSH32 0x2049742069732065787465726E616C2066756E2D6634202D2D20000000000000 DUP2 MSTORE POP SWAP1 POP SWAP1 JUMP JUMPDEST PUSH1 0x60 PUSH1 0x40 MLOAD DUP1 PUSH1 0x40 ADD PUSH1 0x40 MSTORE DUP1 PUSH1 0x19 DUP2 MSTORE PUSH1 0x20 ADD PUSH32 0x20497420697320707269766174652066756E2D6632202D2D2000000000000000 DUP2 MSTORE POP SWAP1 POP SWAP1 JUMP JUMPDEST PUSH1 0x60 PUSH1 0x40 MLOAD DUP1 PUSH1 0x40 ADD PUSH1 0x40 MSTORE DUP1 PUSH1 0x1A DUP2 MSTORE PUSH1 0x20 ADD PUSH32 0x20497420697320696E7465726E616C2066756E2D6633202D2D20000000000000 DUP2 MSTORE POP SWAP1 POP SWAP1 JUMP JUMPDEST PUSH0 DUP1 REVERT JUMPDEST PUSH0 DUP2 SWAP1 POP SWAP2 SWAP1 POP JUMP JUMPDEST PUSH2 0x444 DUP2 PUSH2 0x432 JUMP JUMPDEST DUP2 EQ PUSH2 0x44E JUMPI PUSH0 DUP1 REVERT JUMPDEST POP JUMP JUMPDEST PUSH0 DUP2 CALLDATALOAD SWAP1 POP PUSH2 0x45F DUP2 PUSH2 0x43B JUMP JUMPDEST SWAP3 SWAP2 POP POP JUMP JUMPDEST PUSH0 PUSH1 0x20 DUP3 DUP5 SUB SLT ISZERO PUSH2 0x47A JUMPI PUSH2 0x479 PUSH2 0x42E JUMP JUMPDEST JUMPDEST PUSH0 PUSH2 0x487 DUP5 DUP3 DUP6 ADD PUSH2 0x451 JUMP JUMPDEST SWAP2 POP POP SWAP3 SWAP2 POP POP JUMP JUMPDEST PUSH2 0x499 DUP2 PUSH2 0x432 JUMP JUMPDEST DUP3 MSTORE POP POP JUMP JUMPDEST PUSH0 PUSH1 0x20 DUP3 ADD SWAP1 POP PUSH2 0x4B2 PUSH0 DUP4 ADD DUP5 PUSH2 0x490 JUMP JUMPDEST SWAP3 SWAP2 POP POP JUMP JUMPDEST PUSH0 DUP2 MLOAD SWAP1 POP SWAP2 SWAP1 POP JUMP JUMPDEST PUSH0 DUP3 DUP3 MSTORE PUSH1 0x20 DUP3 ADD SWAP1 POP SWAP3 SWAP2 POP POP JUMP JUMPDEST DUP3 DUP2 DUP4 MCOPY PUSH0 DUP4 DUP4 ADD MSTORE POP POP POP JUMP JUMPDEST PUSH0 PUSH1 0x1F NOT PUSH1 0x1F DUP4 ADD AND SWAP1 POP SWAP2 SWAP1 POP JUMP JUMPDEST PUSH0 PUSH2 0x4FA DUP3 PUSH2 0x4B8 JUMP JUMPDEST PUSH2 0x504 DUP2 DUP6 PUSH2 0x4C2 JUMP JUMPDEST SWAP4 POP PUSH2 0x514 DUP2 DUP6 PUSH1 0x20 DUP7 ADD PUSH2 0x4D2 JUMP JUMPDEST PUSH2 0x51D DUP2 PUSH2 0x4E0 JUMP JUMPDEST DUP5 ADD SWAP2 POP POP SWAP3 SWAP2 POP POP JUMP JUMPDEST PUSH0 PUSH1 0x20 DUP3 ADD SWAP1 POP DUP2 DUP2 SUB PUSH0 DUP4 ADD MSTORE PUSH2 0x540 DUP2 DUP5 PUSH2 0x4F0 JUMP JUMPDEST SWAP1 POP SWAP3 SWAP2 POP POP JUMP JUMPDEST PUSH0 DUP2 SWAP1 POP SWAP2 SWAP1 POP JUMP JUMPDEST PUSH2 0x55A DUP2 PUSH2 0x548 JUMP JUMPDEST DUP2 EQ PUSH2 0x564 JUMPI PUSH0 DUP1 REVERT JUMPDEST POP JUMP JUMPDEST PUSH0 DUP2 CALLDATALOAD SWAP1 POP PUSH2 0x575 DUP2 PUSH2 0x551 JUMP JUMPDEST SWAP3 SWAP2 POP POP JUMP JUMPDEST PUSH0 PUSH1 0x20 DUP3 DUP5 SUB SLT ISZERO PUSH2 0x590 JUMPI PUSH2 0x58F PUSH2 0x42E JUMP JUMPDEST JUMPDEST PUSH0 PUSH2 0x59D DUP5 DUP3 DUP6 ADD PUSH2 0x567 JUMP JUMPDEST SWAP2 POP POP SWAP3 SWAP2 POP POP JUMP JUMPDEST PUSH2 0x5AF DUP2 PUSH2 0x548 JUMP JUMPDEST DUP3 MSTORE POP POP JUMP JUMPDEST PUSH0 PUSH1 0x20 DUP3 ADD SWAP1 POP PUSH2 0x5C8 PUSH0 DUP4 ADD DUP5 PUSH2 0x5A6 JUMP JUMPDEST SWAP3 SWAP2 POP POP JUMP JUMPDEST PUSH32 0x546869732069732061202D766520616E64205472616E73616374206E6F742064 PUSH0 DUP3 ADD MSTORE PUSH32 0x6F6E650000000000000000000000000000000000000000000000000000000000 PUSH1 0x20 DUP3 ADD MSTORE POP JUMP JUMPDEST PUSH0 PUSH2 0x628 PUSH1 0x23 DUP4 PUSH2 0x4C2 JUMP JUMPDEST SWAP2 POP PUSH2 0x633 DUP3 PUSH2 0x5CE JUMP JUMPDEST PUSH1 0x40 DUP3 ADD SWAP1 POP SWAP2 SWAP1 POP JUMP JUMPDEST PUSH0 PUSH1 0x20 DUP3 ADD SWAP1 POP DUP2 DUP2 SUB PUSH0 DUP4 ADD MSTORE PUSH2 0x655 DUP2 PUSH2 0x61C JUMP JUMPDEST SWAP1 POP SWAP2 SWAP1 POP JUMP JUMPDEST PUSH0 DUP2 SWAP1 POP SWAP3 SWAP2 POP POP JUMP JUMPDEST PUSH0 PUSH2 0x670 DUP3 PUSH2 0x4B8 JUMP JUMPDEST PUSH2 0x67A DUP2 DUP6 PUSH2 0x65C JUMP JUMPDEST SWAP4 POP PUSH2 0x68A DUP2 DUP6 PUSH1 0x20 DUP7 ADD PUSH2 0x4D2 JUMP JUMPDEST DUP1 DUP5 ADD SWAP2 POP POP SWAP3 SWAP2 POP POP JUMP JUMPDEST PUSH0 PUSH2 0x6A1 DUP3 DUP7 PUSH2 0x666 JUMP JUMPDEST SWAP2 POP PUSH2 0x6AD DUP3 DUP6 PUSH2 0x666 JUMP JUMPDEST SWAP2 POP PUSH2 0x6B9 DUP3 DUP5 PUSH2 0x666 JUMP JUMPDEST SWAP2 POP DUP2 SWAP1 POP SWAP5 SWAP4 POP POP POP POP JUMP JUMPDEST PUSH32 0x4E487B7100000000000000000000000000000000000000000000000000000000 PUSH0 MSTORE PUSH1 0x22 PUSH1 0x4 MSTORE PUSH1 0x24 PUSH0 REVERT JUMPDEST PUSH0 PUSH1 0x2 DUP3 DIV SWAP1 POP PUSH1 0x1 DUP3 AND DUP1 PUSH2 0x70A JUMPI PUSH1 0x7F DUP3 AND SWAP2 POP JUMPDEST PUSH1 0x20 DUP3 LT DUP2 SUB PUSH2 0x71D JUMPI PUSH2 0x71C PUSH2 0x6C6 JUMP JUMPDEST JUMPDEST POP SWAP2 SWAP1 POP JUMP JUMPDEST PUSH0 DUP2 SWAP1 POP DUP2 PUSH0 MSTORE PUSH1 0x20 PUSH0 KECCAK256 SWAP1 POP SWAP2 SWAP1 POP JUMP JUMPDEST PUSH0 DUP2 SLOAD PUSH2 0x741 DUP2 PUSH2 0x6F3 JUMP JUMPDEST PUSH2 0x74B DUP2 DUP7 PUSH2 0x65C JUMP JUMPDEST SWAP5 POP PUSH1 0x1 DUP3 AND PUSH0 DUP2 EQ PUSH2 0x765 JUMPI PUSH1 0x1 DUP2 EQ PUSH2 0x77A JUMPI PUSH2 0x7AC JUMP JUMPDEST PUSH1 0xFF NOT DUP4 AND DUP7 MSTORE DUP2 ISZERO ISZERO DUP3 MUL DUP7 ADD SWAP4 POP PUSH2 0x7AC JUMP JUMPDEST PUSH2 0x783 DUP6 PUSH2 0x723 JUMP JUMPDEST PUSH0 JUMPDEST DUP4 DUP2 LT ISZERO PUSH2 0x7A4 JUMPI DUP2 SLOAD DUP2 DUP10 ADD MSTORE PUSH1 0x1 DUP3 ADD SWAP2 POP PUSH1 0x20 DUP2 ADD SWAP1 POP PUSH2 0x785 JUMP JUMPDEST DUP4 DUP9 ADD SWAP6 POP POP POP JUMPDEST POP POP POP SWAP3 SWAP2 POP POP JUMP JUMPDEST PUSH0 PUSH2 0x7C0 DUP3 DUP6 PUSH2 0x735 JUMP JUMPDEST SWAP2 POP PUSH2 0x7CC DUP3 DUP5 PUSH2 0x735 JUMP JUMPDEST SWAP2 POP DUP2 SWAP1 POP SWAP4 SWAP3 POP POP POP JUMP JUMPDEST PUSH32 0x54686520656E74657265642076616C7565206973204F7574206F662052616E67 PUSH0 DUP3 ADD MSTORE PUSH32 0x6500000000000000000000000000000000000000000000000000000000000000 PUSH1 0x20 DUP3 ADD MSTORE POP JUMP JUMPDEST PUSH0 PUSH2 0x832 PUSH1 0x21 DUP4 PUSH2 0x4C2 JUMP JUMPDEST SWAP2 POP PUSH2 0x83D DUP3 PUSH2 0x7D8 JUMP JUMPDEST PUSH1 0x40 DUP3 ADD SWAP1 POP SWAP2 SWAP1 POP JUMP JUMPDEST PUSH0 PUSH1 0x20 DUP3 ADD SWAP1 POP DUP2 DUP2 SUB PUSH0 DUP4 ADD MSTORE PUSH2 0x85F DUP2 PUSH2 0x826 JUMP JUMPDEST SWAP1 POP SWAP2 SWAP1 POP JUMP JUMPDEST PUSH32 0x4E487B7100000000000000000000000000000000000000000000000000000000 PUSH0 MSTORE PUSH1 0x11 PUSH1 0x4 MSTORE PUSH1 0x24 PUSH0 REVERT JUMPDEST PUSH0 PUSH2 0x89D DUP3 PUSH2 0x548 JUMP JUMPDEST SWAP2 POP PUSH2 0x8A8 DUP4 PUSH2 0x548 JUMP JUMPDEST SWAP3 POP DUP3 DUP3 MUL PUSH2 0x8B6 DUP2 PUSH2 0x548 JUMP JUMPDEST SWAP2 POP DUP3 DUP3 DIV DUP5 EQ DUP4 ISZERO OR PUSH2 0x8CD JUMPI PUSH2 0x8CC PUSH2 0x866 JUMP JUMPDEST JUMPDEST POP SWAP3 SWAP2 POP POP JUMP INVALID LOG2 PUSH5 0x6970667358 0x22 SLT KECCAK256 0x2F SIGNEXTEND GT 0x22 PUSH23 0xD72E70275C134151FFBDB06D38CF4793B835E70976F66A 0xB5 REVERT PUSH26 0x1064736F6C634300081A00330000000000000000000000000000 "
				},
				"gasEstimates": {
					"creation": {
						"codeDepositCost": "462800",
						"executionCost": "infinite",
						"totalCost": "infinite"
					},
					"external": {
						"checkFunCall()": "infinite",
						"childReturnParentFun()": "infinite",
						"conditions(int256)": "infinite",
						"f1()": "infinite",
						"f4()": "infinite",
						"num()": "2469",
						"requireCheck(int256)": "infinite",
						"verifyInput(uint256)": "infinite"
					}
				},
				"methodIdentifiers": {
					"checkFunCall()": "7076e062",
					"childReturnParentFun()": "b6c66f3b",
					"conditions(int256)": "39c54e53",
					"f1()": "c27fc305",
					"f4()": "c3f90202",
					"num()": "4e70b1dc",
					"requireCheck(int256)": "04f04595",
					"verifyInput(uint256)": "b9498172"
				}
			},
			"storageLayout": {
				"storage": [
					{
						"astId": 30,
						"contract": "contracts/1_Storage.sol:child",
						"label": "num",
						"offset": 0,
						"slot": "0",
						"type": "t_int256"
					},
					{
						"astId": 189,
						"contract": "contracts/1_Storage.sol:child",
						"label": "x",
						"offset": 0,
						"slot": "1",
						"type": "t_string_storage"
					},
					{
						"astId": 193,
						"contract": "contracts/1_Storage.sol:child",
						"label": "y",
						"offset": 0,
						"slot": "2",
						"type": "t_string_storage"
					}
				],
				"types": {
					"t_int256": {
						"encoding": "inplace",
						"label": "int256",
						"numberOfBytes": "32"
					},
					"t_string_storage": {
						"encoding": "bytes",
						"label": "string",
						"numberOfBytes": "32"
					}
				}
			},
			"userdoc": {
				"kind": "user",
				"methods": {
					"f1()": {
						"notice": "Access Modifiers of FUNCTIONS"
					}
				},
				"version": 1
			}
		}
	}
}