{
	"contracts/1_Storage.sol": {
		"newConract": {
			"abi": [
				{
					"inputs": [],
					"name": "returnExtFun",
					"outputs": [
						{
							"internalType": "string",
							"name": "",
							"type": "string"
						}
					],
					"stateMutability": "view",
					"type": "function"
				}
			],
			"devdoc": {
				"kind": "dev",
				"methods": {},
				"version": 1
			},
			"evm": {
				"assembly": "    /* \"contracts/1_Storage.sol\":2346:2523  contract newConract {... */\n  mstore(0x40, 0x80)\n    /* \"contracts/1_Storage.sol\":2386:2399  new Storage() */\n  mload(0x40)\n  tag_1\n  swap1\n  tag_2\n  jump\t// in\ntag_1:\n  mload(0x40)\n  dup1\n  swap2\n  sub\n  swap1\n  0x00\n  create\n  dup1\n  iszero\n  dup1\n  iszero\n  tag_3\n  jumpi\n  returndatasize\n  0x00\n  dup1\n  returndatacopy\n  revert(0x00, returndatasize)\ntag_3:\n  pop\n    /* \"contracts/1_Storage.sol\":2372:2399  Storage obj = new Storage() */\n  0x00\n  dup1\n  0x0100\n  exp\n  dup2\n  sload\n  dup2\n  0xffffffffffffffffffffffffffffffffffffffff\n  mul\n  not\n  and\n  swap1\n  dup4\n  0xffffffffffffffffffffffffffffffffffffffff\n  and\n  mul\n  or\n  swap1\n  sstore\n  pop\n    /* \"contracts/1_Storage.sol\":2419:2422  obj */\n  0x00\n  dup1\n  sload\n  swap1\n  0x0100\n  exp\n  swap1\n  div\n  0xffffffffffffffffffffffffffffffffffffffff\n  and\n    /* \"contracts/1_Storage.sol\":2419:2425  obj.f4 */\n  0xffffffffffffffffffffffffffffffffffffffff\n  and\n  0xc3f90202\n    /* \"contracts/1_Storage.sol\":2419:2427  obj.f4() */\n  mload(0x40)\n  dup2\n  0xffffffff\n  and\n  0xe0\n  shl\n  dup2\n  mstore\n  0x04\n  add\n  0x00\n  mload(0x40)\n  dup1\n  dup4\n  sub\n  dup2\n  dup7\n  gas\n  staticcall\n  iszero\n  dup1\n  iszero\n  tag_5\n  jumpi\n  returndatasize\n  0x00\n  dup1\n  returndatacopy\n  revert(0x00, returndatasize)\ntag_5:\n  pop\n  pop\n  pop\n  pop\n  mload(0x40)\n  returndatasize\n  0x00\n  dup3\n  returndatacopy\n  returndatasize\n  not(0x1f)\n  0x1f\n  dup3\n  add\n  and\n  dup3\n  add\n  dup1\n  0x40\n  mstore\n  pop\n  dup2\n  add\n  swap1\n  tag_6\n  swap2\n  swap1\n  tag_7\n  jump\t// in\ntag_6:\n    /* \"contracts/1_Storage.sol\":2405:2427  string data = obj.f4() */\n  0x01\n  swap1\n  dup2\n  tag_8\n  swap2\n  swap1\n  tag_9\n  jump\t// in\ntag_8:\n  pop\n    /* \"contracts/1_Storage.sol\":2346:2523  contract newConract {... */\n  callvalue\n  dup1\n  iszero\n  tag_10\n  jumpi\n  0x00\n  dup1\n  revert\ntag_10:\n  pop\n  jump(tag_11)\ntag_2:\n  dataSize(sub_1)\n  dup1\n  dataOffset(sub_1)\n  dup4\n  codecopy\n  add\n  swap1\n  jump\t// out\n    /* \"#utility.yul\":7:82   */\ntag_12:\n    /* \"#utility.yul\":40:46   */\n  0x00\n    /* \"#utility.yul\":73:75   */\n  0x40\n    /* \"#utility.yul\":67:76   */\n  mload\n    /* \"#utility.yul\":57:76   */\n  swap1\n  pop\n    /* \"#utility.yul\":7:82   */\n  swap1\n  jump\t// out\n    /* \"#utility.yul\":88:205   */\ntag_13:\n    /* \"#utility.yul\":197:198   */\n  0x00\n    /* \"#utility.yul\":194:195   */\n  dup1\n    /* \"#utility.yul\":187:199   */\n  revert\n    /* \"#utility.yul\":211:328   */\ntag_14:\n    /* \"#utility.yul\":320:321   */\n  0x00\n    /* \"#utility.yul\":317:318   */\n  dup1\n    /* \"#utility.yul\":310:322   */\n  revert\n    /* \"#utility.yul\":334:451   */\ntag_15:\n    /* \"#utility.yul\":443:444   */\n  0x00\n    /* \"#utility.yul\":440:441   */\n  dup1\n    /* \"#utility.yul\":433:445   */\n  revert\n    /* \"#utility.yul\":457:574   */\ntag_16:\n    /* \"#utility.yul\":566:567   */\n  0x00\n    /* \"#utility.yul\":563:564   */\n  dup1\n    /* \"#utility.yul\":556:568   */\n  revert\n    /* \"#utility.yul\":580:682   */\ntag_17:\n    /* \"#utility.yul\":621:627   */\n  0x00\n    /* \"#utility.yul\":672:674   */\n  0x1f\n    /* \"#utility.yul\":668:675   */\n  not\n    /* \"#utility.yul\":663:665   */\n  0x1f\n    /* \"#utility.yul\":656:661   */\n  dup4\n    /* \"#utility.yul\":652:666   */\n  add\n    /* \"#utility.yul\":648:676   */\n  and\n    /* \"#utility.yul\":638:676   */\n  swap1\n  pop\n    /* \"#utility.yul\":580:682   */\n  swap2\n  swap1\n  pop\n  jump\t// out\n    /* \"#utility.yul\":688:868   */\ntag_18:\n    /* \"#utility.yul\":736:813   */\n  0x4e487b7100000000000000000000000000000000000000000000000000000000\n    /* \"#utility.yul\":733:734   */\n  0x00\n    /* \"#utility.yul\":726:814   */\n  mstore\n    /* \"#utility.yul\":833:837   */\n  0x41\n    /* \"#utility.yul\":830:831   */\n  0x04\n    /* \"#utility.yul\":823:838   */\n  mstore\n    /* \"#utility.yul\":857:861   */\n  0x24\n    /* \"#utility.yul\":854:855   */\n  0x00\n    /* \"#utility.yul\":847:862   */\n  revert\n    /* \"#utility.yul\":874:1155   */\ntag_19:\n    /* \"#utility.yul\":957:984   */\n  tag_53\n    /* \"#utility.yul\":979:983   */\n  dup3\n    /* \"#utility.yul\":957:984   */\n  tag_17\n  jump\t// in\ntag_53:\n    /* \"#utility.yul\":949:955   */\n  dup2\n    /* \"#utility.yul\":945:985   */\n  add\n    /* \"#utility.yul\":1087:1093   */\n  dup2\n    /* \"#utility.yul\":1075:1085   */\n  dup2\n    /* \"#utility.yul\":1072:1094   */\n  lt\n    /* \"#utility.yul\":1051:1069   */\n  0xffffffffffffffff\n    /* \"#utility.yul\":1039:1049   */\n  dup3\n    /* \"#utility.yul\":1036:1070   */\n  gt\n    /* \"#utility.yul\":1033:1095   */\n  or\n    /* \"#utility.yul\":1030:1118   */\n  iszero\n  tag_54\n  jumpi\n    /* \"#utility.yul\":1098:1116   */\n  tag_55\n  tag_18\n  jump\t// in\ntag_55:\n    /* \"#utility.yul\":1030:1118   */\ntag_54:\n    /* \"#utility.yul\":1138:1148   */\n  dup1\n    /* \"#utility.yul\":1134:1136   */\n  0x40\n    /* \"#utility.yul\":1127:1149   */\n  mstore\n    /* \"#utility.yul\":917:1155   */\n  pop\n    /* \"#utility.yul\":874:1155   */\n  pop\n  pop\n  jump\t// out\n    /* \"#utility.yul\":1161:1290   */\ntag_20:\n    /* \"#utility.yul\":1195:1201   */\n  0x00\n    /* \"#utility.yul\":1222:1242   */\n  tag_57\n  tag_12\n  jump\t// in\ntag_57:\n    /* \"#utility.yul\":1212:1242   */\n  swap1\n  pop\n    /* \"#utility.yul\":1251:1284   */\n  tag_58\n    /* \"#utility.yul\":1279:1283   */\n  dup3\n    /* \"#utility.yul\":1271:1277   */\n  dup3\n    /* \"#utility.yul\":1251:1284   */\n  tag_19\n  jump\t// in\ntag_58:\n    /* \"#utility.yul\":1161:1290   */\n  swap2\n  swap1\n  pop\n  jump\t// out\n    /* \"#utility.yul\":1296:1604   */\ntag_21:\n    /* \"#utility.yul\":1358:1362   */\n  0x00\n    /* \"#utility.yul\":1448:1466   */\n  0xffffffffffffffff\n    /* \"#utility.yul\":1440:1446   */\n  dup3\n    /* \"#utility.yul\":1437:1467   */\n  gt\n    /* \"#utility.yul\":1434:1490   */\n  iszero\n  tag_60\n  jumpi\n    /* \"#utility.yul\":1470:1488   */\n  tag_61\n  tag_18\n  jump\t// in\ntag_61:\n    /* \"#utility.yul\":1434:1490   */\ntag_60:\n    /* \"#utility.yul\":1508:1537   */\n  tag_62\n    /* \"#utility.yul\":1530:1536   */\n  dup3\n    /* \"#utility.yul\":1508:1537   */\n  tag_17\n  jump\t// in\ntag_62:\n    /* \"#utility.yul\":1500:1537   */\n  swap1\n  pop\n    /* \"#utility.yul\":1592:1596   */\n  0x20\n    /* \"#utility.yul\":1586:1590   */\n  dup2\n    /* \"#utility.yul\":1582:1597   */\n  add\n    /* \"#utility.yul\":1574:1597   */\n  swap1\n  pop\n    /* \"#utility.yul\":1296:1604   */\n  swap2\n  swap1\n  pop\n  jump\t// out\n    /* \"#utility.yul\":1610:1749   */\ntag_22:\n    /* \"#utility.yul\":1699:1705   */\n  dup3\n    /* \"#utility.yul\":1694:1697   */\n  dup2\n    /* \"#utility.yul\":1689:1692   */\n  dup4\n    /* \"#utility.yul\":1683:1706   */\n  mcopy\n    /* \"#utility.yul\":1740:1741   */\n  0x00\n    /* \"#utility.yul\":1731:1737   */\n  dup4\n    /* \"#utility.yul\":1726:1729   */\n  dup4\n    /* \"#utility.yul\":1722:1738   */\n  add\n    /* \"#utility.yul\":1715:1742   */\n  mstore\n    /* \"#utility.yul\":1610:1749   */\n  pop\n  pop\n  pop\n  jump\t// out\n    /* \"#utility.yul\":1755:2189   */\ntag_23:\n    /* \"#utility.yul\":1844:1849   */\n  0x00\n    /* \"#utility.yul\":1869:1935   */\n  tag_65\n    /* \"#utility.yul\":1885:1934   */\n  tag_66\n    /* \"#utility.yul\":1927:1933   */\n  dup5\n    /* \"#utility.yul\":1885:1934   */\n  tag_21\n  jump\t// in\ntag_66:\n    /* \"#utility.yul\":1869:1935   */\n  tag_20\n  jump\t// in\ntag_65:\n    /* \"#utility.yul\":1860:1935   */\n  swap1\n  pop\n    /* \"#utility.yul\":1958:1964   */\n  dup3\n    /* \"#utility.yul\":1951:1956   */\n  dup2\n    /* \"#utility.yul\":1944:1965   */\n  mstore\n    /* \"#utility.yul\":1996:2000   */\n  0x20\n    /* \"#utility.yul\":1989:1994   */\n  dup2\n    /* \"#utility.yul\":1985:2001   */\n  add\n    /* \"#utility.yul\":2034:2037   */\n  dup5\n    /* \"#utility.yul\":2025:2031   */\n  dup5\n    /* \"#utility.yul\":2020:2023   */\n  dup5\n    /* \"#utility.yul\":2016:2032   */\n  add\n    /* \"#utility.yul\":2013:2038   */\n  gt\n    /* \"#utility.yul\":2010:2122   */\n  iszero\n  tag_67\n  jumpi\n    /* \"#utility.yul\":2041:2120   */\n  tag_68\n  tag_16\n  jump\t// in\ntag_68:\n    /* \"#utility.yul\":2010:2122   */\ntag_67:\n    /* \"#utility.yul\":2131:2183   */\n  tag_69\n    /* \"#utility.yul\":2176:2182   */\n  dup5\n    /* \"#utility.yul\":2171:2174   */\n  dup3\n    /* \"#utility.yul\":2166:2169   */\n  dup6\n    /* \"#utility.yul\":2131:2183   */\n  tag_22\n  jump\t// in\ntag_69:\n    /* \"#utility.yul\":1850:2189   */\n  pop\n    /* \"#utility.yul\":1755:2189   */\n  swap4\n  swap3\n  pop\n  pop\n  pop\n  jump\t// out\n    /* \"#utility.yul\":2209:2564   */\ntag_24:\n    /* \"#utility.yul\":2276:2281   */\n  0x00\n    /* \"#utility.yul\":2325:2328   */\n  dup3\n    /* \"#utility.yul\":2318:2322   */\n  0x1f\n    /* \"#utility.yul\":2310:2316   */\n  dup4\n    /* \"#utility.yul\":2306:2323   */\n  add\n    /* \"#utility.yul\":2302:2329   */\n  slt\n    /* \"#utility.yul\":2292:2414   */\n  tag_71\n  jumpi\n    /* \"#utility.yul\":2333:2412   */\n  tag_72\n  tag_15\n  jump\t// in\ntag_72:\n    /* \"#utility.yul\":2292:2414   */\ntag_71:\n    /* \"#utility.yul\":2443:2449   */\n  dup2\n    /* \"#utility.yul\":2437:2450   */\n  mload\n    /* \"#utility.yul\":2468:2558   */\n  tag_73\n    /* \"#utility.yul\":2554:2557   */\n  dup5\n    /* \"#utility.yul\":2546:2552   */\n  dup3\n    /* \"#utility.yul\":2539:2543   */\n  0x20\n    /* \"#utility.yul\":2531:2537   */\n  dup7\n    /* \"#utility.yul\":2527:2544   */\n  add\n    /* \"#utility.yul\":2468:2558   */\n  tag_23\n  jump\t// in\ntag_73:\n    /* \"#utility.yul\":2459:2558   */\n  swap2\n  pop\n    /* \"#utility.yul\":2282:2564   */\n  pop\n    /* \"#utility.yul\":2209:2564   */\n  swap3\n  swap2\n  pop\n  pop\n  jump\t// out\n    /* \"#utility.yul\":2570:3094   */\ntag_7:\n    /* \"#utility.yul\":2650:2656   */\n  0x00\n    /* \"#utility.yul\":2699:2701   */\n  0x20\n    /* \"#utility.yul\":2687:2696   */\n  dup3\n    /* \"#utility.yul\":2678:2685   */\n  dup5\n    /* \"#utility.yul\":2674:2697   */\n  sub\n    /* \"#utility.yul\":2670:2702   */\n  slt\n    /* \"#utility.yul\":2667:2786   */\n  iszero\n  tag_75\n  jumpi\n    /* \"#utility.yul\":2705:2784   */\n  tag_76\n  tag_13\n  jump\t// in\ntag_76:\n    /* \"#utility.yul\":2667:2786   */\ntag_75:\n    /* \"#utility.yul\":2846:2847   */\n  0x00\n    /* \"#utility.yul\":2835:2844   */\n  dup3\n    /* \"#utility.yul\":2831:2848   */\n  add\n    /* \"#utility.yul\":2825:2849   */\n  mload\n    /* \"#utility.yul\":2876:2894   */\n  0xffffffffffffffff\n    /* \"#utility.yul\":2868:2874   */\n  dup2\n    /* \"#utility.yul\":2865:2895   */\n  gt\n    /* \"#utility.yul\":2862:2979   */\n  iszero\n  tag_77\n  jumpi\n    /* \"#utility.yul\":2898:2977   */\n  tag_78\n  tag_14\n  jump\t// in\ntag_78:\n    /* \"#utility.yul\":2862:2979   */\ntag_77:\n    /* \"#utility.yul\":3003:3077   */\n  tag_79\n    /* \"#utility.yul\":3069:3076   */\n  dup5\n    /* \"#utility.yul\":3060:3066   */\n  dup3\n    /* \"#utility.yul\":3049:3058   */\n  dup6\n    /* \"#utility.yul\":3045:3067   */\n  add\n    /* \"#utility.yul\":3003:3077   */\n  tag_24\n  jump\t// in\ntag_79:\n    /* \"#utility.yul\":2993:3077   */\n  swap2\n  pop\n    /* \"#utility.yul\":2796:3087   */\n  pop\n    /* \"#utility.yul\":2570:3094   */\n  swap3\n  swap2\n  pop\n  pop\n  jump\t// out\n    /* \"#utility.yul\":3100:3199   */\ntag_25:\n    /* \"#utility.yul\":3152:3158   */\n  0x00\n    /* \"#utility.yul\":3186:3191   */\n  dup2\n    /* \"#utility.yul\":3180:3192   */\n  mload\n    /* \"#utility.yul\":3170:3192   */\n  swap1\n  pop\n    /* \"#utility.yul\":3100:3199   */\n  swap2\n  swap1\n  pop\n  jump\t// out\n    /* \"#utility.yul\":3205:3385   */\ntag_26:\n    /* \"#utility.yul\":3253:3330   */\n  0x4e487b7100000000000000000000000000000000000000000000000000000000\n    /* \"#utility.yul\":3250:3251   */\n  0x00\n    /* \"#utility.yul\":3243:3331   */\n  mstore\n    /* \"#utility.yul\":3350:3354   */\n  0x22\n    /* \"#utility.yul\":3347:3348   */\n  0x04\n    /* \"#utility.yul\":3340:3355   */\n  mstore\n    /* \"#utility.yul\":3374:3378   */\n  0x24\n    /* \"#utility.yul\":3371:3372   */\n  0x00\n    /* \"#utility.yul\":3364:3379   */\n  revert\n    /* \"#utility.yul\":3391:3711   */\ntag_27:\n    /* \"#utility.yul\":3435:3441   */\n  0x00\n    /* \"#utility.yul\":3472:3473   */\n  0x02\n    /* \"#utility.yul\":3466:3470   */\n  dup3\n    /* \"#utility.yul\":3462:3474   */\n  div\n    /* \"#utility.yul\":3452:3474   */\n  swap1\n  pop\n    /* \"#utility.yul\":3519:3520   */\n  0x01\n    /* \"#utility.yul\":3513:3517   */\n  dup3\n    /* \"#utility.yul\":3509:3521   */\n  and\n    /* \"#utility.yul\":3540:3558   */\n  dup1\n    /* \"#utility.yul\":3530:3611   */\n  tag_83\n  jumpi\n    /* \"#utility.yul\":3596:3600   */\n  0x7f\n    /* \"#utility.yul\":3588:3594   */\n  dup3\n    /* \"#utility.yul\":3584:3601   */\n  and\n    /* \"#utility.yul\":3574:3601   */\n  swap2\n  pop\n    /* \"#utility.yul\":3530:3611   */\ntag_83:\n    /* \"#utility.yul\":3658:3660   */\n  0x20\n    /* \"#utility.yul\":3650:3656   */\n  dup3\n    /* \"#utility.yul\":3647:3661   */\n  lt\n    /* \"#utility.yul\":3627:3645   */\n  dup2\n    /* \"#utility.yul\":3624:3662   */\n  sub\n    /* \"#utility.yul\":3621:3705   */\n  tag_84\n  jumpi\n    /* \"#utility.yul\":3677:3695   */\n  tag_85\n  tag_26\n  jump\t// in\ntag_85:\n    /* \"#utility.yul\":3621:3705   */\ntag_84:\n    /* \"#utility.yul\":3442:3711   */\n  pop\n    /* \"#utility.yul\":3391:3711   */\n  swap2\n  swap1\n  pop\n  jump\t// out\n    /* \"#utility.yul\":3717:3858   */\ntag_28:\n    /* \"#utility.yul\":3766:3770   */\n  0x00\n    /* \"#utility.yul\":3789:3792   */\n  dup2\n    /* \"#utility.yul\":3781:3792   */\n  swap1\n  pop\n    /* \"#utility.yul\":3812:3815   */\n  dup2\n    /* \"#utility.yul\":3809:3810   */\n  0x00\n    /* \"#utility.yul\":3802:3816   */\n  mstore\n    /* \"#utility.yul\":3846:3850   */\n  0x20\n    /* \"#utility.yul\":3843:3844   */\n  0x00\n    /* \"#utility.yul\":3833:3851   */\n  keccak256\n    /* \"#utility.yul\":3825:3851   */\n  swap1\n  pop\n    /* \"#utility.yul\":3717:3858   */\n  swap2\n  swap1\n  pop\n  jump\t// out\n    /* \"#utility.yul\":3864:3957   */\ntag_29:\n    /* \"#utility.yul\":3901:3907   */\n  0x00\n    /* \"#utility.yul\":3948:3950   */\n  0x20\n    /* \"#utility.yul\":3943:3945   */\n  0x1f\n    /* \"#utility.yul\":3936:3941   */\n  dup4\n    /* \"#utility.yul\":3932:3946   */\n  add\n    /* \"#utility.yul\":3928:3951   */\n  div\n    /* \"#utility.yul\":3918:3951   */\n  swap1\n  pop\n    /* \"#utility.yul\":3864:3957   */\n  swap2\n  swap1\n  pop\n  jump\t// out\n    /* \"#utility.yul\":3963:4070   */\ntag_30:\n    /* \"#utility.yul\":4007:4015   */\n  0x00\n    /* \"#utility.yul\":4057:4062   */\n  dup3\n    /* \"#utility.yul\":4051:4055   */\n  dup3\n    /* \"#utility.yul\":4047:4063   */\n  shl\n    /* \"#utility.yul\":4026:4063   */\n  swap1\n  pop\n    /* \"#utility.yul\":3963:4070   */\n  swap3\n  swap2\n  pop\n  pop\n  jump\t// out\n    /* \"#utility.yul\":4076:4469   */\ntag_31:\n    /* \"#utility.yul\":4145:4151   */\n  0x00\n    /* \"#utility.yul\":4195:4196   */\n  0x08\n    /* \"#utility.yul\":4183:4193   */\n  dup4\n    /* \"#utility.yul\":4179:4197   */\n  mul\n    /* \"#utility.yul\":4218:4315   */\n  tag_90\n    /* \"#utility.yul\":4248:4314   */\n  0xffffffffffffffffffffffffffffffffffffffffffffffffffffffffffffffff\n    /* \"#utility.yul\":4237:4246   */\n  dup3\n    /* \"#utility.yul\":4218:4315   */\n  tag_30\n  jump\t// in\ntag_90:\n    /* \"#utility.yul\":4336:4375   */\n  tag_91\n    /* \"#utility.yul\":4366:4374   */\n  dup7\n    /* \"#utility.yul\":4355:4364   */\n  dup4\n    /* \"#utility.yul\":4336:4375   */\n  tag_30\n  jump\t// in\ntag_91:\n    /* \"#utility.yul\":4324:4375   */\n  swap6\n  pop\n    /* \"#utility.yul\":4408:4412   */\n  dup1\n    /* \"#utility.yul\":4404:4413   */\n  not\n    /* \"#utility.yul\":4397:4402   */\n  dup5\n    /* \"#utility.yul\":4393:4414   */\n  and\n    /* \"#utility.yul\":4384:4414   */\n  swap4\n  pop\n    /* \"#utility.yul\":4457:4461   */\n  dup1\n    /* \"#utility.yul\":4447:4455   */\n  dup7\n    /* \"#utility.yul\":4443:4462   */\n  and\n    /* \"#utility.yul\":4436:4441   */\n  dup5\n    /* \"#utility.yul\":4433:4463   */\n  or\n    /* \"#utility.yul\":4423:4463   */\n  swap3\n  pop\n    /* \"#utility.yul\":4152:4469   */\n  pop\n  pop\n    /* \"#utility.yul\":4076:4469   */\n  swap4\n  swap3\n  pop\n  pop\n  pop\n  jump\t// out\n    /* \"#utility.yul\":4475:4552   */\ntag_32:\n    /* \"#utility.yul\":4512:4519   */\n  0x00\n    /* \"#utility.yul\":4541:4546   */\n  dup2\n    /* \"#utility.yul\":4530:4546   */\n  swap1\n  pop\n    /* \"#utility.yul\":4475:4552   */\n  swap2\n  swap1\n  pop\n  jump\t// out\n    /* \"#utility.yul\":4558:4618   */\ntag_33:\n    /* \"#utility.yul\":4586:4589   */\n  0x00\n    /* \"#utility.yul\":4607:4612   */\n  dup2\n    /* \"#utility.yul\":4600:4612   */\n  swap1\n  pop\n    /* \"#utility.yul\":4558:4618   */\n  swap2\n  swap1\n  pop\n  jump\t// out\n    /* \"#utility.yul\":4624:4766   */\ntag_34:\n    /* \"#utility.yul\":4674:4683   */\n  0x00\n    /* \"#utility.yul\":4707:4760   */\n  tag_95\n    /* \"#utility.yul\":4725:4759   */\n  tag_96\n    /* \"#utility.yul\":4734:4758   */\n  tag_97\n    /* \"#utility.yul\":4752:4757   */\n  dup5\n    /* \"#utility.yul\":4734:4758   */\n  tag_32\n  jump\t// in\ntag_97:\n    /* \"#utility.yul\":4725:4759   */\n  tag_33\n  jump\t// in\ntag_96:\n    /* \"#utility.yul\":4707:4760   */\n  tag_32\n  jump\t// in\ntag_95:\n    /* \"#utility.yul\":4694:4760   */\n  swap1\n  pop\n    /* \"#utility.yul\":4624:4766   */\n  swap2\n  swap1\n  pop\n  jump\t// out\n    /* \"#utility.yul\":4772:4847   */\ntag_35:\n    /* \"#utility.yul\":4815:4818   */\n  0x00\n    /* \"#utility.yul\":4836:4841   */\n  dup2\n    /* \"#utility.yul\":4829:4841   */\n  swap1\n  pop\n    /* \"#utility.yul\":4772:4847   */\n  swap2\n  swap1\n  pop\n  jump\t// out\n    /* \"#utility.yul\":4853:5122   */\ntag_36:\n    /* \"#utility.yul\":4963:5002   */\n  tag_100\n    /* \"#utility.yul\":4994:5001   */\n  dup4\n    /* \"#utility.yul\":4963:5002   */\n  tag_34\n  jump\t// in\ntag_100:\n    /* \"#utility.yul\":5024:5115   */\n  tag_101\n    /* \"#utility.yul\":5073:5114   */\n  tag_102\n    /* \"#utility.yul\":5097:5113   */\n  dup3\n    /* \"#utility.yul\":5073:5114   */\n  tag_35\n  jump\t// in\ntag_102:\n    /* \"#utility.yul\":5065:5071   */\n  dup5\n    /* \"#utility.yul\":5058:5062   */\n  dup5\n    /* \"#utility.yul\":5052:5063   */\n  sload\n    /* \"#utility.yul\":5024:5115   */\n  tag_31\n  jump\t// in\ntag_101:\n    /* \"#utility.yul\":5018:5022   */\n  dup3\n    /* \"#utility.yul\":5011:5116   */\n  sstore\n    /* \"#utility.yul\":4929:5122   */\n  pop\n    /* \"#utility.yul\":4853:5122   */\n  pop\n  pop\n  pop\n  jump\t// out\n    /* \"#utility.yul\":5128:5201   */\ntag_37:\n    /* \"#utility.yul\":5173:5176   */\n  0x00\n    /* \"#utility.yul\":5128:5201   */\n  swap1\n  jump\t// out\n    /* \"#utility.yul\":5207:5396   */\ntag_38:\n    /* \"#utility.yul\":5284:5316   */\n  tag_105\n  tag_37\n  jump\t// in\ntag_105:\n    /* \"#utility.yul\":5325:5390   */\n  tag_106\n    /* \"#utility.yul\":5383:5389   */\n  dup2\n    /* \"#utility.yul\":5375:5381   */\n  dup5\n    /* \"#utility.yul\":5369:5373   */\n  dup5\n    /* \"#utility.yul\":5325:5390   */\n  tag_36\n  jump\t// in\ntag_106:\n    /* \"#utility.yul\":5260:5396   */\n  pop\n    /* \"#utility.yul\":5207:5396   */\n  pop\n  pop\n  jump\t// out\n    /* \"#utility.yul\":5402:5588   */\ntag_39:\n    /* \"#utility.yul\":5462:5582   */\ntag_108:\n    /* \"#utility.yul\":5479:5482   */\n  dup2\n    /* \"#utility.yul\":5472:5477   */\n  dup2\n    /* \"#utility.yul\":5469:5483   */\n  lt\n    /* \"#utility.yul\":5462:5582   */\n  iszero\n  tag_110\n  jumpi\n    /* \"#utility.yul\":5533:5572   */\n  tag_111\n    /* \"#utility.yul\":5570:5571   */\n  0x00\n    /* \"#utility.yul\":5563:5568   */\n  dup3\n    /* \"#utility.yul\":5533:5572   */\n  tag_38\n  jump\t// in\ntag_111:\n    /* \"#utility.yul\":5506:5507   */\n  0x01\n    /* \"#utility.yul\":5499:5504   */\n  dup2\n    /* \"#utility.yul\":5495:5508   */\n  add\n    /* \"#utility.yul\":5486:5508   */\n  swap1\n  pop\n    /* \"#utility.yul\":5462:5582   */\n  jump(tag_108)\ntag_110:\n    /* \"#utility.yul\":5402:5588   */\n  pop\n  pop\n  jump\t// out\n    /* \"#utility.yul\":5594:6137   */\ntag_40:\n    /* \"#utility.yul\":5695:5697   */\n  0x1f\n    /* \"#utility.yul\":5690:5693   */\n  dup3\n    /* \"#utility.yul\":5687:5698   */\n  gt\n    /* \"#utility.yul\":5684:6130   */\n  iszero\n  tag_113\n  jumpi\n    /* \"#utility.yul\":5729:5767   */\n  tag_114\n    /* \"#utility.yul\":5761:5766   */\n  dup2\n    /* \"#utility.yul\":5729:5767   */\n  tag_28\n  jump\t// in\ntag_114:\n    /* \"#utility.yul\":5813:5842   */\n  tag_115\n    /* \"#utility.yul\":5831:5841   */\n  dup5\n    /* \"#utility.yul\":5813:5842   */\n  tag_29\n  jump\t// in\ntag_115:\n    /* \"#utility.yul\":5803:5811   */\n  dup2\n    /* \"#utility.yul\":5799:5843   */\n  add\n    /* \"#utility.yul\":5996:5998   */\n  0x20\n    /* \"#utility.yul\":5984:5994   */\n  dup6\n    /* \"#utility.yul\":5981:5999   */\n  lt\n    /* \"#utility.yul\":5978:6027   */\n  iszero\n  tag_116\n  jumpi\n    /* \"#utility.yul\":6017:6025   */\n  dup2\n    /* \"#utility.yul\":6002:6025   */\n  swap1\n  pop\n    /* \"#utility.yul\":5978:6027   */\ntag_116:\n    /* \"#utility.yul\":6040:6120   */\n  tag_117\n    /* \"#utility.yul\":6096:6118   */\n  tag_118\n    /* \"#utility.yul\":6114:6117   */\n  dup6\n    /* \"#utility.yul\":6096:6118   */\n  tag_29\n  jump\t// in\ntag_118:\n    /* \"#utility.yul\":6086:6094   */\n  dup4\n    /* \"#utility.yul\":6082:6119   */\n  add\n    /* \"#utility.yul\":6069:6080   */\n  dup3\n    /* \"#utility.yul\":6040:6120   */\n  tag_39\n  jump\t// in\ntag_117:\n    /* \"#utility.yul\":5699:6130   */\n  pop\n  pop\n    /* \"#utility.yul\":5684:6130   */\ntag_113:\n    /* \"#utility.yul\":5594:6137   */\n  pop\n  pop\n  pop\n  jump\t// out\n    /* \"#utility.yul\":6143:6260   */\ntag_41:\n    /* \"#utility.yul\":6197:6205   */\n  0x00\n    /* \"#utility.yul\":6247:6252   */\n  dup3\n    /* \"#utility.yul\":6241:6245   */\n  dup3\n    /* \"#utility.yul\":6237:6253   */\n  shr\n    /* \"#utility.yul\":6216:6253   */\n  swap1\n  pop\n    /* \"#utility.yul\":6143:6260   */\n  swap3\n  swap2\n  pop\n  pop\n  jump\t// out\n    /* \"#utility.yul\":6266:6435   */\ntag_42:\n    /* \"#utility.yul\":6310:6316   */\n  0x00\n    /* \"#utility.yul\":6343:6394   */\n  tag_121\n    /* \"#utility.yul\":6391:6392   */\n  0x00\n    /* \"#utility.yul\":6387:6393   */\n  not\n    /* \"#utility.yul\":6379:6384   */\n  dup5\n    /* \"#utility.yul\":6376:6377   */\n  0x08\n    /* \"#utility.yul\":6372:6385   */\n  mul\n    /* \"#utility.yul\":6343:6394   */\n  tag_41\n  jump\t// in\ntag_121:\n    /* \"#utility.yul\":6339:6395   */\n  not\n    /* \"#utility.yul\":6424:6428   */\n  dup1\n    /* \"#utility.yul\":6418:6422   */\n  dup4\n    /* \"#utility.yul\":6414:6429   */\n  and\n    /* \"#utility.yul\":6404:6429   */\n  swap2\n  pop\n    /* \"#utility.yul\":6317:6435   */\n  pop\n    /* \"#utility.yul\":6266:6435   */\n  swap3\n  swap2\n  pop\n  pop\n  jump\t// out\n    /* \"#utility.yul\":6440:6735   */\ntag_43:\n    /* \"#utility.yul\":6516:6520   */\n  0x00\n    /* \"#utility.yul\":6662:6691   */\n  tag_123\n    /* \"#utility.yul\":6687:6690   */\n  dup4\n    /* \"#utility.yul\":6681:6685   */\n  dup4\n    /* \"#utility.yul\":6662:6691   */\n  tag_42\n  jump\t// in\ntag_123:\n    /* \"#utility.yul\":6654:6691   */\n  swap2\n  pop\n    /* \"#utility.yul\":6724:6727   */\n  dup3\n    /* \"#utility.yul\":6721:6722   */\n  0x02\n    /* \"#utility.yul\":6717:6728   */\n  mul\n    /* \"#utility.yul\":6711:6715   */\n  dup3\n    /* \"#utility.yul\":6708:6729   */\n  or\n    /* \"#utility.yul\":6700:6729   */\n  swap1\n  pop\n    /* \"#utility.yul\":6440:6735   */\n  swap3\n  swap2\n  pop\n  pop\n  jump\t// out\n    /* \"#utility.yul\":6740:8135   */\ntag_9:\n    /* \"#utility.yul\":6857:6894   */\n  tag_125\n    /* \"#utility.yul\":6890:6893   */\n  dup3\n    /* \"#utility.yul\":6857:6894   */\n  tag_25\n  jump\t// in\ntag_125:\n    /* \"#utility.yul\":6959:6977   */\n  0xffffffffffffffff\n    /* \"#utility.yul\":6951:6957   */\n  dup2\n    /* \"#utility.yul\":6948:6978   */\n  gt\n    /* \"#utility.yul\":6945:7001   */\n  iszero\n  tag_126\n  jumpi\n    /* \"#utility.yul\":6981:6999   */\n  tag_127\n  tag_18\n  jump\t// in\ntag_127:\n    /* \"#utility.yul\":6945:7001   */\ntag_126:\n    /* \"#utility.yul\":7025:7063   */\n  tag_128\n    /* \"#utility.yul\":7057:7061   */\n  dup3\n    /* \"#utility.yul\":7051:7062   */\n  sload\n    /* \"#utility.yul\":7025:7063   */\n  tag_27\n  jump\t// in\ntag_128:\n    /* \"#utility.yul\":7110:7177   */\n  tag_129\n    /* \"#utility.yul\":7170:7176   */\n  dup3\n    /* \"#utility.yul\":7162:7168   */\n  dup3\n    /* \"#utility.yul\":7156:7160   */\n  dup6\n    /* \"#utility.yul\":7110:7177   */\n  tag_40\n  jump\t// in\ntag_129:\n    /* \"#utility.yul\":7204:7205   */\n  0x00\n    /* \"#utility.yul\":7228:7232   */\n  0x20\n    /* \"#utility.yul\":7215:7232   */\n  swap1\n  pop\n    /* \"#utility.yul\":7260:7262   */\n  0x1f\n    /* \"#utility.yul\":7252:7258   */\n  dup4\n    /* \"#utility.yul\":7249:7263   */\n  gt\n    /* \"#utility.yul\":7277:7278   */\n  0x01\n    /* \"#utility.yul\":7272:7890   */\n  dup2\n  eq\n  tag_131\n  jumpi\n    /* \"#utility.yul\":7934:7935   */\n  0x00\n    /* \"#utility.yul\":7951:7957   */\n  dup5\n    /* \"#utility.yul\":7948:8025   */\n  iszero\n  tag_132\n  jumpi\n    /* \"#utility.yul\":8000:8009   */\n  dup3\n    /* \"#utility.yul\":7995:7998   */\n  dup8\n    /* \"#utility.yul\":7991:8010   */\n  add\n    /* \"#utility.yul\":7985:8011   */\n  mload\n    /* \"#utility.yul\":7976:8011   */\n  swap1\n  pop\n    /* \"#utility.yul\":7948:8025   */\ntag_132:\n    /* \"#utility.yul\":8051:8118   */\n  tag_133\n    /* \"#utility.yul\":8111:8117   */\n  dup6\n    /* \"#utility.yul\":8104:8109   */\n  dup3\n    /* \"#utility.yul\":8051:8118   */\n  tag_43\n  jump\t// in\ntag_133:\n    /* \"#utility.yul\":8045:8049   */\n  dup7\n    /* \"#utility.yul\":8038:8119   */\n  sstore\n    /* \"#utility.yul\":7907:8129   */\n  pop\n    /* \"#utility.yul\":7242:8129   */\n  jump(tag_130)\n    /* \"#utility.yul\":7272:7890   */\ntag_131:\n    /* \"#utility.yul\":7324:7328   */\n  0x1f\n    /* \"#utility.yul\":7320:7329   */\n  not\n    /* \"#utility.yul\":7312:7318   */\n  dup5\n    /* \"#utility.yul\":7308:7330   */\n  and\n    /* \"#utility.yul\":7358:7395   */\n  tag_134\n    /* \"#utility.yul\":7390:7394   */\n  dup7\n    /* \"#utility.yul\":7358:7395   */\n  tag_28\n  jump\t// in\ntag_134:\n    /* \"#utility.yul\":7417:7418   */\n  0x00\n    /* \"#utility.yul\":7431:7639   */\ntag_135:\n    /* \"#utility.yul\":7445:7452   */\n  dup3\n    /* \"#utility.yul\":7442:7443   */\n  dup2\n    /* \"#utility.yul\":7439:7453   */\n  lt\n    /* \"#utility.yul\":7431:7639   */\n  iszero\n  tag_137\n  jumpi\n    /* \"#utility.yul\":7524:7533   */\n  dup5\n    /* \"#utility.yul\":7519:7522   */\n  dup10\n    /* \"#utility.yul\":7515:7534   */\n  add\n    /* \"#utility.yul\":7509:7535   */\n  mload\n    /* \"#utility.yul\":7501:7507   */\n  dup3\n    /* \"#utility.yul\":7494:7536   */\n  sstore\n    /* \"#utility.yul\":7575:7576   */\n  0x01\n    /* \"#utility.yul\":7567:7573   */\n  dup3\n    /* \"#utility.yul\":7563:7577   */\n  add\n    /* \"#utility.yul\":7553:7577   */\n  swap2\n  pop\n    /* \"#utility.yul\":7622:7624   */\n  0x20\n    /* \"#utility.yul\":7611:7620   */\n  dup6\n    /* \"#utility.yul\":7607:7625   */\n  add\n    /* \"#utility.yul\":7594:7625   */\n  swap5\n  pop\n    /* \"#utility.yul\":7468:7472   */\n  0x20\n    /* \"#utility.yul\":7465:7466   */\n  dup2\n    /* \"#utility.yul\":7461:7473   */\n  add\n    /* \"#utility.yul\":7456:7473   */\n  swap1\n  pop\n    /* \"#utility.yul\":7431:7639   */\n  jump(tag_135)\ntag_137:\n    /* \"#utility.yul\":7667:7673   */\n  dup7\n    /* \"#utility.yul\":7658:7665   */\n  dup4\n    /* \"#utility.yul\":7655:7674   */\n  lt\n    /* \"#utility.yul\":7652:7831   */\n  iszero\n  tag_138\n  jumpi\n    /* \"#utility.yul\":7725:7734   */\n  dup5\n    /* \"#utility.yul\":7720:7723   */\n  dup10\n    /* \"#utility.yul\":7716:7735   */\n  add\n    /* \"#utility.yul\":7710:7736   */\n  mload\n    /* \"#utility.yul\":7768:7816   */\n  tag_139\n    /* \"#utility.yul\":7810:7814   */\n  0x1f\n    /* \"#utility.yul\":7802:7808   */\n  dup10\n    /* \"#utility.yul\":7798:7815   */\n  and\n    /* \"#utility.yul\":7787:7796   */\n  dup3\n    /* \"#utility.yul\":7768:7816   */\n  tag_42\n  jump\t// in\ntag_139:\n    /* \"#utility.yul\":7760:7766   */\n  dup4\n    /* \"#utility.yul\":7753:7817   */\n  sstore\n    /* \"#utility.yul\":7675:7831   */\n  pop\n    /* \"#utility.yul\":7652:7831   */\ntag_138:\n    /* \"#utility.yul\":7877:7878   */\n  0x01\n    /* \"#utility.yul\":7873:7874   */\n  0x02\n    /* \"#utility.yul\":7865:7871   */\n  dup9\n    /* \"#utility.yul\":7861:7875   */\n  mul\n    /* \"#utility.yul\":7857:7879   */\n  add\n    /* \"#utility.yul\":7851:7855   */\n  dup9\n    /* \"#utility.yul\":7844:7880   */\n  sstore\n    /* \"#utility.yul\":7279:7890   */\n  pop\n  pop\n  pop\n    /* \"#utility.yul\":7242:8129   */\ntag_130:\n  pop\n    /* \"#utility.yul\":6832:8135   */\n  pop\n  pop\n  pop\n    /* \"#utility.yul\":6740:8135   */\n  pop\n  pop\n  jump\t// out\n    /* \"contracts/1_Storage.sol\":2346:2523  contract newConract {... */\ntag_11:\n  dataSize(sub_0)\n  dup1\n  dataOffset(sub_0)\n  0x00\n  codecopy\n  0x00\n  return\nstop\n\nsub_0: assembly {\n        /* \"contracts/1_Storage.sol\":2346:2523  contract newConract {... */\n      mstore(0x40, 0x80)\n      callvalue\n      dup1\n      iszero\n      tag_1\n      jumpi\n      0x00\n      dup1\n      revert\n    tag_1:\n      pop\n      jumpi(tag_2, lt(calldatasize, 0x04))\n      shr(0xe0, calldataload(0x00))\n      dup1\n      0x029a6022\n      eq\n      tag_3\n      jumpi\n    tag_2:\n      0x00\n      dup1\n      revert\n        /* \"contracts/1_Storage.sol\":2433:2520  function returnExtFun() public view returns(string memory) {... */\n    tag_3:\n      tag_4\n      tag_5\n      jump\t// in\n    tag_4:\n      mload(0x40)\n      tag_6\n      swap2\n      swap1\n      tag_7\n      jump\t// in\n    tag_6:\n      mload(0x40)\n      dup1\n      swap2\n      sub\n      swap1\n      return\n    tag_5:\n        /* \"contracts/1_Storage.sol\":2477:2490  string memory */\n      0x60\n        /* \"contracts/1_Storage.sol\":2509:2513  data */\n      0x01\n        /* \"contracts/1_Storage.sol\":2502:2513  return data */\n      dup1\n      sload\n      tag_9\n      swap1\n      tag_10\n      jump\t// in\n    tag_9:\n      dup1\n      0x1f\n      add\n      0x20\n      dup1\n      swap2\n      div\n      mul\n      0x20\n      add\n      mload(0x40)\n      swap1\n      dup2\n      add\n      0x40\n      mstore\n      dup1\n      swap3\n      swap2\n      swap1\n      dup2\n      dup2\n      mstore\n      0x20\n      add\n      dup3\n      dup1\n      sload\n      tag_11\n      swap1\n      tag_10\n      jump\t// in\n    tag_11:\n      dup1\n      iszero\n      tag_12\n      jumpi\n      dup1\n      0x1f\n      lt\n      tag_13\n      jumpi\n      0x0100\n      dup1\n      dup4\n      sload\n      div\n      mul\n      dup4\n      mstore\n      swap2\n      0x20\n      add\n      swap2\n      jump(tag_12)\n    tag_13:\n      dup3\n      add\n      swap2\n      swap1\n      0x00\n      mstore\n      keccak256(0x00, 0x20)\n      swap1\n    tag_14:\n      dup2\n      sload\n      dup2\n      mstore\n      swap1\n      0x01\n      add\n      swap1\n      0x20\n      add\n      dup1\n      dup4\n      gt\n      tag_14\n      jumpi\n      dup3\n      swap1\n      sub\n      0x1f\n      and\n      dup3\n      add\n      swap2\n    tag_12:\n      pop\n      pop\n      pop\n      pop\n      pop\n      swap1\n      pop\n        /* \"contracts/1_Storage.sol\":2433:2520  function returnExtFun() public view returns(string memory) {... */\n      swap1\n      jump\t// out\n        /* \"#utility.yul\":7:106   */\n    tag_15:\n        /* \"#utility.yul\":59:65   */\n      0x00\n        /* \"#utility.yul\":93:98   */\n      dup2\n        /* \"#utility.yul\":87:99   */\n      mload\n        /* \"#utility.yul\":77:99   */\n      swap1\n      pop\n        /* \"#utility.yul\":7:106   */\n      swap2\n      swap1\n      pop\n      jump\t// out\n        /* \"#utility.yul\":112:281   */\n    tag_16:\n        /* \"#utility.yul\":196:207   */\n      0x00\n        /* \"#utility.yul\":230:236   */\n      dup3\n        /* \"#utility.yul\":225:228   */\n      dup3\n        /* \"#utility.yul\":218:237   */\n      mstore\n        /* \"#utility.yul\":270:274   */\n      0x20\n        /* \"#utility.yul\":265:268   */\n      dup3\n        /* \"#utility.yul\":261:275   */\n      add\n        /* \"#utility.yul\":246:275   */\n      swap1\n      pop\n        /* \"#utility.yul\":112:281   */\n      swap3\n      swap2\n      pop\n      pop\n      jump\t// out\n        /* \"#utility.yul\":287:426   */\n    tag_17:\n        /* \"#utility.yul\":376:382   */\n      dup3\n        /* \"#utility.yul\":371:374   */\n      dup2\n        /* \"#utility.yul\":366:369   */\n      dup4\n        /* \"#utility.yul\":360:383   */\n      mcopy\n        /* \"#utility.yul\":417:418   */\n      0x00\n        /* \"#utility.yul\":408:414   */\n      dup4\n        /* \"#utility.yul\":403:406   */\n      dup4\n        /* \"#utility.yul\":399:415   */\n      add\n        /* \"#utility.yul\":392:419   */\n      mstore\n        /* \"#utility.yul\":287:426   */\n      pop\n      pop\n      pop\n      jump\t// out\n        /* \"#utility.yul\":432:534   */\n    tag_18:\n        /* \"#utility.yul\":473:479   */\n      0x00\n        /* \"#utility.yul\":524:526   */\n      0x1f\n        /* \"#utility.yul\":520:527   */\n      not\n        /* \"#utility.yul\":515:517   */\n      0x1f\n        /* \"#utility.yul\":508:513   */\n      dup4\n        /* \"#utility.yul\":504:518   */\n      add\n        /* \"#utility.yul\":500:528   */\n      and\n        /* \"#utility.yul\":490:528   */\n      swap1\n      pop\n        /* \"#utility.yul\":432:534   */\n      swap2\n      swap1\n      pop\n      jump\t// out\n        /* \"#utility.yul\":540:917   */\n    tag_19:\n        /* \"#utility.yul\":628:631   */\n      0x00\n        /* \"#utility.yul\":656:695   */\n      tag_27\n        /* \"#utility.yul\":689:694   */\n      dup3\n        /* \"#utility.yul\":656:695   */\n      tag_15\n      jump\t// in\n    tag_27:\n        /* \"#utility.yul\":711:782   */\n      tag_28\n        /* \"#utility.yul\":775:781   */\n      dup2\n        /* \"#utility.yul\":770:773   */\n      dup6\n        /* \"#utility.yul\":711:782   */\n      tag_16\n      jump\t// in\n    tag_28:\n        /* \"#utility.yul\":704:782   */\n      swap4\n      pop\n        /* \"#utility.yul\":791:856   */\n      tag_29\n        /* \"#utility.yul\":849:855   */\n      dup2\n        /* \"#utility.yul\":844:847   */\n      dup6\n        /* \"#utility.yul\":837:841   */\n      0x20\n        /* \"#utility.yul\":830:835   */\n      dup7\n        /* \"#utility.yul\":826:842   */\n      add\n        /* \"#utility.yul\":791:856   */\n      tag_17\n      jump\t// in\n    tag_29:\n        /* \"#utility.yul\":881:910   */\n      tag_30\n        /* \"#utility.yul\":903:909   */\n      dup2\n        /* \"#utility.yul\":881:910   */\n      tag_18\n      jump\t// in\n    tag_30:\n        /* \"#utility.yul\":876:879   */\n      dup5\n        /* \"#utility.yul\":872:911   */\n      add\n        /* \"#utility.yul\":865:911   */\n      swap2\n      pop\n        /* \"#utility.yul\":632:917   */\n      pop\n        /* \"#utility.yul\":540:917   */\n      swap3\n      swap2\n      pop\n      pop\n      jump\t// out\n        /* \"#utility.yul\":923:1236   */\n    tag_7:\n        /* \"#utility.yul\":1036:1040   */\n      0x00\n        /* \"#utility.yul\":1074:1076   */\n      0x20\n        /* \"#utility.yul\":1063:1072   */\n      dup3\n        /* \"#utility.yul\":1059:1077   */\n      add\n        /* \"#utility.yul\":1051:1077   */\n      swap1\n      pop\n        /* \"#utility.yul\":1123:1132   */\n      dup2\n        /* \"#utility.yul\":1117:1121   */\n      dup2\n        /* \"#utility.yul\":1113:1133   */\n      sub\n        /* \"#utility.yul\":1109:1110   */\n      0x00\n        /* \"#utility.yul\":1098:1107   */\n      dup4\n        /* \"#utility.yul\":1094:1111   */\n      add\n        /* \"#utility.yul\":1087:1134   */\n      mstore\n        /* \"#utility.yul\":1151:1229   */\n      tag_32\n        /* \"#utility.yul\":1224:1228   */\n      dup2\n        /* \"#utility.yul\":1215:1221   */\n      dup5\n        /* \"#utility.yul\":1151:1229   */\n      tag_19\n      jump\t// in\n    tag_32:\n        /* \"#utility.yul\":1143:1229   */\n      swap1\n      pop\n        /* \"#utility.yul\":923:1236   */\n      swap3\n      swap2\n      pop\n      pop\n      jump\t// out\n        /* \"#utility.yul\":1242:1422   */\n    tag_20:\n        /* \"#utility.yul\":1290:1367   */\n      0x4e487b7100000000000000000000000000000000000000000000000000000000\n        /* \"#utility.yul\":1287:1288   */\n      0x00\n        /* \"#utility.yul\":1280:1368   */\n      mstore\n        /* \"#utility.yul\":1387:1391   */\n      0x22\n        /* \"#utility.yul\":1384:1385   */\n      0x04\n        /* \"#utility.yul\":1377:1392   */\n      mstore\n        /* \"#utility.yul\":1411:1415   */\n      0x24\n        /* \"#utility.yul\":1408:1409   */\n      0x00\n        /* \"#utility.yul\":1401:1416   */\n      revert\n        /* \"#utility.yul\":1428:1748   */\n    tag_10:\n        /* \"#utility.yul\":1472:1478   */\n      0x00\n        /* \"#utility.yul\":1509:1510   */\n      0x02\n        /* \"#utility.yul\":1503:1507   */\n      dup3\n        /* \"#utility.yul\":1499:1511   */\n      div\n        /* \"#utility.yul\":1489:1511   */\n      swap1\n      pop\n        /* \"#utility.yul\":1556:1557   */\n      0x01\n        /* \"#utility.yul\":1550:1554   */\n      dup3\n        /* \"#utility.yul\":1546:1558   */\n      and\n        /* \"#utility.yul\":1577:1595   */\n      dup1\n        /* \"#utility.yul\":1567:1648   */\n      tag_35\n      jumpi\n        /* \"#utility.yul\":1633:1637   */\n      0x7f\n        /* \"#utility.yul\":1625:1631   */\n      dup3\n        /* \"#utility.yul\":1621:1638   */\n      and\n        /* \"#utility.yul\":1611:1638   */\n      swap2\n      pop\n        /* \"#utility.yul\":1567:1648   */\n    tag_35:\n        /* \"#utility.yul\":1695:1697   */\n      0x20\n        /* \"#utility.yul\":1687:1693   */\n      dup3\n        /* \"#utility.yul\":1684:1698   */\n      lt\n        /* \"#utility.yul\":1664:1682   */\n      dup2\n        /* \"#utility.yul\":1661:1699   */\n      sub\n        /* \"#utility.yul\":1658:1742   */\n      tag_36\n      jumpi\n        /* \"#utility.yul\":1714:1732   */\n      tag_37\n      tag_20\n      jump\t// in\n    tag_37:\n        /* \"#utility.yul\":1658:1742   */\n    tag_36:\n        /* \"#utility.yul\":1479:1748   */\n      pop\n        /* \"#utility.yul\":1428:1748   */\n      swap2\n      swap1\n      pop\n      jump\t// out\n\n    auxdata: 0xa2646970667358221220f62bdb2d8bba49742ff6104da889a03ed91a9515d31f8c8aafdf7bbf977c221a64736f6c634300081a0033\n}\n\nsub_1: assembly {\n        /* \"contracts/1_Storage.sol\":199:2345  contract Storage {... */\n      mstore(0x40, 0x80)\n      callvalue\n      dup1\n      iszero\n      tag_1\n      jumpi\n      0x00\n      dup1\n      revert\n    tag_1:\n      pop\n      dataSize(sub_0)\n      dup1\n      dataOffset(sub_0)\n      0x00\n      codecopy\n      0x00\n      return\n    stop\n\n    sub_0: assembly {\n            /* \"contracts/1_Storage.sol\":199:2345  contract Storage {... */\n          mstore(0x40, 0x80)\n          callvalue\n          dup1\n          iszero\n          tag_1\n          jumpi\n          0x00\n          dup1\n          revert\n        tag_1:\n          pop\n          jumpi(tag_2, lt(calldatasize, 0x04))\n          shr(0xe0, calldataload(0x00))\n          dup1\n          0x7076e062\n          gt\n          tag_10\n          jumpi\n          dup1\n          0x7076e062\n          eq\n          tag_6\n          jumpi\n          dup1\n          0xb9498172\n          eq\n          tag_7\n          jumpi\n          dup1\n          0xc27fc305\n          eq\n          tag_8\n          jumpi\n          dup1\n          0xc3f90202\n          eq\n          tag_9\n          jumpi\n          jump(tag_2)\n        tag_10:\n          dup1\n          0x04f04595\n          eq\n          tag_3\n          jumpi\n          dup1\n          0x39c54e53\n          eq\n          tag_4\n          jumpi\n          dup1\n          0x4e70b1dc\n          eq\n          tag_5\n          jumpi\n        tag_2:\n          0x00\n          dup1\n          revert\n            /* \"contracts/1_Storage.sol\":520:874  function requireCheck(int _a) public returns (int256) {//'view' not-req, since writing st-var=num=_a;... */\n        tag_3:\n          tag_11\n          0x04\n          dup1\n          calldatasize\n          sub\n          dup2\n          add\n          swap1\n          tag_12\n          swap2\n          swap1\n          tag_13\n          jump\t// in\n        tag_12:\n          tag_14\n          jump\t// in\n        tag_11:\n          mload(0x40)\n          tag_15\n          swap2\n          swap1\n          tag_16\n          jump\t// in\n        tag_15:\n          mload(0x40)\n          dup1\n          swap2\n          sub\n          swap1\n          return\n            /* \"contracts/1_Storage.sol\":248:445  function conditions(int a) public pure returns (int) {... */\n        tag_4:\n          tag_17\n          0x04\n          dup1\n          calldatasize\n          sub\n          dup2\n          add\n          swap1\n          tag_18\n          swap2\n          swap1\n          tag_13\n          jump\t// in\n        tag_18:\n          tag_19\n          jump\t// in\n        tag_17:\n          mload(0x40)\n          tag_20\n          swap2\n          swap1\n          tag_16\n          jump\t// in\n        tag_20:\n          mload(0x40)\n          dup1\n          swap2\n          sub\n          swap1\n          return\n            /* \"contracts/1_Storage.sol\":477:494  int256 public num */\n        tag_5:\n          tag_21\n          tag_22\n          jump\t// in\n        tag_21:\n          mload(0x40)\n          tag_23\n          swap2\n          swap1\n          tag_16\n          jump\t// in\n        tag_23:\n          mload(0x40)\n          dup1\n          swap2\n          sub\n          swap1\n          return\n            /* \"contracts/1_Storage.sol\":1925:2342  function checkFunCall() public pure returns(string memory) {... */\n        tag_6:\n          tag_24\n          tag_25\n          jump\t// in\n        tag_24:\n          mload(0x40)\n          tag_26\n          swap2\n          swap1\n          tag_27\n          jump\t// in\n        tag_26:\n          mload(0x40)\n          dup1\n          swap2\n          sub\n          swap1\n          return\n            /* \"contracts/1_Storage.sol\":1161:1283  function verifyInput(uint _inp) public valueInRange(_inp, 25, 250) pure returns(uint256) {... */\n        tag_7:\n          tag_28\n          0x04\n          dup1\n          calldatasize\n          sub\n          dup2\n          add\n          swap1\n          tag_29\n          swap2\n          swap1\n          tag_30\n          jump\t// in\n        tag_29:\n          tag_31\n          jump\t// in\n        tag_28:\n          mload(0x40)\n          tag_32\n          swap2\n          swap1\n          tag_33\n          jump\t// in\n        tag_32:\n          mload(0x40)\n          dup1\n          swap2\n          sub\n          swap1\n          return\n            /* \"contracts/1_Storage.sol\":1327:1483  function f1() public pure returns(string memory) { //can acces in-SM, derived-SM, outside-SM, outside-CODE ... */\n        tag_8:\n          tag_34\n          tag_35\n          jump\t// in\n        tag_34:\n          mload(0x40)\n          tag_36\n          swap2\n          swap1\n          tag_27\n          jump\t// in\n        tag_36:\n          mload(0x40)\n          dup1\n          swap2\n          sub\n          swap1\n          return\n            /* \"contracts/1_Storage.sol\":1778:1919  function f4() external pure returns(string memory) {//can access only outside-Codse -world... */\n        tag_9:\n          tag_37\n          tag_38\n          jump\t// in\n        tag_37:\n          mload(0x40)\n          tag_39\n          swap2\n          swap1\n          tag_27\n          jump\t// in\n        tag_39:\n          mload(0x40)\n          dup1\n          swap2\n          sub\n          swap1\n          return\n            /* \"contracts/1_Storage.sol\":520:874  function requireCheck(int _a) public returns (int256) {//'view' not-req, since writing st-var=num=_a;... */\n        tag_14:\n            /* \"contracts/1_Storage.sol\":566:572  int256 */\n          0x00\n            /* \"contracts/1_Storage.sol\":641:642  0 */\n          dup1\n            /* \"contracts/1_Storage.sol\":638:640  _a */\n          dup3\n            /* \"contracts/1_Storage.sol\":638:642  _a>0 */\n          sgt\n            /* \"contracts/1_Storage.sol\":630:682  require(_a>0, \"This is a -ve and Transact not done\") */\n          tag_41\n          jumpi\n          mload(0x40)\n          0x08c379a000000000000000000000000000000000000000000000000000000000\n          dup2\n          mstore\n          0x04\n          add\n          tag_42\n          swap1\n          tag_43\n          jump\t// in\n        tag_42:\n          mload(0x40)\n          dup1\n          swap2\n          sub\n          swap1\n          revert\n        tag_41:\n            /* \"contracts/1_Storage.sol\":845:847  _a */\n          dup2\n            /* \"contracts/1_Storage.sol\":839:842  num */\n          0x00\n            /* \"contracts/1_Storage.sol\":839:847  num = _a */\n          dup2\n          swap1\n          sstore\n          pop\n            /* \"contracts/1_Storage.sol\":864:867  num */\n          sload(0x00)\n            /* \"contracts/1_Storage.sol\":857:867  return num */\n          swap1\n          pop\n            /* \"contracts/1_Storage.sol\":520:874  function requireCheck(int _a) public returns (int256) {//'view' not-req, since writing st-var=num=_a;... */\n          swap2\n          swap1\n          pop\n          jump\t// out\n            /* \"contracts/1_Storage.sol\":248:445  function conditions(int a) public pure returns (int) {... */\n        tag_19:\n            /* \"contracts/1_Storage.sol\":296:299  int */\n          0x00\n            /* \"contracts/1_Storage.sol\":316:317  0 */\n          dup1\n            /* \"contracts/1_Storage.sol\":314:315  a */\n          dup3\n            /* \"contracts/1_Storage.sol\":314:317  a>0 */\n          sgt\n            /* \"contracts/1_Storage.sol\":311:439  if(a>0) {... */\n          iszero\n          tag_45\n          jumpi\n            /* \"contracts/1_Storage.sol\":340:341  0 */\n          0x00\n            /* \"contracts/1_Storage.sol\":333:341  return 0 */\n          swap1\n          pop\n          jump(tag_44)\n            /* \"contracts/1_Storage.sol\":311:439  if(a>0) {... */\n        tag_45:\n            /* \"contracts/1_Storage.sol\":363:364  0 */\n          0x00\n            /* \"contracts/1_Storage.sol\":361:362  a */\n          dup3\n            /* \"contracts/1_Storage.sol\":361:364  a<0 */\n          slt\n            /* \"contracts/1_Storage.sol\":358:439  if(a<0) {... */\n          iszero\n          tag_47\n          jumpi\n            /* \"contracts/1_Storage.sol\":387:389  -1 */\n          0xffffffffffffffffffffffffffffffffffffffffffffffffffffffffffffffff\n            /* \"contracts/1_Storage.sol\":380:389  return -1 */\n          swap1\n          pop\n          jump(tag_44)\n            /* \"contracts/1_Storage.sol\":358:439  if(a<0) {... */\n        tag_47:\n            /* \"contracts/1_Storage.sol\":427:428  1 */\n          0x01\n            /* \"contracts/1_Storage.sol\":420:428  return 1 */\n          swap1\n          pop\n            /* \"contracts/1_Storage.sol\":248:445  function conditions(int a) public pure returns (int) {... */\n        tag_44:\n          swap2\n          swap1\n          pop\n          jump\t// out\n            /* \"contracts/1_Storage.sol\":477:494  int256 public num */\n        tag_22:\n          sload(0x00)\n          dup2\n          jump\t// out\n            /* \"contracts/1_Storage.sol\":1925:2342  function checkFunCall() public pure returns(string memory) {... */\n        tag_25:\n            /* \"contracts/1_Storage.sol\":1969:1982  string memory */\n          0x60\n            /* \"contracts/1_Storage.sol\":1994:2014  string memory result */\n          dup1\n            /* \"contracts/1_Storage.sol\":2024:2042  string memory fun1 */\n          0x00\n            /* \"contracts/1_Storage.sol\":2044:2048  f1() */\n          tag_50\n            /* \"contracts/1_Storage.sol\":2044:2046  f1 */\n          tag_35\n            /* \"contracts/1_Storage.sol\":2044:2048  f1() */\n          jump\t// in\n        tag_50:\n            /* \"contracts/1_Storage.sol\":2024:2048  string memory fun1= f1() */\n          swap1\n          pop\n            /* \"contracts/1_Storage.sol\":2058:2076  string memory fun2 */\n          0x00\n            /* \"contracts/1_Storage.sol\":2078:2082  f2() */\n          tag_51\n            /* \"contracts/1_Storage.sol\":2078:2080  f2 */\n          tag_52\n            /* \"contracts/1_Storage.sol\":2078:2082  f2() */\n          jump\t// in\n        tag_51:\n            /* \"contracts/1_Storage.sol\":2058:2082  string memory fun2= f2() */\n          swap1\n          pop\n            /* \"contracts/1_Storage.sol\":2092:2110  string memory fun3 */\n          0x00\n            /* \"contracts/1_Storage.sol\":2112:2116  f3() */\n          tag_53\n            /* \"contracts/1_Storage.sol\":2112:2114  f3 */\n          tag_54\n            /* \"contracts/1_Storage.sol\":2112:2116  f3() */\n          jump\t// in\n        tag_53:\n            /* \"contracts/1_Storage.sol\":2092:2116  string memory fun3= f3() */\n          swap1\n          pop\n            /* \"contracts/1_Storage.sol\":2256:2260  fun1 */\n          dup3\n            /* \"contracts/1_Storage.sol\":2262:2266  fun2 */\n          dup3\n            /* \"contracts/1_Storage.sol\":2268:2272  fun3 */\n          dup3\n            /* \"contracts/1_Storage.sol\":2239:2273  abi.encodePacked(fun1, fun2, fun3) */\n          add(0x20, mload(0x40))\n          tag_55\n          swap4\n          swap3\n          swap2\n          swap1\n          tag_56\n          jump\t// in\n        tag_55:\n          mload(0x40)\n          0x20\n          dup2\n          dup4\n          sub\n          sub\n          dup2\n          mstore\n          swap1\n          0x40\n          mstore\n            /* \"contracts/1_Storage.sol\":2223:2274  result = string(abi.encodePacked(fun1, fun2, fun3)) */\n          swap4\n          pop\n            /* \"contracts/1_Storage.sol\":2329:2335  result */\n          dup4\n            /* \"contracts/1_Storage.sol\":2322:2335  return result */\n          swap5\n          pop\n          pop\n          pop\n          pop\n          pop\n            /* \"contracts/1_Storage.sol\":1925:2342  function checkFunCall() public pure returns(string memory) {... */\n          swap1\n          jump\t// out\n            /* \"contracts/1_Storage.sol\":1161:1283  function verifyInput(uint _inp) public valueInRange(_inp, 25, 250) pure returns(uint256) {... */\n        tag_31:\n            /* \"contracts/1_Storage.sol\":1241:1248  uint256 */\n          0x00\n            /* \"contracts/1_Storage.sol\":1213:1217  _inp */\n          dup2\n            /* \"contracts/1_Storage.sol\":1219:1221  25 */\n          0x19\n            /* \"contracts/1_Storage.sol\":1223:1226  250 */\n          0xfa\n            /* \"contracts/1_Storage.sol\":985:991  _value */\n          dup3\n            /* \"contracts/1_Storage.sol\":980:984  _min */\n          dup3\n            /* \"contracts/1_Storage.sol\":980:991  _min<_value */\n          lt\n            /* \"contracts/1_Storage.sol\":980:1006  _min<_value && _value<_max */\n          dup1\n          iszero\n          tag_58\n          jumpi\n          pop\n            /* \"contracts/1_Storage.sol\":1002:1006  _max */\n          dup1\n            /* \"contracts/1_Storage.sol\":995:1001  _value */\n          dup4\n            /* \"contracts/1_Storage.sol\":995:1006  _value<_max */\n          lt\n            /* \"contracts/1_Storage.sol\":980:1006  _min<_value && _value<_max */\n        tag_58:\n            /* \"contracts/1_Storage.sol\":972:1044  require(_min<_value && _value<_max, \"The entered value is Out of Range\") */\n          tag_59\n          jumpi\n          mload(0x40)\n          0x08c379a000000000000000000000000000000000000000000000000000000000\n          dup2\n          mstore\n          0x04\n          add\n          tag_60\n          swap1\n          tag_61\n          jump\t// in\n        tag_60:\n          mload(0x40)\n          dup1\n          swap2\n          sub\n          swap1\n          revert\n        tag_59:\n            /* \"contracts/1_Storage.sol\":1272:1276  _inp */\n          dup5\n            /* \"contracts/1_Storage.sol\":1267:1271  _inp */\n          dup6\n            /* \"contracts/1_Storage.sol\":1267:1276  _inp*_inp */\n          tag_63\n          swap2\n          swap1\n          tag_64\n          jump\t// in\n        tag_63:\n            /* \"contracts/1_Storage.sol\":1260:1276  return _inp*_inp */\n          swap4\n          pop\n            /* \"contracts/1_Storage.sol\":1161:1283  function verifyInput(uint _inp) public valueInRange(_inp, 25, 250) pure returns(uint256) {... */\n          pop\n          pop\n          pop\n          swap2\n          swap1\n          pop\n          jump\t// out\n            /* \"contracts/1_Storage.sol\":1327:1483  function f1() public pure returns(string memory) { //can acces in-SM, derived-SM, outside-SM, outside-CODE ... */\n        tag_35:\n            /* \"contracts/1_Storage.sol\":1361:1374  string memory */\n          0x60\n            /* \"contracts/1_Storage.sol\":1443:1476  return \" It is public fun-f1 -- \" */\n          mload(0x40)\n          dup1\n          0x40\n          add\n          0x40\n          mstore\n          dup1\n          0x18\n          dup2\n          mstore\n          0x20\n          add\n          0x204974206973207075626c69632066756e2d6631202d2d200000000000000000\n          dup2\n          mstore\n          pop\n          swap1\n          pop\n            /* \"contracts/1_Storage.sol\":1327:1483  function f1() public pure returns(string memory) { //can acces in-SM, derived-SM, outside-SM, outside-CODE ... */\n          swap1\n          jump\t// out\n            /* \"contracts/1_Storage.sol\":1778:1919  function f4() external pure returns(string memory) {//can access only outside-Codse -world... */\n        tag_38:\n            /* \"contracts/1_Storage.sol\":1814:1827  string memory */\n          0x60\n            /* \"contracts/1_Storage.sol\":1877:1912  return \" It is external fun-f4 -- \" */\n          mload(0x40)\n          dup1\n          0x40\n          add\n          0x40\n          mstore\n          dup1\n          0x1a\n          dup2\n          mstore\n          0x20\n          add\n          0x2049742069732065787465726e616c2066756e2d6634202d2d20000000000000\n          dup2\n          mstore\n          pop\n          swap1\n          pop\n            /* \"contracts/1_Storage.sol\":1778:1919  function f4() external pure returns(string memory) {//can access only outside-Codse -world... */\n          swap1\n          jump\t// out\n            /* \"contracts/1_Storage.sol\":1488:1619  function f2() private pure returns(string memory) { //can access onluy inside SM... */\n        tag_52:\n            /* \"contracts/1_Storage.sol\":1523:1536  string memory */\n          0x60\n            /* \"contracts/1_Storage.sol\":1577:1611  return \" It is private fun-f2 -- \" */\n          mload(0x40)\n          dup1\n          0x40\n          add\n          0x40\n          mstore\n          dup1\n          0x19\n          dup2\n          mstore\n          0x20\n          add\n          0x20497420697320707269766174652066756e2d6632202d2d2000000000000000\n          dup2\n          mstore\n          pop\n          swap1\n          pop\n            /* \"contracts/1_Storage.sol\":1488:1619  function f2() private pure returns(string memory) { //can access onluy inside SM... */\n          swap1\n          jump\t// out\n            /* \"contracts/1_Storage.sol\":1624:1773  function f3() internal  pure returns(string memory) {// can access in-SM and its Derived(child)-SM... */\n        tag_54:\n            /* \"contracts/1_Storage.sol\":1661:1674  string memory */\n          0x60\n            /* \"contracts/1_Storage.sol\":1731:1766  return \" It is internal fun-f3 -- \" */\n          mload(0x40)\n          dup1\n          0x40\n          add\n          0x40\n          mstore\n          dup1\n          0x1a\n          dup2\n          mstore\n          0x20\n          add\n          0x20497420697320696e7465726e616c2066756e2d6633202d2d20000000000000\n          dup2\n          mstore\n          pop\n          swap1\n          pop\n            /* \"contracts/1_Storage.sol\":1624:1773  function f3() internal  pure returns(string memory) {// can access in-SM and its Derived(child)-SM... */\n          swap1\n          jump\t// out\n            /* \"#utility.yul\":88:205   */\n        tag_70:\n            /* \"#utility.yul\":197:198   */\n          0x00\n            /* \"#utility.yul\":194:195   */\n          dup1\n            /* \"#utility.yul\":187:199   */\n          revert\n            /* \"#utility.yul\":334:410   */\n        tag_72:\n            /* \"#utility.yul\":370:377   */\n          0x00\n            /* \"#utility.yul\":399:404   */\n          dup2\n            /* \"#utility.yul\":388:404   */\n          swap1\n          pop\n            /* \"#utility.yul\":334:410   */\n          swap2\n          swap1\n          pop\n          jump\t// out\n            /* \"#utility.yul\":416:536   */\n        tag_73:\n            /* \"#utility.yul\":488:511   */\n          tag_98\n            /* \"#utility.yul\":505:510   */\n          dup2\n            /* \"#utility.yul\":488:511   */\n          tag_72\n          jump\t// in\n        tag_98:\n            /* \"#utility.yul\":481:486   */\n          dup2\n            /* \"#utility.yul\":478:512   */\n          eq\n            /* \"#utility.yul\":468:530   */\n          tag_99\n          jumpi\n            /* \"#utility.yul\":526:527   */\n          0x00\n            /* \"#utility.yul\":523:524   */\n          dup1\n            /* \"#utility.yul\":516:528   */\n          revert\n            /* \"#utility.yul\":468:530   */\n        tag_99:\n            /* \"#utility.yul\":416:536   */\n          pop\n          jump\t// out\n            /* \"#utility.yul\":542:679   */\n        tag_74:\n            /* \"#utility.yul\":587:592   */\n          0x00\n            /* \"#utility.yul\":625:631   */\n          dup2\n            /* \"#utility.yul\":612:632   */\n          calldataload\n            /* \"#utility.yul\":603:632   */\n          swap1\n          pop\n            /* \"#utility.yul\":641:673   */\n          tag_101\n            /* \"#utility.yul\":667:672   */\n          dup2\n            /* \"#utility.yul\":641:673   */\n          tag_73\n          jump\t// in\n        tag_101:\n            /* \"#utility.yul\":542:679   */\n          swap3\n          swap2\n          pop\n          pop\n          jump\t// out\n            /* \"#utility.yul\":685:1012   */\n        tag_13:\n            /* \"#utility.yul\":743:749   */\n          0x00\n            /* \"#utility.yul\":792:794   */\n          0x20\n            /* \"#utility.yul\":780:789   */\n          dup3\n            /* \"#utility.yul\":771:778   */\n          dup5\n            /* \"#utility.yul\":767:790   */\n          sub\n            /* \"#utility.yul\":763:795   */\n          slt\n            /* \"#utility.yul\":760:879   */\n          iszero\n          tag_103\n          jumpi\n            /* \"#utility.yul\":798:877   */\n          tag_104\n          tag_70\n          jump\t// in\n        tag_104:\n            /* \"#utility.yul\":760:879   */\n        tag_103:\n            /* \"#utility.yul\":918:919   */\n          0x00\n            /* \"#utility.yul\":943:995   */\n          tag_105\n            /* \"#utility.yul\":987:994   */\n          dup5\n            /* \"#utility.yul\":978:984   */\n          dup3\n            /* \"#utility.yul\":967:976   */\n          dup6\n            /* \"#utility.yul\":963:985   */\n          add\n            /* \"#utility.yul\":943:995   */\n          tag_74\n          jump\t// in\n        tag_105:\n            /* \"#utility.yul\":933:995   */\n          swap2\n          pop\n            /* \"#utility.yul\":889:1005   */\n          pop\n            /* \"#utility.yul\":685:1012   */\n          swap3\n          swap2\n          pop\n          pop\n          jump\t// out\n            /* \"#utility.yul\":1018:1133   */\n        tag_75:\n            /* \"#utility.yul\":1103:1126   */\n          tag_107\n            /* \"#utility.yul\":1120:1125   */\n          dup2\n            /* \"#utility.yul\":1103:1126   */\n          tag_72\n          jump\t// in\n        tag_107:\n            /* \"#utility.yul\":1098:1101   */\n          dup3\n            /* \"#utility.yul\":1091:1127   */\n          mstore\n            /* \"#utility.yul\":1018:1133   */\n          pop\n          pop\n          jump\t// out\n            /* \"#utility.yul\":1139:1357   */\n        tag_16:\n            /* \"#utility.yul\":1230:1234   */\n          0x00\n            /* \"#utility.yul\":1268:1270   */\n          0x20\n            /* \"#utility.yul\":1257:1266   */\n          dup3\n            /* \"#utility.yul\":1253:1271   */\n          add\n            /* \"#utility.yul\":1245:1271   */\n          swap1\n          pop\n            /* \"#utility.yul\":1281:1350   */\n          tag_109\n            /* \"#utility.yul\":1347:1348   */\n          0x00\n            /* \"#utility.yul\":1336:1345   */\n          dup4\n            /* \"#utility.yul\":1332:1349   */\n          add\n            /* \"#utility.yul\":1323:1329   */\n          dup5\n            /* \"#utility.yul\":1281:1350   */\n          tag_75\n          jump\t// in\n        tag_109:\n            /* \"#utility.yul\":1139:1357   */\n          swap3\n          swap2\n          pop\n          pop\n          jump\t// out\n            /* \"#utility.yul\":1363:1462   */\n        tag_76:\n            /* \"#utility.yul\":1415:1421   */\n          0x00\n            /* \"#utility.yul\":1449:1454   */\n          dup2\n            /* \"#utility.yul\":1443:1455   */\n          mload\n            /* \"#utility.yul\":1433:1455   */\n          swap1\n          pop\n            /* \"#utility.yul\":1363:1462   */\n          swap2\n          swap1\n          pop\n          jump\t// out\n            /* \"#utility.yul\":1468:1637   */\n        tag_77:\n            /* \"#utility.yul\":1552:1563   */\n          0x00\n            /* \"#utility.yul\":1586:1592   */\n          dup3\n            /* \"#utility.yul\":1581:1584   */\n          dup3\n            /* \"#utility.yul\":1574:1593   */\n          mstore\n            /* \"#utility.yul\":1626:1630   */\n          0x20\n            /* \"#utility.yul\":1621:1624   */\n          dup3\n            /* \"#utility.yul\":1617:1631   */\n          add\n            /* \"#utility.yul\":1602:1631   */\n          swap1\n          pop\n            /* \"#utility.yul\":1468:1637   */\n          swap3\n          swap2\n          pop\n          pop\n          jump\t// out\n            /* \"#utility.yul\":1643:1782   */\n        tag_78:\n            /* \"#utility.yul\":1732:1738   */\n          dup3\n            /* \"#utility.yul\":1727:1730   */\n          dup2\n            /* \"#utility.yul\":1722:1725   */\n          dup4\n            /* \"#utility.yul\":1716:1739   */\n          mcopy\n            /* \"#utility.yul\":1773:1774   */\n          0x00\n            /* \"#utility.yul\":1764:1770   */\n          dup4\n            /* \"#utility.yul\":1759:1762   */\n          dup4\n            /* \"#utility.yul\":1755:1771   */\n          add\n            /* \"#utility.yul\":1748:1775   */\n          mstore\n            /* \"#utility.yul\":1643:1782   */\n          pop\n          pop\n          pop\n          jump\t// out\n            /* \"#utility.yul\":1788:1890   */\n        tag_79:\n            /* \"#utility.yul\":1829:1835   */\n          0x00\n            /* \"#utility.yul\":1880:1882   */\n          0x1f\n            /* \"#utility.yul\":1876:1883   */\n          not\n            /* \"#utility.yul\":1871:1873   */\n          0x1f\n            /* \"#utility.yul\":1864:1869   */\n          dup4\n            /* \"#utility.yul\":1860:1874   */\n          add\n            /* \"#utility.yul\":1856:1884   */\n          and\n            /* \"#utility.yul\":1846:1884   */\n          swap1\n          pop\n            /* \"#utility.yul\":1788:1890   */\n          swap2\n          swap1\n          pop\n          jump\t// out\n            /* \"#utility.yul\":1896:2273   */\n        tag_80:\n            /* \"#utility.yul\":1984:1987   */\n          0x00\n            /* \"#utility.yul\":2012:2051   */\n          tag_115\n            /* \"#utility.yul\":2045:2050   */\n          dup3\n            /* \"#utility.yul\":2012:2051   */\n          tag_76\n          jump\t// in\n        tag_115:\n            /* \"#utility.yul\":2067:2138   */\n          tag_116\n            /* \"#utility.yul\":2131:2137   */\n          dup2\n            /* \"#utility.yul\":2126:2129   */\n          dup6\n            /* \"#utility.yul\":2067:2138   */\n          tag_77\n          jump\t// in\n        tag_116:\n            /* \"#utility.yul\":2060:2138   */\n          swap4\n          pop\n            /* \"#utility.yul\":2147:2212   */\n          tag_117\n            /* \"#utility.yul\":2205:2211   */\n          dup2\n            /* \"#utility.yul\":2200:2203   */\n          dup6\n            /* \"#utility.yul\":2193:2197   */\n          0x20\n            /* \"#utility.yul\":2186:2191   */\n          dup7\n            /* \"#utility.yul\":2182:2198   */\n          add\n            /* \"#utility.yul\":2147:2212   */\n          tag_78\n          jump\t// in\n        tag_117:\n            /* \"#utility.yul\":2237:2266   */\n          tag_118\n            /* \"#utility.yul\":2259:2265   */\n          dup2\n            /* \"#utility.yul\":2237:2266   */\n          tag_79\n          jump\t// in\n        tag_118:\n            /* \"#utility.yul\":2232:2235   */\n          dup5\n            /* \"#utility.yul\":2228:2267   */\n          add\n            /* \"#utility.yul\":2221:2267   */\n          swap2\n          pop\n            /* \"#utility.yul\":1988:2273   */\n          pop\n            /* \"#utility.yul\":1896:2273   */\n          swap3\n          swap2\n          pop\n          pop\n          jump\t// out\n            /* \"#utility.yul\":2279:2592   */\n        tag_27:\n            /* \"#utility.yul\":2392:2396   */\n          0x00\n            /* \"#utility.yul\":2430:2432   */\n          0x20\n            /* \"#utility.yul\":2419:2428   */\n          dup3\n            /* \"#utility.yul\":2415:2433   */\n          add\n            /* \"#utility.yul\":2407:2433   */\n          swap1\n          pop\n            /* \"#utility.yul\":2479:2488   */\n          dup2\n            /* \"#utility.yul\":2473:2477   */\n          dup2\n            /* \"#utility.yul\":2469:2489   */\n          sub\n            /* \"#utility.yul\":2465:2466   */\n          0x00\n            /* \"#utility.yul\":2454:2463   */\n          dup4\n            /* \"#utility.yul\":2450:2467   */\n          add\n            /* \"#utility.yul\":2443:2490   */\n          mstore\n            /* \"#utility.yul\":2507:2585   */\n          tag_120\n            /* \"#utility.yul\":2580:2584   */\n          dup2\n            /* \"#utility.yul\":2571:2577   */\n          dup5\n            /* \"#utility.yul\":2507:2585   */\n          tag_80\n          jump\t// in\n        tag_120:\n            /* \"#utility.yul\":2499:2585   */\n          swap1\n          pop\n            /* \"#utility.yul\":2279:2592   */\n          swap3\n          swap2\n          pop\n          pop\n          jump\t// out\n            /* \"#utility.yul\":2598:2675   */\n        tag_81:\n            /* \"#utility.yul\":2635:2642   */\n          0x00\n            /* \"#utility.yul\":2664:2669   */\n          dup2\n            /* \"#utility.yul\":2653:2669   */\n          swap1\n          pop\n            /* \"#utility.yul\":2598:2675   */\n          swap2\n          swap1\n          pop\n          jump\t// out\n            /* \"#utility.yul\":2681:2803   */\n        tag_82:\n            /* \"#utility.yul\":2754:2778   */\n          tag_123\n            /* \"#utility.yul\":2772:2777   */\n          dup2\n            /* \"#utility.yul\":2754:2778   */\n          tag_81\n          jump\t// in\n        tag_123:\n            /* \"#utility.yul\":2747:2752   */\n          dup2\n            /* \"#utility.yul\":2744:2779   */\n          eq\n            /* \"#utility.yul\":2734:2797   */\n          tag_124\n          jumpi\n            /* \"#utility.yul\":2793:2794   */\n          0x00\n            /* \"#utility.yul\":2790:2791   */\n          dup1\n            /* \"#utility.yul\":2783:2795   */\n          revert\n            /* \"#utility.yul\":2734:2797   */\n        tag_124:\n            /* \"#utility.yul\":2681:2803   */\n          pop\n          jump\t// out\n            /* \"#utility.yul\":2809:2948   */\n        tag_83:\n            /* \"#utility.yul\":2855:2860   */\n          0x00\n            /* \"#utility.yul\":2893:2899   */\n          dup2\n            /* \"#utility.yul\":2880:2900   */\n          calldataload\n            /* \"#utility.yul\":2871:2900   */\n          swap1\n          pop\n            /* \"#utility.yul\":2909:2942   */\n          tag_126\n            /* \"#utility.yul\":2936:2941   */\n          dup2\n            /* \"#utility.yul\":2909:2942   */\n          tag_82\n          jump\t// in\n        tag_126:\n            /* \"#utility.yul\":2809:2948   */\n          swap3\n          swap2\n          pop\n          pop\n          jump\t// out\n            /* \"#utility.yul\":2954:3283   */\n        tag_30:\n            /* \"#utility.yul\":3013:3019   */\n          0x00\n            /* \"#utility.yul\":3062:3064   */\n          0x20\n            /* \"#utility.yul\":3050:3059   */\n          dup3\n            /* \"#utility.yul\":3041:3048   */\n          dup5\n            /* \"#utility.yul\":3037:3060   */\n          sub\n            /* \"#utility.yul\":3033:3065   */\n          slt\n            /* \"#utility.yul\":3030:3149   */\n          iszero\n          tag_128\n          jumpi\n            /* \"#utility.yul\":3068:3147   */\n          tag_129\n          tag_70\n          jump\t// in\n        tag_129:\n            /* \"#utility.yul\":3030:3149   */\n        tag_128:\n            /* \"#utility.yul\":3188:3189   */\n          0x00\n            /* \"#utility.yul\":3213:3266   */\n          tag_130\n            /* \"#utility.yul\":3258:3265   */\n          dup5\n            /* \"#utility.yul\":3249:3255   */\n          dup3\n            /* \"#utility.yul\":3238:3247   */\n          dup6\n            /* \"#utility.yul\":3234:3256   */\n          add\n            /* \"#utility.yul\":3213:3266   */\n          tag_83\n          jump\t// in\n        tag_130:\n            /* \"#utility.yul\":3203:3266   */\n          swap2\n          pop\n            /* \"#utility.yul\":3159:3276   */\n          pop\n            /* \"#utility.yul\":2954:3283   */\n          swap3\n          swap2\n          pop\n          pop\n          jump\t// out\n            /* \"#utility.yul\":3289:3407   */\n        tag_84:\n            /* \"#utility.yul\":3376:3400   */\n          tag_132\n            /* \"#utility.yul\":3394:3399   */\n          dup2\n            /* \"#utility.yul\":3376:3400   */\n          tag_81\n          jump\t// in\n        tag_132:\n            /* \"#utility.yul\":3371:3374   */\n          dup3\n            /* \"#utility.yul\":3364:3401   */\n          mstore\n            /* \"#utility.yul\":3289:3407   */\n          pop\n          pop\n          jump\t// out\n            /* \"#utility.yul\":3413:3635   */\n        tag_33:\n            /* \"#utility.yul\":3506:3510   */\n          0x00\n            /* \"#utility.yul\":3544:3546   */\n          0x20\n            /* \"#utility.yul\":3533:3542   */\n          dup3\n            /* \"#utility.yul\":3529:3547   */\n          add\n            /* \"#utility.yul\":3521:3547   */\n          swap1\n          pop\n            /* \"#utility.yul\":3557:3628   */\n          tag_134\n            /* \"#utility.yul\":3625:3626   */\n          0x00\n            /* \"#utility.yul\":3614:3623   */\n          dup4\n            /* \"#utility.yul\":3610:3627   */\n          add\n            /* \"#utility.yul\":3601:3607   */\n          dup5\n            /* \"#utility.yul\":3557:3628   */\n          tag_84\n          jump\t// in\n        tag_134:\n            /* \"#utility.yul\":3413:3635   */\n          swap3\n          swap2\n          pop\n          pop\n          jump\t// out\n            /* \"#utility.yul\":3641:3863   */\n        tag_85:\n            /* \"#utility.yul\":3781:3815   */\n          0x546869732069732061202d766520616e64205472616e73616374206e6f742064\n            /* \"#utility.yul\":3777:3778   */\n          0x00\n            /* \"#utility.yul\":3769:3775   */\n          dup3\n            /* \"#utility.yul\":3765:3779   */\n          add\n            /* \"#utility.yul\":3758:3816   */\n          mstore\n            /* \"#utility.yul\":3850:3855   */\n          0x6f6e650000000000000000000000000000000000000000000000000000000000\n            /* \"#utility.yul\":3845:3847   */\n          0x20\n            /* \"#utility.yul\":3837:3843   */\n          dup3\n            /* \"#utility.yul\":3833:3848   */\n          add\n            /* \"#utility.yul\":3826:3856   */\n          mstore\n            /* \"#utility.yul\":3641:3863   */\n          pop\n          jump\t// out\n            /* \"#utility.yul\":3869:4235   */\n        tag_86:\n            /* \"#utility.yul\":4011:4014   */\n          0x00\n            /* \"#utility.yul\":4032:4099   */\n          tag_137\n            /* \"#utility.yul\":4096:4098   */\n          0x23\n            /* \"#utility.yul\":4091:4094   */\n          dup4\n            /* \"#utility.yul\":4032:4099   */\n          tag_77\n          jump\t// in\n        tag_137:\n            /* \"#utility.yul\":4025:4099   */\n          swap2\n          pop\n            /* \"#utility.yul\":4108:4201   */\n          tag_138\n            /* \"#utility.yul\":4197:4200   */\n          dup3\n            /* \"#utility.yul\":4108:4201   */\n          tag_85\n          jump\t// in\n        tag_138:\n            /* \"#utility.yul\":4226:4228   */\n          0x40\n            /* \"#utility.yul\":4221:4224   */\n          dup3\n            /* \"#utility.yul\":4217:4229   */\n          add\n            /* \"#utility.yul\":4210:4229   */\n          swap1\n          pop\n            /* \"#utility.yul\":3869:4235   */\n          swap2\n          swap1\n          pop\n          jump\t// out\n            /* \"#utility.yul\":4241:4660   */\n        tag_43:\n            /* \"#utility.yul\":4407:4411   */\n          0x00\n            /* \"#utility.yul\":4445:4447   */\n          0x20\n            /* \"#utility.yul\":4434:4443   */\n          dup3\n            /* \"#utility.yul\":4430:4448   */\n          add\n            /* \"#utility.yul\":4422:4448   */\n          swap1\n          pop\n            /* \"#utility.yul\":4494:4503   */\n          dup2\n            /* \"#utility.yul\":4488:4492   */\n          dup2\n            /* \"#utility.yul\":4484:4504   */\n          sub\n            /* \"#utility.yul\":4480:4481   */\n          0x00\n            /* \"#utility.yul\":4469:4478   */\n          dup4\n            /* \"#utility.yul\":4465:4482   */\n          add\n            /* \"#utility.yul\":4458:4505   */\n          mstore\n            /* \"#utility.yul\":4522:4653   */\n          tag_140\n            /* \"#utility.yul\":4648:4652   */\n          dup2\n            /* \"#utility.yul\":4522:4653   */\n          tag_86\n          jump\t// in\n        tag_140:\n            /* \"#utility.yul\":4514:4653   */\n          swap1\n          pop\n            /* \"#utility.yul\":4241:4660   */\n          swap2\n          swap1\n          pop\n          jump\t// out\n            /* \"#utility.yul\":4666:4814   */\n        tag_87:\n            /* \"#utility.yul\":4768:4779   */\n          0x00\n            /* \"#utility.yul\":4805:4808   */\n          dup2\n            /* \"#utility.yul\":4790:4808   */\n          swap1\n          pop\n            /* \"#utility.yul\":4666:4814   */\n          swap3\n          swap2\n          pop\n          pop\n          jump\t// out\n            /* \"#utility.yul\":4820:5210   */\n        tag_88:\n            /* \"#utility.yul\":4926:4929   */\n          0x00\n            /* \"#utility.yul\":4954:4993   */\n          tag_143\n            /* \"#utility.yul\":4987:4992   */\n          dup3\n            /* \"#utility.yul\":4954:4993   */\n          tag_76\n          jump\t// in\n        tag_143:\n            /* \"#utility.yul\":5009:5098   */\n          tag_144\n            /* \"#utility.yul\":5091:5097   */\n          dup2\n            /* \"#utility.yul\":5086:5089   */\n          dup6\n            /* \"#utility.yul\":5009:5098   */\n          tag_87\n          jump\t// in\n        tag_144:\n            /* \"#utility.yul\":5002:5098   */\n          swap4\n          pop\n            /* \"#utility.yul\":5107:5172   */\n          tag_145\n            /* \"#utility.yul\":5165:5171   */\n          dup2\n            /* \"#utility.yul\":5160:5163   */\n          dup6\n            /* \"#utility.yul\":5153:5157   */\n          0x20\n            /* \"#utility.yul\":5146:5151   */\n          dup7\n            /* \"#utility.yul\":5142:5158   */\n          add\n            /* \"#utility.yul\":5107:5172   */\n          tag_78\n          jump\t// in\n        tag_145:\n            /* \"#utility.yul\":5197:5203   */\n          dup1\n            /* \"#utility.yul\":5192:5195   */\n          dup5\n            /* \"#utility.yul\":5188:5204   */\n          add\n            /* \"#utility.yul\":5181:5204   */\n          swap2\n          pop\n            /* \"#utility.yul\":4930:5210   */\n          pop\n            /* \"#utility.yul\":4820:5210   */\n          swap3\n          swap2\n          pop\n          pop\n          jump\t// out\n            /* \"#utility.yul\":5216:5811   */\n        tag_56:\n            /* \"#utility.yul\":5444:5447   */\n          0x00\n            /* \"#utility.yul\":5466:5561   */\n          tag_147\n            /* \"#utility.yul\":5557:5560   */\n          dup3\n            /* \"#utility.yul\":5548:5554   */\n          dup7\n            /* \"#utility.yul\":5466:5561   */\n          tag_88\n          jump\t// in\n        tag_147:\n            /* \"#utility.yul\":5459:5561   */\n          swap2\n          pop\n            /* \"#utility.yul\":5578:5673   */\n          tag_148\n            /* \"#utility.yul\":5669:5672   */\n          dup3\n            /* \"#utility.yul\":5660:5666   */\n          dup6\n            /* \"#utility.yul\":5578:5673   */\n          tag_88\n          jump\t// in\n        tag_148:\n            /* \"#utility.yul\":5571:5673   */\n          swap2\n          pop\n            /* \"#utility.yul\":5690:5785   */\n          tag_149\n            /* \"#utility.yul\":5781:5784   */\n          dup3\n            /* \"#utility.yul\":5772:5778   */\n          dup5\n            /* \"#utility.yul\":5690:5785   */\n          tag_88\n          jump\t// in\n        tag_149:\n            /* \"#utility.yul\":5683:5785   */\n          swap2\n          pop\n            /* \"#utility.yul\":5802:5805   */\n          dup2\n            /* \"#utility.yul\":5795:5805   */\n          swap1\n          pop\n            /* \"#utility.yul\":5216:5811   */\n          swap5\n          swap4\n          pop\n          pop\n          pop\n          pop\n          jump\t// out\n            /* \"#utility.yul\":5817:6037   */\n        tag_89:\n            /* \"#utility.yul\":5957:5991   */\n          0x54686520656e74657265642076616c7565206973204f7574206f662052616e67\n            /* \"#utility.yul\":5953:5954   */\n          0x00\n            /* \"#utility.yul\":5945:5951   */\n          dup3\n            /* \"#utility.yul\":5941:5955   */\n          add\n            /* \"#utility.yul\":5934:5992   */\n          mstore\n            /* \"#utility.yul\":6026:6029   */\n          0x6500000000000000000000000000000000000000000000000000000000000000\n            /* \"#utility.yul\":6021:6023   */\n          0x20\n            /* \"#utility.yul\":6013:6019   */\n          dup3\n            /* \"#utility.yul\":6009:6024   */\n          add\n            /* \"#utility.yul\":6002:6030   */\n          mstore\n            /* \"#utility.yul\":5817:6037   */\n          pop\n          jump\t// out\n            /* \"#utility.yul\":6043:6409   */\n        tag_90:\n            /* \"#utility.yul\":6185:6188   */\n          0x00\n            /* \"#utility.yul\":6206:6273   */\n          tag_152\n            /* \"#utility.yul\":6270:6272   */\n          0x21\n            /* \"#utility.yul\":6265:6268   */\n          dup4\n            /* \"#utility.yul\":6206:6273   */\n          tag_77\n          jump\t// in\n        tag_152:\n            /* \"#utility.yul\":6199:6273   */\n          swap2\n          pop\n            /* \"#utility.yul\":6282:6375   */\n          tag_153\n            /* \"#utility.yul\":6371:6374   */\n          dup3\n            /* \"#utility.yul\":6282:6375   */\n          tag_89\n          jump\t// in\n        tag_153:\n            /* \"#utility.yul\":6400:6402   */\n          0x40\n            /* \"#utility.yul\":6395:6398   */\n          dup3\n            /* \"#utility.yul\":6391:6403   */\n          add\n            /* \"#utility.yul\":6384:6403   */\n          swap1\n          pop\n            /* \"#utility.yul\":6043:6409   */\n          swap2\n          swap1\n          pop\n          jump\t// out\n            /* \"#utility.yul\":6415:6834   */\n        tag_61:\n            /* \"#utility.yul\":6581:6585   */\n          0x00\n            /* \"#utility.yul\":6619:6621   */\n          0x20\n            /* \"#utility.yul\":6608:6617   */\n          dup3\n            /* \"#utility.yul\":6604:6622   */\n          add\n            /* \"#utility.yul\":6596:6622   */\n          swap1\n          pop\n            /* \"#utility.yul\":6668:6677   */\n          dup2\n            /* \"#utility.yul\":6662:6666   */\n          dup2\n            /* \"#utility.yul\":6658:6678   */\n          sub\n            /* \"#utility.yul\":6654:6655   */\n          0x00\n            /* \"#utility.yul\":6643:6652   */\n          dup4\n            /* \"#utility.yul\":6639:6656   */\n          add\n            /* \"#utility.yul\":6632:6679   */\n          mstore\n            /* \"#utility.yul\":6696:6827   */\n          tag_155\n            /* \"#utility.yul\":6822:6826   */\n          dup2\n            /* \"#utility.yul\":6696:6827   */\n          tag_90\n          jump\t// in\n        tag_155:\n            /* \"#utility.yul\":6688:6827   */\n          swap1\n          pop\n            /* \"#utility.yul\":6415:6834   */\n          swap2\n          swap1\n          pop\n          jump\t// out\n            /* \"#utility.yul\":6840:7020   */\n        tag_91:\n            /* \"#utility.yul\":6888:6965   */\n          0x4e487b7100000000000000000000000000000000000000000000000000000000\n            /* \"#utility.yul\":6885:6886   */\n          0x00\n            /* \"#utility.yul\":6878:6966   */\n          mstore\n            /* \"#utility.yul\":6985:6989   */\n          0x11\n            /* \"#utility.yul\":6982:6983   */\n          0x04\n            /* \"#utility.yul\":6975:6990   */\n          mstore\n            /* \"#utility.yul\":7009:7013   */\n          0x24\n            /* \"#utility.yul\":7006:7007   */\n          0x00\n            /* \"#utility.yul\":6999:7014   */\n          revert\n            /* \"#utility.yul\":7026:7436   */\n        tag_64:\n            /* \"#utility.yul\":7066:7073   */\n          0x00\n            /* \"#utility.yul\":7089:7109   */\n          tag_158\n            /* \"#utility.yul\":7107:7108   */\n          dup3\n            /* \"#utility.yul\":7089:7109   */\n          tag_81\n          jump\t// in\n        tag_158:\n            /* \"#utility.yul\":7084:7109   */\n          swap2\n          pop\n            /* \"#utility.yul\":7123:7143   */\n          tag_159\n            /* \"#utility.yul\":7141:7142   */\n          dup4\n            /* \"#utility.yul\":7123:7143   */\n          tag_81\n          jump\t// in\n        tag_159:\n            /* \"#utility.yul\":7118:7143   */\n          swap3\n          pop\n            /* \"#utility.yul\":7178:7179   */\n          dup3\n            /* \"#utility.yul\":7175:7176   */\n          dup3\n            /* \"#utility.yul\":7171:7180   */\n          mul\n            /* \"#utility.yul\":7200:7230   */\n          tag_160\n            /* \"#utility.yul\":7218:7229   */\n          dup2\n            /* \"#utility.yul\":7200:7230   */\n          tag_81\n          jump\t// in\n        tag_160:\n            /* \"#utility.yul\":7189:7230   */\n          swap2\n          pop\n            /* \"#utility.yul\":7379:7380   */\n          dup3\n            /* \"#utility.yul\":7370:7377   */\n          dup3\n            /* \"#utility.yul\":7366:7381   */\n          div\n            /* \"#utility.yul\":7363:7364   */\n          dup5\n            /* \"#utility.yul\":7360:7382   */\n          eq\n            /* \"#utility.yul\":7340:7341   */\n          dup4\n            /* \"#utility.yul\":7333:7342   */\n          iszero\n            /* \"#utility.yul\":7313:7396   */\n          or\n            /* \"#utility.yul\":7290:7429   */\n          tag_161\n          jumpi\n            /* \"#utility.yul\":7409:7427   */\n          tag_162\n          tag_91\n          jump\t// in\n        tag_162:\n            /* \"#utility.yul\":7290:7429   */\n        tag_161:\n            /* \"#utility.yul\":7074:7436   */\n          pop\n            /* \"#utility.yul\":7026:7436   */\n          swap3\n          swap2\n          pop\n          pop\n          jump\t// out\n\n        auxdata: 0xa2646970667358221220190ad4d6eb18addf3e2c04b0c86162f026276c8b10c43c47771c4dac26c6e1ff64736f6c634300081a0033\n    }\n}\n",
				"bytecode": {
					"linkReferences": {},
					"object": "608060405260405161001090610117565b604051809103905ff080158015610029573d5f803e3d5ffd5b505f806101000a81548173ffffffffffffffffffffffffffffffffffffffff021916908373ffffffffffffffffffffffffffffffffffffffff1602179055505f8054906101000a900473ffffffffffffffffffffffffffffffffffffffff1673ffffffffffffffffffffffffffffffffffffffff1663c3f902026040518163ffffffff1660e01b81526004015f60405180830381865afa1580156100cf573d5f803e3d5ffd5b505050506040513d5f823e3d601f19601f820116820180604052508101906100f79190610271565b6001908161010591906104c5565b50348015610111575f80fd5b50610594565b6107c08061079f83390190565b5f604051905090565b5f80fd5b5f80fd5b5f80fd5b5f80fd5b5f601f19601f8301169050919050565b7f4e487b71000000000000000000000000000000000000000000000000000000005f52604160045260245ffd5b6101838261013d565b810181811067ffffffffffffffff821117156101a2576101a161014d565b5b80604052505050565b5f6101b4610124565b90506101c0828261017a565b919050565b5f67ffffffffffffffff8211156101df576101de61014d565b5b6101e88261013d565b9050602081019050919050565b8281835e5f83830152505050565b5f610215610210846101c5565b6101ab565b90508281526020810184848401111561023157610230610139565b5b61023c8482856101f5565b509392505050565b5f82601f83011261025857610257610135565b5b8151610268848260208601610203565b91505092915050565b5f602082840312156102865761028561012d565b5b5f82015167ffffffffffffffff8111156102a3576102a2610131565b5b6102af84828501610244565b91505092915050565b5f81519050919050565b7f4e487b71000000000000000000000000000000000000000000000000000000005f52602260045260245ffd5b5f600282049050600182168061030657607f821691505b602082108103610319576103186102c2565b5b50919050565b5f819050815f5260205f209050919050565b5f6020601f8301049050919050565b5f82821b905092915050565b5f6008830261037b7fffffffffffffffffffffffffffffffffffffffffffffffffffffffffffffffff82610340565b6103858683610340565b95508019841693508086168417925050509392505050565b5f819050919050565b5f819050919050565b5f6103c96103c46103bf8461039d565b6103a6565b61039d565b9050919050565b5f819050919050565b6103e2836103af565b6103f66103ee826103d0565b84845461034c565b825550505050565b5f90565b61040a6103fe565b6104158184846103d9565b505050565b5b818110156104385761042d5f82610402565b60018101905061041b565b5050565b601f82111561047d5761044e8161031f565b61045784610331565b81016020851015610466578190505b61047a61047285610331565b83018261041a565b50505b505050565b5f82821c905092915050565b5f61049d5f1984600802610482565b1980831691505092915050565b5f6104b5838361048e565b9150826002028217905092915050565b6104ce826102b8565b67ffffffffffffffff8111156104e7576104e661014d565b5b6104f182546102ef565b6104fc82828561043c565b5f60209050601f83116001811461052d575f841561051b578287015190505b61052585826104aa565b86555061058c565b601f19841661053b8661031f565b5f5b828110156105625784890151825560018201915060208501945060208101905061053d565b8683101561057f578489015161057b601f89168261048e565b8355505b6001600288020188555050505b505050505050565b6101fe806105a15f395ff3fe608060405234801561000f575f80fd5b5060043610610029575f3560e01c8063029a60221461002d575b5f80fd5b61003561004b565b604051610042919061014b565b60405180910390f35b60606001805461005a90610198565b80601f016020809104026020016040519081016040528092919081815260200182805461008690610198565b80156100d15780601f106100a8576101008083540402835291602001916100d1565b820191905f5260205f20905b8154815290600101906020018083116100b457829003601f168201915b5050505050905090565b5f81519050919050565b5f82825260208201905092915050565b8281835e5f83830152505050565b5f601f19601f8301169050919050565b5f61011d826100db565b61012781856100e5565b93506101378185602086016100f5565b61014081610103565b840191505092915050565b5f6020820190508181035f8301526101638184610113565b905092915050565b7f4e487b71000000000000000000000000000000000000000000000000000000005f52602260045260245ffd5b5f60028204905060018216806101af57607f821691505b6020821081036101c2576101c161016b565b5b5091905056fea2646970667358221220f62bdb2d8bba49742ff6104da889a03ed91a9515d31f8c8aafdf7bbf977c221a64736f6c634300081a00336080604052348015600e575f80fd5b506107a48061001c5f395ff3fe608060405234801561000f575f80fd5b506004361061007b575f3560e01c80637076e062116100595780637076e062146100fd578063b94981721461011b578063c27fc3051461014b578063c3f90202146101695761007b565b806304f045951461007f57806339c54e53146100af5780634e70b1dc146100df575b5f80fd5b61009960048036038101906100949190610411565b610187565b6040516100a6919061044b565b60405180910390f35b6100c960048036038101906100c49190610411565b6101d9565b6040516100d6919061044b565b60405180910390f35b6100e7610224565b6040516100f4919061044b565b60405180910390f35b610105610229565b60405161011291906104d4565b60405180910390f35b61013560048036038101906101309190610527565b61027d565b6040516101429190610561565b60405180910390f35b6101536102e6565b60405161016091906104d4565b60405180910390f35b610171610323565b60405161017e91906104d4565b60405180910390f35b5f8082136101ca576040517f08c379a00000000000000000000000000000000000000000000000000000000081526004016101c1906105ea565b60405180910390fd5b815f819055505f549050919050565b5f808213156101ea575f905061021f565b5f82121561021a577fffffffffffffffffffffffffffffffffffffffffffffffffffffffffffffffff905061021f565b600190505b919050565b5f5481565b6060805f6102356102e6565b90505f610240610360565b90505f61024b61039d565b905082828260405160200161026293929190610642565b60405160208183030381529060405293508394505050505090565b5f81601960fa828210801561029157508083105b6102d0576040517f08c379a00000000000000000000000000000000000000000000000000000000081526004016102c7906106e2565b60405180910390fd5b84856102dc919061072d565b9350505050919050565b60606040518060400160405280601881526020017f204974206973207075626c69632066756e2d6631202d2d200000000000000000815250905090565b60606040518060400160405280601a81526020017f2049742069732065787465726e616c2066756e2d6634202d2d20000000000000815250905090565b60606040518060400160405280601981526020017f20497420697320707269766174652066756e2d6632202d2d2000000000000000815250905090565b60606040518060400160405280601a81526020017f20497420697320696e7465726e616c2066756e2d6633202d2d20000000000000815250905090565b5f80fd5b5f819050919050565b6103f0816103de565b81146103fa575f80fd5b50565b5f8135905061040b816103e7565b92915050565b5f60208284031215610426576104256103da565b5b5f610433848285016103fd565b91505092915050565b610445816103de565b82525050565b5f60208201905061045e5f83018461043c565b92915050565b5f81519050919050565b5f82825260208201905092915050565b8281835e5f83830152505050565b5f601f19601f8301169050919050565b5f6104a682610464565b6104b0818561046e565b93506104c081856020860161047e565b6104c98161048c565b840191505092915050565b5f6020820190508181035f8301526104ec818461049c565b905092915050565b5f819050919050565b610506816104f4565b8114610510575f80fd5b50565b5f81359050610521816104fd565b92915050565b5f6020828403121561053c5761053b6103da565b5b5f61054984828501610513565b91505092915050565b61055b816104f4565b82525050565b5f6020820190506105745f830184610552565b92915050565b7f546869732069732061202d766520616e64205472616e73616374206e6f7420645f8201527f6f6e650000000000000000000000000000000000000000000000000000000000602082015250565b5f6105d460238361046e565b91506105df8261057a565b604082019050919050565b5f6020820190508181035f830152610601816105c8565b9050919050565b5f81905092915050565b5f61061c82610464565b6106268185610608565b935061063681856020860161047e565b80840191505092915050565b5f61064d8286610612565b91506106598285610612565b91506106658284610612565b9150819050949350505050565b7f54686520656e74657265642076616c7565206973204f7574206f662052616e675f8201527f6500000000000000000000000000000000000000000000000000000000000000602082015250565b5f6106cc60218361046e565b91506106d782610672565b604082019050919050565b5f6020820190508181035f8301526106f9816106c0565b9050919050565b7f4e487b71000000000000000000000000000000000000000000000000000000005f52601160045260245ffd5b5f610737826104f4565b9150610742836104f4565b9250828202610750816104f4565b9150828204841483151761076757610766610700565b5b509291505056fea2646970667358221220190ad4d6eb18addf3e2c04b0c86162f026276c8b10c43c47771c4dac26c6e1ff64736f6c634300081a0033",
					"opcodes": "PUSH1 0x80 PUSH1 0x40 MSTORE PUSH1 0x40 MLOAD PUSH2 0x10 SWAP1 PUSH2 0x117 JUMP JUMPDEST PUSH1 0x40 MLOAD DUP1 SWAP2 SUB SWAP1 PUSH0 CREATE DUP1 ISZERO DUP1 ISZERO PUSH2 0x29 JUMPI RETURNDATASIZE PUSH0 DUP1 RETURNDATACOPY RETURNDATASIZE PUSH0 REVERT JUMPDEST POP PUSH0 DUP1 PUSH2 0x100 EXP DUP2 SLOAD DUP2 PUSH20 0xFFFFFFFFFFFFFFFFFFFFFFFFFFFFFFFFFFFFFFFF MUL NOT AND SWAP1 DUP4 PUSH20 0xFFFFFFFFFFFFFFFFFFFFFFFFFFFFFFFFFFFFFFFF AND MUL OR SWAP1 SSTORE POP PUSH0 DUP1 SLOAD SWAP1 PUSH2 0x100 EXP SWAP1 DIV PUSH20 0xFFFFFFFFFFFFFFFFFFFFFFFFFFFFFFFFFFFFFFFF AND PUSH20 0xFFFFFFFFFFFFFFFFFFFFFFFFFFFFFFFFFFFFFFFF AND PUSH4 0xC3F90202 PUSH1 0x40 MLOAD DUP2 PUSH4 0xFFFFFFFF AND PUSH1 0xE0 SHL DUP2 MSTORE PUSH1 0x4 ADD PUSH0 PUSH1 0x40 MLOAD DUP1 DUP4 SUB DUP2 DUP7 GAS STATICCALL ISZERO DUP1 ISZERO PUSH2 0xCF JUMPI RETURNDATASIZE PUSH0 DUP1 RETURNDATACOPY RETURNDATASIZE PUSH0 REVERT JUMPDEST POP POP POP POP PUSH1 0x40 MLOAD RETURNDATASIZE PUSH0 DUP3 RETURNDATACOPY RETURNDATASIZE PUSH1 0x1F NOT PUSH1 0x1F DUP3 ADD AND DUP3 ADD DUP1 PUSH1 0x40 MSTORE POP DUP2 ADD SWAP1 PUSH2 0xF7 SWAP2 SWAP1 PUSH2 0x271 JUMP JUMPDEST PUSH1 0x1 SWAP1 DUP2 PUSH2 0x105 SWAP2 SWAP1 PUSH2 0x4C5 JUMP JUMPDEST POP CALLVALUE DUP1 ISZERO PUSH2 0x111 JUMPI PUSH0 DUP1 REVERT JUMPDEST POP PUSH2 0x594 JUMP JUMPDEST PUSH2 0x7C0 DUP1 PUSH2 0x79F DUP4 CODECOPY ADD SWAP1 JUMP JUMPDEST PUSH0 PUSH1 0x40 MLOAD SWAP1 POP SWAP1 JUMP JUMPDEST PUSH0 DUP1 REVERT JUMPDEST PUSH0 DUP1 REVERT JUMPDEST PUSH0 DUP1 REVERT JUMPDEST PUSH0 DUP1 REVERT JUMPDEST PUSH0 PUSH1 0x1F NOT PUSH1 0x1F DUP4 ADD AND SWAP1 POP SWAP2 SWAP1 POP JUMP JUMPDEST PUSH32 0x4E487B7100000000000000000000000000000000000000000000000000000000 PUSH0 MSTORE PUSH1 0x41 PUSH1 0x4 MSTORE PUSH1 0x24 PUSH0 REVERT JUMPDEST PUSH2 0x183 DUP3 PUSH2 0x13D JUMP JUMPDEST DUP2 ADD DUP2 DUP2 LT PUSH8 0xFFFFFFFFFFFFFFFF DUP3 GT OR ISZERO PUSH2 0x1A2 JUMPI PUSH2 0x1A1 PUSH2 0x14D JUMP JUMPDEST JUMPDEST DUP1 PUSH1 0x40 MSTORE POP POP POP JUMP JUMPDEST PUSH0 PUSH2 0x1B4 PUSH2 0x124 JUMP JUMPDEST SWAP1 POP PUSH2 0x1C0 DUP3 DUP3 PUSH2 0x17A JUMP JUMPDEST SWAP2 SWAP1 POP JUMP JUMPDEST PUSH0 PUSH8 0xFFFFFFFFFFFFFFFF DUP3 GT ISZERO PUSH2 0x1DF JUMPI PUSH2 0x1DE PUSH2 0x14D JUMP JUMPDEST JUMPDEST PUSH2 0x1E8 DUP3 PUSH2 0x13D JUMP JUMPDEST SWAP1 POP PUSH1 0x20 DUP2 ADD SWAP1 POP SWAP2 SWAP1 POP JUMP JUMPDEST DUP3 DUP2 DUP4 MCOPY PUSH0 DUP4 DUP4 ADD MSTORE POP POP POP JUMP JUMPDEST PUSH0 PUSH2 0x215 PUSH2 0x210 DUP5 PUSH2 0x1C5 JUMP JUMPDEST PUSH2 0x1AB JUMP JUMPDEST SWAP1 POP DUP3 DUP2 MSTORE PUSH1 0x20 DUP2 ADD DUP5 DUP5 DUP5 ADD GT ISZERO PUSH2 0x231 JUMPI PUSH2 0x230 PUSH2 0x139 JUMP JUMPDEST JUMPDEST PUSH2 0x23C DUP5 DUP3 DUP6 PUSH2 0x1F5 JUMP JUMPDEST POP SWAP4 SWAP3 POP POP POP JUMP JUMPDEST PUSH0 DUP3 PUSH1 0x1F DUP4 ADD SLT PUSH2 0x258 JUMPI PUSH2 0x257 PUSH2 0x135 JUMP JUMPDEST JUMPDEST DUP2 MLOAD PUSH2 0x268 DUP5 DUP3 PUSH1 0x20 DUP7 ADD PUSH2 0x203 JUMP JUMPDEST SWAP2 POP POP SWAP3 SWAP2 POP POP JUMP JUMPDEST PUSH0 PUSH1 0x20 DUP3 DUP5 SUB SLT ISZERO PUSH2 0x286 JUMPI PUSH2 0x285 PUSH2 0x12D JUMP JUMPDEST JUMPDEST PUSH0 DUP3 ADD MLOAD PUSH8 0xFFFFFFFFFFFFFFFF DUP2 GT ISZERO PUSH2 0x2A3 JUMPI PUSH2 0x2A2 PUSH2 0x131 JUMP JUMPDEST JUMPDEST PUSH2 0x2AF DUP5 DUP3 DUP6 ADD PUSH2 0x244 JUMP JUMPDEST SWAP2 POP POP SWAP3 SWAP2 POP POP JUMP JUMPDEST PUSH0 DUP2 MLOAD SWAP1 POP SWAP2 SWAP1 POP JUMP JUMPDEST PUSH32 0x4E487B7100000000000000000000000000000000000000000000000000000000 PUSH0 MSTORE PUSH1 0x22 PUSH1 0x4 MSTORE PUSH1 0x24 PUSH0 REVERT JUMPDEST PUSH0 PUSH1 0x2 DUP3 DIV SWAP1 POP PUSH1 0x1 DUP3 AND DUP1 PUSH2 0x306 JUMPI PUSH1 0x7F DUP3 AND SWAP2 POP JUMPDEST PUSH1 0x20 DUP3 LT DUP2 SUB PUSH2 0x319 JUMPI PUSH2 0x318 PUSH2 0x2C2 JUMP JUMPDEST JUMPDEST POP SWAP2 SWAP1 POP JUMP JUMPDEST PUSH0 DUP2 SWAP1 POP DUP2 PUSH0 MSTORE PUSH1 0x20 PUSH0 KECCAK256 SWAP1 POP SWAP2 SWAP1 POP JUMP JUMPDEST PUSH0 PUSH1 0x20 PUSH1 0x1F DUP4 ADD DIV SWAP1 POP SWAP2 SWAP1 POP JUMP JUMPDEST PUSH0 DUP3 DUP3 SHL SWAP1 POP SWAP3 SWAP2 POP POP JUMP JUMPDEST PUSH0 PUSH1 0x8 DUP4 MUL PUSH2 0x37B PUSH32 0xFFFFFFFFFFFFFFFFFFFFFFFFFFFFFFFFFFFFFFFFFFFFFFFFFFFFFFFFFFFFFFFF DUP3 PUSH2 0x340 JUMP JUMPDEST PUSH2 0x385 DUP7 DUP4 PUSH2 0x340 JUMP JUMPDEST SWAP6 POP DUP1 NOT DUP5 AND SWAP4 POP DUP1 DUP7 AND DUP5 OR SWAP3 POP POP POP SWAP4 SWAP3 POP POP POP JUMP JUMPDEST PUSH0 DUP2 SWAP1 POP SWAP2 SWAP1 POP JUMP JUMPDEST PUSH0 DUP2 SWAP1 POP SWAP2 SWAP1 POP JUMP JUMPDEST PUSH0 PUSH2 0x3C9 PUSH2 0x3C4 PUSH2 0x3BF DUP5 PUSH2 0x39D JUMP JUMPDEST PUSH2 0x3A6 JUMP JUMPDEST PUSH2 0x39D JUMP JUMPDEST SWAP1 POP SWAP2 SWAP1 POP JUMP JUMPDEST PUSH0 DUP2 SWAP1 POP SWAP2 SWAP1 POP JUMP JUMPDEST PUSH2 0x3E2 DUP4 PUSH2 0x3AF JUMP JUMPDEST PUSH2 0x3F6 PUSH2 0x3EE DUP3 PUSH2 0x3D0 JUMP JUMPDEST DUP5 DUP5 SLOAD PUSH2 0x34C JUMP JUMPDEST DUP3 SSTORE POP POP POP POP JUMP JUMPDEST PUSH0 SWAP1 JUMP JUMPDEST PUSH2 0x40A PUSH2 0x3FE JUMP JUMPDEST PUSH2 0x415 DUP2 DUP5 DUP5 PUSH2 0x3D9 JUMP JUMPDEST POP POP POP JUMP JUMPDEST JUMPDEST DUP2 DUP2 LT ISZERO PUSH2 0x438 JUMPI PUSH2 0x42D PUSH0 DUP3 PUSH2 0x402 JUMP JUMPDEST PUSH1 0x1 DUP2 ADD SWAP1 POP PUSH2 0x41B JUMP JUMPDEST POP POP JUMP JUMPDEST PUSH1 0x1F DUP3 GT ISZERO PUSH2 0x47D JUMPI PUSH2 0x44E DUP2 PUSH2 0x31F JUMP JUMPDEST PUSH2 0x457 DUP5 PUSH2 0x331 JUMP JUMPDEST DUP2 ADD PUSH1 0x20 DUP6 LT ISZERO PUSH2 0x466 JUMPI DUP2 SWAP1 POP JUMPDEST PUSH2 0x47A PUSH2 0x472 DUP6 PUSH2 0x331 JUMP JUMPDEST DUP4 ADD DUP3 PUSH2 0x41A JUMP JUMPDEST POP POP JUMPDEST POP POP POP JUMP JUMPDEST PUSH0 DUP3 DUP3 SHR SWAP1 POP SWAP3 SWAP2 POP POP JUMP JUMPDEST PUSH0 PUSH2 0x49D PUSH0 NOT DUP5 PUSH1 0x8 MUL PUSH2 0x482 JUMP JUMPDEST NOT DUP1 DUP4 AND SWAP2 POP POP SWAP3 SWAP2 POP POP JUMP JUMPDEST PUSH0 PUSH2 0x4B5 DUP4 DUP4 PUSH2 0x48E JUMP JUMPDEST SWAP2 POP DUP3 PUSH1 0x2 MUL DUP3 OR SWAP1 POP SWAP3 SWAP2 POP POP JUMP JUMPDEST PUSH2 0x4CE DUP3 PUSH2 0x2B8 JUMP JUMPDEST PUSH8 0xFFFFFFFFFFFFFFFF DUP2 GT ISZERO PUSH2 0x4E7 JUMPI PUSH2 0x4E6 PUSH2 0x14D JUMP JUMPDEST JUMPDEST PUSH2 0x4F1 DUP3 SLOAD PUSH2 0x2EF JUMP JUMPDEST PUSH2 0x4FC DUP3 DUP3 DUP6 PUSH2 0x43C JUMP JUMPDEST PUSH0 PUSH1 0x20 SWAP1 POP PUSH1 0x1F DUP4 GT PUSH1 0x1 DUP2 EQ PUSH2 0x52D JUMPI PUSH0 DUP5 ISZERO PUSH2 0x51B JUMPI DUP3 DUP8 ADD MLOAD SWAP1 POP JUMPDEST PUSH2 0x525 DUP6 DUP3 PUSH2 0x4AA JUMP JUMPDEST DUP7 SSTORE POP PUSH2 0x58C JUMP JUMPDEST PUSH1 0x1F NOT DUP5 AND PUSH2 0x53B DUP7 PUSH2 0x31F JUMP JUMPDEST PUSH0 JUMPDEST DUP3 DUP2 LT ISZERO PUSH2 0x562 JUMPI DUP5 DUP10 ADD MLOAD DUP3 SSTORE PUSH1 0x1 DUP3 ADD SWAP2 POP PUSH1 0x20 DUP6 ADD SWAP5 POP PUSH1 0x20 DUP2 ADD SWAP1 POP PUSH2 0x53D JUMP JUMPDEST DUP7 DUP4 LT ISZERO PUSH2 0x57F JUMPI DUP5 DUP10 ADD MLOAD PUSH2 0x57B PUSH1 0x1F DUP10 AND DUP3 PUSH2 0x48E JUMP JUMPDEST DUP4 SSTORE POP JUMPDEST PUSH1 0x1 PUSH1 0x2 DUP9 MUL ADD DUP9 SSTORE POP POP POP JUMPDEST POP POP POP POP POP POP JUMP JUMPDEST PUSH2 0x1FE DUP1 PUSH2 0x5A1 PUSH0 CODECOPY PUSH0 RETURN INVALID PUSH1 0x80 PUSH1 0x40 MSTORE CALLVALUE DUP1 ISZERO PUSH2 0xF JUMPI PUSH0 DUP1 REVERT JUMPDEST POP PUSH1 0x4 CALLDATASIZE LT PUSH2 0x29 JUMPI PUSH0 CALLDATALOAD PUSH1 0xE0 SHR DUP1 PUSH4 0x29A6022 EQ PUSH2 0x2D JUMPI JUMPDEST PUSH0 DUP1 REVERT JUMPDEST PUSH2 0x35 PUSH2 0x4B JUMP JUMPDEST PUSH1 0x40 MLOAD PUSH2 0x42 SWAP2 SWAP1 PUSH2 0x14B JUMP JUMPDEST PUSH1 0x40 MLOAD DUP1 SWAP2 SUB SWAP1 RETURN JUMPDEST PUSH1 0x60 PUSH1 0x1 DUP1 SLOAD PUSH2 0x5A SWAP1 PUSH2 0x198 JUMP JUMPDEST DUP1 PUSH1 0x1F ADD PUSH1 0x20 DUP1 SWAP2 DIV MUL PUSH1 0x20 ADD PUSH1 0x40 MLOAD SWAP1 DUP2 ADD PUSH1 0x40 MSTORE DUP1 SWAP3 SWAP2 SWAP1 DUP2 DUP2 MSTORE PUSH1 0x20 ADD DUP3 DUP1 SLOAD PUSH2 0x86 SWAP1 PUSH2 0x198 JUMP JUMPDEST DUP1 ISZERO PUSH2 0xD1 JUMPI DUP1 PUSH1 0x1F LT PUSH2 0xA8 JUMPI PUSH2 0x100 DUP1 DUP4 SLOAD DIV MUL DUP4 MSTORE SWAP2 PUSH1 0x20 ADD SWAP2 PUSH2 0xD1 JUMP JUMPDEST DUP3 ADD SWAP2 SWAP1 PUSH0 MSTORE PUSH1 0x20 PUSH0 KECCAK256 SWAP1 JUMPDEST DUP2 SLOAD DUP2 MSTORE SWAP1 PUSH1 0x1 ADD SWAP1 PUSH1 0x20 ADD DUP1 DUP4 GT PUSH2 0xB4 JUMPI DUP3 SWAP1 SUB PUSH1 0x1F AND DUP3 ADD SWAP2 JUMPDEST POP POP POP POP POP SWAP1 POP SWAP1 JUMP JUMPDEST PUSH0 DUP2 MLOAD SWAP1 POP SWAP2 SWAP1 POP JUMP JUMPDEST PUSH0 DUP3 DUP3 MSTORE PUSH1 0x20 DUP3 ADD SWAP1 POP SWAP3 SWAP2 POP POP JUMP JUMPDEST DUP3 DUP2 DUP4 MCOPY PUSH0 DUP4 DUP4 ADD MSTORE POP POP POP JUMP JUMPDEST PUSH0 PUSH1 0x1F NOT PUSH1 0x1F DUP4 ADD AND SWAP1 POP SWAP2 SWAP1 POP JUMP JUMPDEST PUSH0 PUSH2 0x11D DUP3 PUSH2 0xDB JUMP JUMPDEST PUSH2 0x127 DUP2 DUP6 PUSH2 0xE5 JUMP JUMPDEST SWAP4 POP PUSH2 0x137 DUP2 DUP6 PUSH1 0x20 DUP7 ADD PUSH2 0xF5 JUMP JUMPDEST PUSH2 0x140 DUP2 PUSH2 0x103 JUMP JUMPDEST DUP5 ADD SWAP2 POP POP SWAP3 SWAP2 POP POP JUMP JUMPDEST PUSH0 PUSH1 0x20 DUP3 ADD SWAP1 POP DUP2 DUP2 SUB PUSH0 DUP4 ADD MSTORE PUSH2 0x163 DUP2 DUP5 PUSH2 0x113 JUMP JUMPDEST SWAP1 POP SWAP3 SWAP2 POP POP JUMP JUMPDEST PUSH32 0x4E487B7100000000000000000000000000000000000000000000000000000000 PUSH0 MSTORE PUSH1 0x22 PUSH1 0x4 MSTORE PUSH1 0x24 PUSH0 REVERT JUMPDEST PUSH0 PUSH1 0x2 DUP3 DIV SWAP1 POP PUSH1 0x1 DUP3 AND DUP1 PUSH2 0x1AF JUMPI PUSH1 0x7F DUP3 AND SWAP2 POP JUMPDEST PUSH1 0x20 DUP3 LT DUP2 SUB PUSH2 0x1C2 JUMPI PUSH2 0x1C1 PUSH2 0x16B JUMP JUMPDEST JUMPDEST POP SWAP2 SWAP1 POP JUMP INVALID LOG2 PUSH5 0x6970667358 0x22 SLT KECCAK256 0xF6 0x2B 0xDB 0x2D DUP12 0xBA BLOBHASH PUSH21 0x2FF6104DA889A03ED91A9515D31F8C8AAFDF7BBF97 PUSH29 0x221A64736F6C634300081A00336080604052348015600E575F80FD5B50 PUSH2 0x7A4 DUP1 PUSH2 0x1C PUSH0 CODECOPY PUSH0 RETURN INVALID PUSH1 0x80 PUSH1 0x40 MSTORE CALLVALUE DUP1 ISZERO PUSH2 0xF JUMPI PUSH0 DUP1 REVERT JUMPDEST POP PUSH1 0x4 CALLDATASIZE LT PUSH2 0x7B JUMPI PUSH0 CALLDATALOAD PUSH1 0xE0 SHR DUP1 PUSH4 0x7076E062 GT PUSH2 0x59 JUMPI DUP1 PUSH4 0x7076E062 EQ PUSH2 0xFD JUMPI DUP1 PUSH4 0xB9498172 EQ PUSH2 0x11B JUMPI DUP1 PUSH4 0xC27FC305 EQ PUSH2 0x14B JUMPI DUP1 PUSH4 0xC3F90202 EQ PUSH2 0x169 JUMPI PUSH2 0x7B JUMP JUMPDEST DUP1 PUSH4 0x4F04595 EQ PUSH2 0x7F JUMPI DUP1 PUSH4 0x39C54E53 EQ PUSH2 0xAF JUMPI DUP1 PUSH4 0x4E70B1DC EQ PUSH2 0xDF JUMPI JUMPDEST PUSH0 DUP1 REVERT JUMPDEST PUSH2 0x99 PUSH1 0x4 DUP1 CALLDATASIZE SUB DUP2 ADD SWAP1 PUSH2 0x94 SWAP2 SWAP1 PUSH2 0x411 JUMP JUMPDEST PUSH2 0x187 JUMP JUMPDEST PUSH1 0x40 MLOAD PUSH2 0xA6 SWAP2 SWAP1 PUSH2 0x44B JUMP JUMPDEST PUSH1 0x40 MLOAD DUP1 SWAP2 SUB SWAP1 RETURN JUMPDEST PUSH2 0xC9 PUSH1 0x4 DUP1 CALLDATASIZE SUB DUP2 ADD SWAP1 PUSH2 0xC4 SWAP2 SWAP1 PUSH2 0x411 JUMP JUMPDEST PUSH2 0x1D9 JUMP JUMPDEST PUSH1 0x40 MLOAD PUSH2 0xD6 SWAP2 SWAP1 PUSH2 0x44B JUMP JUMPDEST PUSH1 0x40 MLOAD DUP1 SWAP2 SUB SWAP1 RETURN JUMPDEST PUSH2 0xE7 PUSH2 0x224 JUMP JUMPDEST PUSH1 0x40 MLOAD PUSH2 0xF4 SWAP2 SWAP1 PUSH2 0x44B JUMP JUMPDEST PUSH1 0x40 MLOAD DUP1 SWAP2 SUB SWAP1 RETURN JUMPDEST PUSH2 0x105 PUSH2 0x229 JUMP JUMPDEST PUSH1 0x40 MLOAD PUSH2 0x112 SWAP2 SWAP1 PUSH2 0x4D4 JUMP JUMPDEST PUSH1 0x40 MLOAD DUP1 SWAP2 SUB SWAP1 RETURN JUMPDEST PUSH2 0x135 PUSH1 0x4 DUP1 CALLDATASIZE SUB DUP2 ADD SWAP1 PUSH2 0x130 SWAP2 SWAP1 PUSH2 0x527 JUMP JUMPDEST PUSH2 0x27D JUMP JUMPDEST PUSH1 0x40 MLOAD PUSH2 0x142 SWAP2 SWAP1 PUSH2 0x561 JUMP JUMPDEST PUSH1 0x40 MLOAD DUP1 SWAP2 SUB SWAP1 RETURN JUMPDEST PUSH2 0x153 PUSH2 0x2E6 JUMP JUMPDEST PUSH1 0x40 MLOAD PUSH2 0x160 SWAP2 SWAP1 PUSH2 0x4D4 JUMP JUMPDEST PUSH1 0x40 MLOAD DUP1 SWAP2 SUB SWAP1 RETURN JUMPDEST PUSH2 0x171 PUSH2 0x323 JUMP JUMPDEST PUSH1 0x40 MLOAD PUSH2 0x17E SWAP2 SWAP1 PUSH2 0x4D4 JUMP JUMPDEST PUSH1 0x40 MLOAD DUP1 SWAP2 SUB SWAP1 RETURN JUMPDEST PUSH0 DUP1 DUP3 SGT PUSH2 0x1CA JUMPI PUSH1 0x40 MLOAD PUSH32 0x8C379A000000000000000000000000000000000000000000000000000000000 DUP2 MSTORE PUSH1 0x4 ADD PUSH2 0x1C1 SWAP1 PUSH2 0x5EA JUMP JUMPDEST PUSH1 0x40 MLOAD DUP1 SWAP2 SUB SWAP1 REVERT JUMPDEST DUP2 PUSH0 DUP2 SWAP1 SSTORE POP PUSH0 SLOAD SWAP1 POP SWAP2 SWAP1 POP JUMP JUMPDEST PUSH0 DUP1 DUP3 SGT ISZERO PUSH2 0x1EA JUMPI PUSH0 SWAP1 POP PUSH2 0x21F JUMP JUMPDEST PUSH0 DUP3 SLT ISZERO PUSH2 0x21A JUMPI PUSH32 0xFFFFFFFFFFFFFFFFFFFFFFFFFFFFFFFFFFFFFFFFFFFFFFFFFFFFFFFFFFFFFFFF SWAP1 POP PUSH2 0x21F JUMP JUMPDEST PUSH1 0x1 SWAP1 POP JUMPDEST SWAP2 SWAP1 POP JUMP JUMPDEST PUSH0 SLOAD DUP2 JUMP JUMPDEST PUSH1 0x60 DUP1 PUSH0 PUSH2 0x235 PUSH2 0x2E6 JUMP JUMPDEST SWAP1 POP PUSH0 PUSH2 0x240 PUSH2 0x360 JUMP JUMPDEST SWAP1 POP PUSH0 PUSH2 0x24B PUSH2 0x39D JUMP JUMPDEST SWAP1 POP DUP3 DUP3 DUP3 PUSH1 0x40 MLOAD PUSH1 0x20 ADD PUSH2 0x262 SWAP4 SWAP3 SWAP2 SWAP1 PUSH2 0x642 JUMP JUMPDEST PUSH1 0x40 MLOAD PUSH1 0x20 DUP2 DUP4 SUB SUB DUP2 MSTORE SWAP1 PUSH1 0x40 MSTORE SWAP4 POP DUP4 SWAP5 POP POP POP POP POP SWAP1 JUMP JUMPDEST PUSH0 DUP2 PUSH1 0x19 PUSH1 0xFA DUP3 DUP3 LT DUP1 ISZERO PUSH2 0x291 JUMPI POP DUP1 DUP4 LT JUMPDEST PUSH2 0x2D0 JUMPI PUSH1 0x40 MLOAD PUSH32 0x8C379A000000000000000000000000000000000000000000000000000000000 DUP2 MSTORE PUSH1 0x4 ADD PUSH2 0x2C7 SWAP1 PUSH2 0x6E2 JUMP JUMPDEST PUSH1 0x40 MLOAD DUP1 SWAP2 SUB SWAP1 REVERT JUMPDEST DUP5 DUP6 PUSH2 0x2DC SWAP2 SWAP1 PUSH2 0x72D JUMP JUMPDEST SWAP4 POP POP POP POP SWAP2 SWAP1 POP JUMP JUMPDEST PUSH1 0x60 PUSH1 0x40 MLOAD DUP1 PUSH1 0x40 ADD PUSH1 0x40 MSTORE DUP1 PUSH1 0x18 DUP2 MSTORE PUSH1 0x20 ADD PUSH32 0x204974206973207075626C69632066756E2D6631202D2D200000000000000000 DUP2 MSTORE POP SWAP1 POP SWAP1 JUMP JUMPDEST PUSH1 0x60 PUSH1 0x40 MLOAD DUP1 PUSH1 0x40 ADD PUSH1 0x40 MSTORE DUP1 PUSH1 0x1A DUP2 MSTORE PUSH1 0x20 ADD PUSH32 0x2049742069732065787465726E616C2066756E2D6634202D2D20000000000000 DUP2 MSTORE POP SWAP1 POP SWAP1 JUMP JUMPDEST PUSH1 0x60 PUSH1 0x40 MLOAD DUP1 PUSH1 0x40 ADD PUSH1 0x40 MSTORE DUP1 PUSH1 0x19 DUP2 MSTORE PUSH1 0x20 ADD PUSH32 0x20497420697320707269766174652066756E2D6632202D2D2000000000000000 DUP2 MSTORE POP SWAP1 POP SWAP1 JUMP JUMPDEST PUSH1 0x60 PUSH1 0x40 MLOAD DUP1 PUSH1 0x40 ADD PUSH1 0x40 MSTORE DUP1 PUSH1 0x1A DUP2 MSTORE PUSH1 0x20 ADD PUSH32 0x20497420697320696E7465726E616C2066756E2D6633202D2D20000000000000 DUP2 MSTORE POP SWAP1 POP SWAP1 JUMP JUMPDEST PUSH0 DUP1 REVERT JUMPDEST PUSH0 DUP2 SWAP1 POP SWAP2 SWAP1 POP JUMP JUMPDEST PUSH2 0x3F0 DUP2 PUSH2 0x3DE JUMP JUMPDEST DUP2 EQ PUSH2 0x3FA JUMPI PUSH0 DUP1 REVERT JUMPDEST POP JUMP JUMPDEST PUSH0 DUP2 CALLDATALOAD SWAP1 POP PUSH2 0x40B DUP2 PUSH2 0x3E7 JUMP JUMPDEST SWAP3 SWAP2 POP POP JUMP JUMPDEST PUSH0 PUSH1 0x20 DUP3 DUP5 SUB SLT ISZERO PUSH2 0x426 JUMPI PUSH2 0x425 PUSH2 0x3DA JUMP JUMPDEST JUMPDEST PUSH0 PUSH2 0x433 DUP5 DUP3 DUP6 ADD PUSH2 0x3FD JUMP JUMPDEST SWAP2 POP POP SWAP3 SWAP2 POP POP JUMP JUMPDEST PUSH2 0x445 DUP2 PUSH2 0x3DE JUMP JUMPDEST DUP3 MSTORE POP POP JUMP JUMPDEST PUSH0 PUSH1 0x20 DUP3 ADD SWAP1 POP PUSH2 0x45E PUSH0 DUP4 ADD DUP5 PUSH2 0x43C JUMP JUMPDEST SWAP3 SWAP2 POP POP JUMP JUMPDEST PUSH0 DUP2 MLOAD SWAP1 POP SWAP2 SWAP1 POP JUMP JUMPDEST PUSH0 DUP3 DUP3 MSTORE PUSH1 0x20 DUP3 ADD SWAP1 POP SWAP3 SWAP2 POP POP JUMP JUMPDEST DUP3 DUP2 DUP4 MCOPY PUSH0 DUP4 DUP4 ADD MSTORE POP POP POP JUMP JUMPDEST PUSH0 PUSH1 0x1F NOT PUSH1 0x1F DUP4 ADD AND SWAP1 POP SWAP2 SWAP1 POP JUMP JUMPDEST PUSH0 PUSH2 0x4A6 DUP3 PUSH2 0x464 JUMP JUMPDEST PUSH2 0x4B0 DUP2 DUP6 PUSH2 0x46E JUMP JUMPDEST SWAP4 POP PUSH2 0x4C0 DUP2 DUP6 PUSH1 0x20 DUP7 ADD PUSH2 0x47E JUMP JUMPDEST PUSH2 0x4C9 DUP2 PUSH2 0x48C JUMP JUMPDEST DUP5 ADD SWAP2 POP POP SWAP3 SWAP2 POP POP JUMP JUMPDEST PUSH0 PUSH1 0x20 DUP3 ADD SWAP1 POP DUP2 DUP2 SUB PUSH0 DUP4 ADD MSTORE PUSH2 0x4EC DUP2 DUP5 PUSH2 0x49C JUMP JUMPDEST SWAP1 POP SWAP3 SWAP2 POP POP JUMP JUMPDEST PUSH0 DUP2 SWAP1 POP SWAP2 SWAP1 POP JUMP JUMPDEST PUSH2 0x506 DUP2 PUSH2 0x4F4 JUMP JUMPDEST DUP2 EQ PUSH2 0x510 JUMPI PUSH0 DUP1 REVERT JUMPDEST POP JUMP JUMPDEST PUSH0 DUP2 CALLDATALOAD SWAP1 POP PUSH2 0x521 DUP2 PUSH2 0x4FD JUMP JUMPDEST SWAP3 SWAP2 POP POP JUMP JUMPDEST PUSH0 PUSH1 0x20 DUP3 DUP5 SUB SLT ISZERO PUSH2 0x53C JUMPI PUSH2 0x53B PUSH2 0x3DA JUMP JUMPDEST JUMPDEST PUSH0 PUSH2 0x549 DUP5 DUP3 DUP6 ADD PUSH2 0x513 JUMP JUMPDEST SWAP2 POP POP SWAP3 SWAP2 POP POP JUMP JUMPDEST PUSH2 0x55B DUP2 PUSH2 0x4F4 JUMP JUMPDEST DUP3 MSTORE POP POP JUMP JUMPDEST PUSH0 PUSH1 0x20 DUP3 ADD SWAP1 POP PUSH2 0x574 PUSH0 DUP4 ADD DUP5 PUSH2 0x552 JUMP JUMPDEST SWAP3 SWAP2 POP POP JUMP JUMPDEST PUSH32 0x546869732069732061202D766520616E64205472616E73616374206E6F742064 PUSH0 DUP3 ADD MSTORE PUSH32 0x6F6E650000000000000000000000000000000000000000000000000000000000 PUSH1 0x20 DUP3 ADD MSTORE POP JUMP JUMPDEST PUSH0 PUSH2 0x5D4 PUSH1 0x23 DUP4 PUSH2 0x46E JUMP JUMPDEST SWAP2 POP PUSH2 0x5DF DUP3 PUSH2 0x57A JUMP JUMPDEST PUSH1 0x40 DUP3 ADD SWAP1 POP SWAP2 SWAP1 POP JUMP JUMPDEST PUSH0 PUSH1 0x20 DUP3 ADD SWAP1 POP DUP2 DUP2 SUB PUSH0 DUP4 ADD MSTORE PUSH2 0x601 DUP2 PUSH2 0x5C8 JUMP JUMPDEST SWAP1 POP SWAP2 SWAP1 POP JUMP JUMPDEST PUSH0 DUP2 SWAP1 POP SWAP3 SWAP2 POP POP JUMP JUMPDEST PUSH0 PUSH2 0x61C DUP3 PUSH2 0x464 JUMP JUMPDEST PUSH2 0x626 DUP2 DUP6 PUSH2 0x608 JUMP JUMPDEST SWAP4 POP PUSH2 0x636 DUP2 DUP6 PUSH1 0x20 DUP7 ADD PUSH2 0x47E JUMP JUMPDEST DUP1 DUP5 ADD SWAP2 POP POP SWAP3 SWAP2 POP POP JUMP JUMPDEST PUSH0 PUSH2 0x64D DUP3 DUP7 PUSH2 0x612 JUMP JUMPDEST SWAP2 POP PUSH2 0x659 DUP3 DUP6 PUSH2 0x612 JUMP JUMPDEST SWAP2 POP PUSH2 0x665 DUP3 DUP5 PUSH2 0x612 JUMP JUMPDEST SWAP2 POP DUP2 SWAP1 POP SWAP5 SWAP4 POP POP POP POP JUMP JUMPDEST PUSH32 0x54686520656E74657265642076616C7565206973204F7574206F662052616E67 PUSH0 DUP3 ADD MSTORE PUSH32 0x6500000000000000000000000000000000000000000000000000000000000000 PUSH1 0x20 DUP3 ADD MSTORE POP JUMP JUMPDEST PUSH0 PUSH2 0x6CC PUSH1 0x21 DUP4 PUSH2 0x46E JUMP JUMPDEST SWAP2 POP PUSH2 0x6D7 DUP3 PUSH2 0x672 JUMP JUMPDEST PUSH1 0x40 DUP3 ADD SWAP1 POP SWAP2 SWAP1 POP JUMP JUMPDEST PUSH0 PUSH1 0x20 DUP3 ADD SWAP1 POP DUP2 DUP2 SUB PUSH0 DUP4 ADD MSTORE PUSH2 0x6F9 DUP2 PUSH2 0x6C0 JUMP JUMPDEST SWAP1 POP SWAP2 SWAP1 POP JUMP JUMPDEST PUSH32 0x4E487B7100000000000000000000000000000000000000000000000000000000 PUSH0 MSTORE PUSH1 0x11 PUSH1 0x4 MSTORE PUSH1 0x24 PUSH0 REVERT JUMPDEST PUSH0 PUSH2 0x737 DUP3 PUSH2 0x4F4 JUMP JUMPDEST SWAP2 POP PUSH2 0x742 DUP4 PUSH2 0x4F4 JUMP JUMPDEST SWAP3 POP DUP3 DUP3 MUL PUSH2 0x750 DUP2 PUSH2 0x4F4 JUMP JUMPDEST SWAP2 POP DUP3 DUP3 DIV DUP5 EQ DUP4 ISZERO OR PUSH2 0x767 JUMPI PUSH2 0x766 PUSH2 0x700 JUMP JUMPDEST JUMPDEST POP SWAP3 SWAP2 POP POP JUMP INVALID LOG2 PUSH5 0x6970667358 0x22 SLT KECCAK256 NOT EXP 0xD4 0xD6 0xEB XOR 0xAD 0xDF RETURNDATACOPY 0x2C DIV 0xB0 0xC8 PUSH2 0x62F0 0x26 0x27 PUSH13 0x8B10C43C47771C4DAC26C6E1FF PUSH5 0x736F6C6343 STOP ADDMOD BYTE STOP CALLER "
				},
				"gasEstimates": {
					"creation": {
						"codeDepositCost": "102000",
						"executionCost": "infinite",
						"totalCost": "infinite"
					},
					"external": {
						"returnExtFun()": "infinite"
					}
				},
				"methodIdentifiers": {
					"returnExtFun()": "029a6022"
				}
			},
			"storageLayout": {
				"storage": [
					{
						"astId": 169,
						"contract": "contracts/1_Storage.sol:newConract",
						"label": "obj",
						"offset": 0,
						"slot": "0",
						"type": "t_contract(Storage)162"
					},
					{
						"astId": 174,
						"contract": "contracts/1_Storage.sol:newConract",
						"label": "data",
						"offset": 0,
						"slot": "1",
						"type": "t_string_storage"
					}
				],
				"types": {
					"t_contract(Storage)162": {
						"encoding": "inplace",
						"label": "contract Storage",
						"numberOfBytes": "20"
					},
					"t_string_storage": {
						"encoding": "bytes",
						"label": "string",
						"numberOfBytes": "32"
					}
				}
			},
			"userdoc": {
				"kind": "user",
				"methods": {},
				"version": 1
			}
		}
	}
}